:10118900053900000000CD053400000000AB1861EE
:101199005E6CA774FDE3DFBCF7DA4A4F652D6EF08C
:0811A900FFA6E65A8482664F9E
:1006E300120ED61211051214A37B007A0079147529
:1006F30020007521047F007EFA12124F7A00797967
:100703007520007521107F047EFA12124F78397C10
:10071300007D007A0079147E007F041201D07834C2
:100723007C007D007B007A0079147E007F04120137
:10073300D0120D197523007524007525007B007AEE
:100743000079797D04E4FF1215ED7F007E03121515
:10075300FB308344308141E4F5187F64FE1213EAD1
:10076300120F51120FC67B007A00791812098FE518
:10077300186006C291C2938004D291D29330830F42
:1007830030810C1215C77F327E001213EA80EE7F90
:10079300647E001213EA80477B017A007920120FEE
:1007A3008C751E00751F0075201A7B007A0079195D
:1007B3001200037B017A007920AD191212EF751E26
:1007C30001751F007520207B017A007910120AEA57
:1007D3007B017A007910AD1A1210A2B291B2931272
:0807E30015C712154F0207545F
:10098F008B1B8A1C891DE53F7003020A40900034BF
:10099F00E064AB6003020A4078797C00FD7B017A4A
:1009AF00007920FE7F101201D078397C007D007B0A
:1009BF00017A0079307E007F041201D078347C00F8
:1009CF007D007B017A0079307E007F041201D07F99
:1009DF00211213FE7B017A007930752300752404F0
:1009EF007F007EFA120E457B017A00792075230075
:1009FF007524107F047EFA120E45752300752400AE
:100A0F007525007B007A0079797D04E4FF1215EDDE
:100A1F007B007A0079397F06120F147B007A0079F8
:100A2F0034E4FF120F14AB1BAA1CA91D7401120092
:020A3F00B422DF
:100FC6007F011212B37F01121295D2E8E4F53FE5D4
:100FD6003F7018308315308112B291A291B392936B
:100FE6001215C77FFAFE1213EA80E4C2E8E4FF1284
:090FF60012B37D10E4FF0215D8CE
:100F51007E007F047D007B007A0079391200E87EF3
:100F6100007F047D007B007A0079341200E87B0069
:100F71007A0079397F06120F147B007A007934E404
:0B0F8100FF120F147D15E4FF0215D8CD
:1010A2008D1B7D101215DFAF1B1212D1E51B6403DD
:1010B2006003D38001C392907F011212B3E4FF1246
:1010C2001295D2E8753E01E53E70FCC2E8FF1212AD
:0410D200B3D29022E3
:1012EF008B1B8A1C891DED75F008A42461F9E4FAA3
:0D12FF00FBA81DAC1CAD1BFE7F080201D03A
:100003008B1B8A1C891DE41200B4AB1EAA1FA920F6
:100013001200B420830330812D7F0A7E001213EA7D
:1000230030810AAB1BAA1CA91D74028016308316EB
:10003300AB1BAA1CA91D74011200B4AB1EAA1FA9F5
:070043002074031200B42237
:060F8C008B1B8A1C891D6D
:100F92007F01121539E4FEEEC394107480948050E0
:100FA2001E12145FEF60FA121629AB1B051DE51D18
:100FB200AA1C7002051C14F9EF1200B40E80D8E4CA
:040FC200FF021539DC
:100ED600E4FFEFFD3395E0FCC3ED9408EC648094E9
:100EE60080500AEF2470F59EF59F0F80E575930BF1
:100EF600E4F594759F03F59F759E11759E13F58015
:0D0F0600F59075CF0BF5AED290C291C2935D
:010F130022BB
:100D19007F021211337F011210D67F051213927DC3
:100D29000F7C007F0F1212737F6E1213D57B007A2E
:100D39000079397F06120F147D10E4FF1215D87D52
:100D490001E4FF120DEB7B007A007934E4FF120F06
:100D5900147D017F04120D837D017F05120D837DB2
:100D6900017F06120D837F011212037F0412147191
:0A0D79007F051214717F0602147149
:10110500E4FF12152E0F1215017F031214CF74FF81
:10111500FFFE12144D7F0112152EE5AD548064803B
:0E11250060F8E5AD5480648070F875B828223B
:0F14A300121518EF640270F8D2EAD2B9D2AF2254
:0A154F0075A40475A407E4F5A422B6
:03006B0002004A46
:01004A003283
:03005B0002005A46
:01005A003273
:03004B00020CA400
:100CA400C0E0C0F0C083C082C085C084C0867586A1
:100CB40000C0D075D000C000C001C002C003C00491
:060CC400C005C006C007D8
:100CCA0012004EEF24F0600A24D0600E2420701E19
:100CDA0080031215B3753E00801412156DEF700B68
:0E0CEA007B017A00792012161D80EF753F0104
:100CF800D007D006D005D004D003D002D001D00050
:100D0800D0D0D086D084D085D082D083D0F0D0E027
:010D180032A8
:0A1559008FE7E5E630E1FBAFE72283
:021295008F1CAC
:10129700E4FF1213458F1DE51C64017005431D0112
:0C12A7008003531DFEAD1DE4FF02130C7C
:0212B3008F1C8E
:1012B500E4FF1213458F1DE51C64017005431D02F3
:0C12C5008003531DFDAD1DE4FF02130C5F
:0210D6008F1B6E
:1010D800E4FF1213458F1CE51B14600C14601124E7
:1010E800027013531CF7800E431C08531CFB800628
:0D10F800431C08431C04AD1CE4FF02130C54
:040D83008F1B8D1C19
:100D8700E4FF1213458F1DE51B24FB601E1460331F
:100D970024027049E51C60047F0080027F01EF5444
:100DA70001C454F0FFE51D54EF802FE51C60047F5C
:100DB7000080027F01EF5401C43354E0FFE51D5466
:100DC700DF8017E51C60047F0080027F01EF54017C
:100DD700C4333354C0FFE51D54BF4FF51DAD1DE4AB
:040DE700FF02130CE8
:0B004E007D707F0712130CEF5470FF51
:010059002284
:101379007D707F0712130CEF5470F55D7F07121310
:0813890045EF540F425DAF5D1A
:011391002239
:10147100A8077401088002C333D8FCFD7F0702135B
:011481000C5E
:0815D0001215BDEF5470FF225B
:040DEB008F1B8D1CB1
:100DEF007F021213458F1D7F011213458F1EE51BC6
:100DFF0024FA500624076021802EAF1BA807740128
:100E0F00088002C333D8FCFF421DE51C6005EF428A
:100E1F001E8015EFF4521E800F751D3FE51C6005F7
:100E2F00751E3F8003E4F51EAD1D7F0212130CAD3E
:060E3F001E7F0102130CEE
:020E93008F527C
:100E95007F021213458F537F011213458F54E5527C
:100EA50024FA5006240760168019AF52A80774016A
:100EB500088002C333D8FCF4525352548005E4F53C
:100EC50053F554AD537F0212130CAD547F01021339
:010ED5000C10
:100F14008F1E8B1F8A208921E51E14600A24FB5032
:100F2400196004240670251215638F26E51E242AF1
:100F3400FFAB1FAA20A921020A41E51E240AFFAB28
:0D0F44001FAA20A92112006EFD12130C221D
:10106D008F4A8B4B8A4C894DE54A14600824FB60EE
:10107D00042406700BAB4BAA4CA94DAF4A02037D5D
:10108D00E54A240AFF121345AB4BAA4CA94DEF12AA
:05109D0000B47F0122F8
:02127300AB07C7
:10127500EC540FC454F0FFE51B540F4FF51BEB5412
:101285000FFFE51B54F04FF51BAD1B7F0402130C3C
:10139200E4F51BEF24FE5403FFE51B54FC4FF51B41
:0713A200AD1B7F0302130CD9
:0A1563007F03121345EF2402FF225C
:0715D800EF2411FF02130CC8
:020B88008F409C
:100B8A007F021213458F417F011213458F42E540C0
:100B9A0014601A14602714603414604314604E24DD
:100BAA0005705EE5415401F543E542804EAF41EFE1
:100BBA00C3135401F543AF42EFC313803EAF41EF75
:100BCA0013135401F543AF42EF1313802EAF41EFD5
:100BDA001313135401F543AF42EF131313801CAFE1
:100BEA0041EFC45401F543AF42EFC4800EAF41EF69
:100BFA00C4135401F543AF42EFC4135401F54480C2
:0D0C0A0005E4F543F544E54425E02543FFEE
:010C170022BA
:05160E007F08021345F6
:1013A9007F08121345EF54F0FFE4C4F854F0C8EF76
:0613B900C4540F48FF229E
:100FFF00EF14601414601514601614601714601841
:10100F002405701D7F1180127F12800E7F13800ABE
:10101F007F1480067F1580027F161213458F5E8026
:06102F0003E4F55EAF5E74
:011035002298
:1013D500E4F51BEF547FFFE51B54804FF51BAD1B58
:0513E5007F0502130C5E
:0212D1008F1C70
:1012D3007F061213458F1DE51C540325E0FFE51D12
:0C12E30054F94FF51DAD1D7F0602130CE1
:021133008F1B10
:101135007F061213458F1CE51B600924FE700D43C5
:101145001C208003531CDF531CF78006531CDF4310
:091155001C08AD1C7F0602130CFE
:0A156D007F17121345EF5401FF220F
:0C005E007F17121345EFC3135401FF225B
:0B150D007F17121345EFC45401FF22AA
:0C14DD007F17121345EFC4135401FF22C7
:1013BF007F17121345EF5430FFE4C4F854F0C8EF11
:0613CF00C4540F48FF2288
:0A1577007F17121345EF5403FF2203
:051613007F17021345E2
:0A1581007F08121345EF540FFF22FC
:0A158B007F09121345EF5401FF22FF
:01006A002273
:0C14E900EF543FF55FAD5F7F1C02130C59
:0211B2008F5557
:1011B4007F1D1213458F56E55560047F0180027F21
:1011C40000EF540125E025E0FFE55654FB4FF556AA
:0711D400AD567F1D02130C54
:021203008F1B3F
:101205007F1D1213458F1CE51B60047F0180027F43
:1012150000EF540125E0FFE51C54FD4FF51CAD1C06
:051225007F1D02130C07
:02122A008F57DC
:10122C007F1D1213458F58E55760047F0180027FA4
:10123C0000EF5401FFE55854FE4FF558AD587F1D93
:03124C0002130C7E
:0715DF008D267FA0020A41E6
:0715E6008D267FB0020A41CF
:0A159500EF44A8FF854926020A4131
:051618007F6002134594
:05161D007F0802037DBF
:0E14C1001215BDEF540EFFE4C313EF13FF220C
:0A159F00C2E97FE3121559D2E922D8
:10143A001216137E00EF54407806CEC313CE13D88B
:03144A00F9FF2285
:0A15A900C2E97FE2121559D2E922CF
:0A15B300C2E97FE1121559D2E922C6
:0915BD00C2E97FFF121559D2E9C1
:0115C6002202
:0211DB008F592A
:1011DD007F061213458F5AE55960047F0180027F07
:1011ED0000EF5401C454F0FFE55A54EF4FF55AADDA
:0611FD005A7F0602130CEC
:02115E008F5BA5
:101160007F061213458F5CE55B60047F0180027F80
:1011700000EF5401C43333335480FFE55C547F4F98
:09118000F55CAD5C7F0602130C66
:10134500C2E98FE7E5E6540260FAAFE7E4F5E7E5C1
:09135500E6540260FAAFE7D2E9A8
:01135E00226C
:10130C00C2E9EF2420F5E7E5E6540260FAAFE78D79
:0C131C00E7E5E6540260FA85E760D2E9DC
:0113280022A2
:08037D008F088B098A0A890B25
:1003850075100185090EE50814600C24FB6008242E
:10039500FE60142408702E1215638F0C8F0DC2E9B0
:1003A500E508240AFF80191214C18F08C3EF9407CA
:1003B500E4940050101216188F0C8F0DC2E97F615E
:1003C5001215598005E4F50DF50CAF0E7E00EF70A2
:0103D50028FF
:1003D600850B11E4F5E7E5107008A811A60F0511C5
:1003E6008003E4F510E5E6540260FA85E70FD50CC4
:0503F600E2A811A60FB2
:0903FB000204AFEF64014E703AF8
:10040400850A11850B12E4F5E7E510701385128255
:10041400851183E50FF00512E512700705118003BD
:10042400E4F510E5E6540260FA85E70FD50CD785AC
:080434001282851183E50FF02F
:08043C008071E50E64FE7029D9
:10044400850B11E4F5E7E5107009A811E50FF20535
:10045400118003E4F510E5E6540260FA85E70FD550
:070464000CE1A811E50FF205
:02046B008042CD
:10046D00850911850A12850B13E4F5E7E51070185F
:10047D00AB11AA12A913E50F1200B474012513F5DF
:10048D0013E43512F5128003E4F510E5E65402602D
:10049D00FA85E70FD50CD2AB11AA12A913E50F12ED
:0204AD0000B499
:0804AF00D2E9E508FEE50DFFAE
:0104B7002222
:060A41008B238A248925A5
:090A4700AD23C2E98FE7ED70193F
:100A5000852528A828E6FE0528E5E6540260FA85E3
:070A6000E7278EE7D526EC25
:070A67008075ED64017026AB
:100A6E00852428852529852982852883E0FE052968
:100A7E00E52970020528E5E6540260FA85E7278E1F
:040A8E00E7D526E2A0
:070A9200804AED64FE7019BB
:100A9900852528A828E2FE0528E5E6540260FA859E
:070AA900E7278EE7D526ECDC
:020AB000802C98
:100AB20085232885242985252AAB28AA29A92A1233
:100AC200006EFE7401252AF52AE43529F529E5E6AA
:0C0AD200540260FA85E7278EE7D526DD88
:0B0ADE00E5E6540260FA85E727D2E944
:010AE90022EA
:10149300EF6009E5A3448054F7F5A32253A3772211
:10148200EF5401C4333354C0FFE5A354B74FF5A35F
:011492002237
:0F14B200EF5403C454F0FFE5A354C74FF5A32232
:0A151800E5AD30E3037F02227F01FE
:0115220022A6
:0C14F500EF5407FFE5A354F04FF5A322CD
:06160200E5AD5480FF225B
:06160800E5AD5440FF2295
:0C150100EF5407FFE5AD54F84FF5AD22A4
:0B135F007FFA7E0012136A7FFA7E0006
:0F136A000000000000EF1F70011E144E70F222F1
:1013EA00AD07AC0612135F12135FED1D70011C14DA
:0413FA004C70F12220
:1005D800637C777BF26B6FC53001672BFED7AB76F8
:1005E800CA82C97DFA5947F0ADD4A2AF9CA472C0A3
:1005F800B7FD9326363FF7CC34A5E5F171D8311510
:1006080004C723C31896059A071280E2EB27B27530
:1006180009832C1A1B6E5AA0523BD6B329E32F84A8
:1006280053D100ED20FCB15B6ACBBE394A4C58CFA0
:10063800D0EFAAFB434D338545F9027F503C9FA874
:1006480051A3408F929D38F5BCB6DA2110FFF3D242
:10065800CD0C13EC5F974417C4A77E3D645D1973F6
:1006680060814FDC222A908846EEB814DE5E0BDBF0
:10067800E0323A0A4906245CC2D3AC629195E47927
:10068800E7C8376D8DD54EA96C56F4EA657AAE0881
:10069800BA78252E1CA6B4C6E8DD741F4BBD8B8A1C
:1006A800703EB5664803F60E613557B986C11D9E82
:1006B800E1F8981169D98E949B1E87E9CE5528DFF9
:1006C8008CA1890DBFE6426841992D0FB054BB1625
:0B06D8008D01020408102040801B363A
:0715ED008F1E8D1F02103656
:060AEA008B1B8A1C891D14
:100AF000E4F531C3E531941074809480501BAB1E33
:100B0000AA1FA920853182758300120087FF7421F6
:100B10002531F8A607053180DA75DE02E4F531C328
:100B2000E53194097480948050137F211204B87FBA
:100B3000211201F6AF311208D9053180E27F21126E
:100B400004B87F091208D97F211207EBE4F531C3FD
:100B5000E531941074809480502D74352531F582E0
:100B6000E43400F583E0FF74002531F8EFF27421DE
:100B70002531F8E6AB1BAA1CA91D853182758300BF
:070B80001200C6053180C818
:010B8700224B
:061036008B268A278928A1
:10103C00E4FFEFC39410748094805024AB26AA274D
:10104C00A9288F82758300120087FE74002FF8EE9A
:10105C00F274352FF582E43400F583EEF00F80D274
:01106C002261
:1007EB00A807C000E6FE7800E26ED000F6EF04F832
:1007FB00C000E6FE7801E26ED000F6EF2402F8C0EE
:10080B0000E6FE7802E26ED000F6EF2403F8C0009B
:10081B00E6FE7803E26ED000F6EF2404F8C000E6A3
:10082B00FE7804E26ED000F6EF2405F8C000E6FE79
:10083B007805E26ED000F6EF2406F8C000E6FE78ED
:10084B0006E26ED000F6EF2407F8C000E6FE78074C
:10085B00E26ED000F6EF2408F8C000E6FE7808E25E
:10086B006ED000F6EF2409F8C000E6FE7809E26EC0
:10087B00D000F6EF240AF8C000E6FE780AE26ED04C
:10088B0000F6EF240BF8C000E6FE780BE26ED0000A
:10089B00F6EF240CF8C000E6FE780CE26ED000F602
:1008AB00EF240DF8C000E6FE780DE26ED000F6EFF7
:1008BB00240EF8C000E6FE780EE26ED000F6EF24B0
:0E08CB000FF8C000E6FF780FE26FD000F622B3
:1008D900780DE29005D893FE7800E2FDEE6DFEEF0B
:1008E9009006D9936EF2780EE29005D893FF7801BD
:1008F900E2FEEF6EF2780FE293FF7802E2FEEF6E0E
:10090900F2780CE293FF7803E2FEEF6EF208E2FF61
:100919007800E26F7804F208E2FF7801E26F780567
:10092900F208E2FF7802E26F7806F208E2FF780344
:10093900E26F7807F208E2FF7804E26F7808F208BC
:10094900E2FF7805E26F7809F208E2FF7806E26FC4
:10095900780AF208E2FF7807E26F780BF208E2FF03
:100969007808E26F780CF208E2FF7809E26F780DF7
:10097900F208E2FF780AE26F780EF208E2FF780BDC
:06098900E26F780FF2227C
:1004B800A807E6FE7800E26E9005D893A807F6E84C
:1004C8002404F8E6FE7804E26E93FEEF2404F8A60E
:1004D80006EF2408F8E6FE7808E26E93FEEF24089B
:1004E800F8A606EF240CF8E6FE780CE26E93FEEF11
:1004F800240CF8A606EF04F8E6FE7801E26E93F500
:1005080032EF2405F8E6FE7805E26E93FEEF04F874
:10051800A606EF2409F8E6FE7809E26E93FEEF24BA
:1005280005F8A606EF240DF8E6FE780DE26E93FEB8
:10053800EF2409F8A606EF240DF8A632EF2402F8F6
:10054800E6FE7802E26E93F532EF2406F8E6FE78CE
:1005580006E26E93F533EF240AF8E6FE780AE26EB7
:1005680093FEEF2402F8A606EF240EF8E6FE780EB6
:10057800E26E93FEEF2406F8A606EF240AF8A632E8
:10058800EF240EF8A633EF240FF8E6FE780FE26E9C
:1005980093F532EF240BF8E6FE780BE26E93FEEF4C
:1005A800240FF8A606EF2407F8E6FE7807E26E9314
:1005B800FEEF240BF8A606EF2403F8E6FE7803E224
:0F05C8006E93FEEF2407F8A606EF2403F8A63281
:0105D7002201
:1001F600EF2402F8E6FEEF2403F8E66EFEEF04F8BD
:10020600E6FD6EFEA807E6FC6EFEAB04EC6DF5DDC2
:10021600ADDFED6EFDE66DF6E82402F8E6FDEF04CF
:10022600F8E6FC6DF5DDADDFED6E6CF6EF2403F858
:10023600E6FDEF2402F8E6FC6DF5DDADDFED6E6C54
:10024600F6EF2403F8E6FC6BF5DDADDFED6E6CF63C
:10025600EF2406F8E6FEEF2407F8E66EFEEF240527
:10026600F8E6FD6EFEEF2404F8E6FC6EFEAB04EC49
:100276006DF5DDADDFED6E6CF6EF2406F8E6FDEF0D
:100286002405F8E6FC6DF5DDADDFED6E6CF6EF24CA
:1002960007F8E6FDEF2406F8E6FC6DF5DDADDFEDCB
:1002A6006E6CF6EF2407F8E6FC6BF5DDADDFED6E60
:1002B6006CF6EF240AF8E6FEEF240BF8E66EFEEF86
:1002C6002409F8E6FD6EFEEF2408F8E6FC6EFEABA8
:1002D60004EC6DF5DDADDFED6E6CF6EF240AF8E6A5
:1002E600FDEF2409F8E6FC6DF5DDADDFED6E6CF68D
:1002F600EF240BF8E6FDEF240AF8E6FC6DF5DDAD1C
:10030600DFED6E6CF6EF240BF8E6FC6BF5DDADDF8A
:10031600ED6E6CF6EF240EF8E6FEEF240FF8E66EAF
:10032600FEEF240DF8E6FD6EFEEF240CF8E66EFEF9
:10033600E6FB6DF5DDADDFED6EFDE66DF6EF240E49
:10034600F8E6FDEF240DF8E6FC6DF5DDADDFED6EAC
:100356006CF6EF240FF8E6FDEF240EF8E6FC6DF5DB
:10036600DDADDFED6E6CF6EF240FF8E6FC6BF5DD28
:06037600ADDFED6E6CF638
:01037C00225E
:1013FE00A2AF92D5C2AFD2FD8FFA20FCFDC2FDA2E4
:04140E00D592AF22A2
:10132900A2AF92D5C2AFD2FD8E4E8F4F8F828E83E0
:0B133900EDF020FCFDC2FDA2D592AF3C
:011344002286
:060E45008B208A218922A6
:100E4B00A2AF92D5C2AFD2FD8E508F51E52415249F
:100E5B00AE23700215234E6028AB200522E522AA93
:100E6B00217002052114F912006EFF0551E551ACFA
:100E7B00507002055014F5828C83EFF030FCCD805E
:070E8B00FBC2FDA2D592AFEE
:010E9200223D
:0615F4008F828E83E0FFF0
:0115FA0022CE
:10124F00E5211521AC20700215204C60168F828E7F
:10125F0083E01200B40FBF00010E740129F9E43AC4
:03126F00FA80DD25
:011272002259
:0715FB00EFF5AFEEF5AF22A2
:0815C700AFAFAEAF8FAF8EAFE6
:0115CF0022F9
:0416220043B310229C
:0B152300EF600443B3082253B3F7222B
:0E14CF00EF25E05406FFE5B354F94FF5B322C4
:0B152E00EF600443B3012253B3FE2220
:10144D00E5B35406FD53B3F9EFF5B4EEF5B5ED4242
:01145D00B3DB
:01145E00226B
:10141200E5B35406FD53B3F9AFB5EFFEACB4ECFF40
:03142200ED42B3E5
:0114250022A4
:10142600E5B35408FD53B3F7AFABEFFEACB6ECFF34
:03143600ED42B3D1
:011439002290
:03162600AFAC2244
:0B153900EF600443D6802253D67F22CF
:0B154400EF600443D6402253D6BF22C4
:03162900AFD72216
:10145F00E5D65420D39400E4940040037F01227F0B
:02146F00002259
:03000000020C18D7
:0C0C1800787FE4F6D8FD758188020C5F3F
:10006E00BB010689828A83E0225002E722BBFE0290
:09007E00E32289828A83E49322C3
:10008700BB010CE58229F582E5833AF583E022502E
:1000970006E92582F8E622BBFE06E92582F8E22278
:0D00A700E58229F582E5833AF583E4932292
:1000B400BB010689828A83F0225002F722BBFE012B
:0200C400F32225
:1000C600F8BB010DE58229F582E5833AF583E8F070
:1000D600225006E92582C8F622BBFE05E92582C81C
:0200E600F22204
:1000E800EF4E6012EF60010EEDBB010B89828A832F
:1000F800F0A3DFFCDEFA2289F05007F709DFFCA93C
:0C010800F022BBFEFCF309DFFCA9F02292
:10011400E709F608DFFA8046E709F208DFFA803ECD
:1001240088828C83E709F0A3DFFA8032E309F608BA
:10013400DFFA806EE309F208DFFA806688828C8336
:10014400E309F0A3DFFA805A89828A83E0A3F608E0
:10015400DFFA804E89828A83E0A3F208DFFA8042C4
:1001640080D280FA80C680D4805580F280298010A5
:1001740080A680EA809A80A880DA80E280CA8029FA
:1001840088848C8589828A83E493A30586F0A305F9
:1001940086DFF5DEF3800B89828A83E493A3F60875
:1001A400DFF9ECFAA9F0EDFB2288848C8589828A38
:1001B40083E0A30586F0A30586DFF6DEF480E389F9
:1001C400828A83E493A3F208DFF980D688F0EF6093
:1001D400010E4E60CD88F0ED2402B4040050C3F546
:1001E40082EB2402B4040050B923234582239001F6
:0201F400647332
:100C24000206E3E493A3F8E493A34003F68001F2FD
:100C340008DFF48029E493A3F85407240CC8C333D1
:100C4400C4540F4420C8834004F456800146F6DFA0
:100C5400E4800B0102040810204080901189E47E96
:100C6400019360BCA3FF543F30E509541FFEE49395
:100C7400A360010ECF54C025E060A840B8E493A35C
:100C8400FAE493A3F8E493A3C8C582C8CAC583CA87
:100C9400F0A3C8C582C8CAC583CADFE9DEE780BE3F
:0111B100003D
:00000001FF
