:1011A200053500000000CD053000000000AB1860DE
:1011B2005E6CA774FDE3DFBCF7DA4A4F652D6EF073
:0811C200FFA6E65A8482664F85
:10089800120E5B1210C61214CF120D55120C257FC2
:1008A800007E0312162E3084032086587F647E0053
:1008B800121403208427208624E4F514120F16123C
:1008C80010637B007A007914120F51E5146004D28A
:1008D800838002C2831216041214538027208424B2
:1008E800C283E4F515C3E51594057480948050120D
:1008F8007D037F011210F47F057E00121403051595
:1009080080E3D2837F0A120CF5EF6030208626C27E
:1009180083E4F515C3E51594057480948050127D21
:10092800027F021210F47F057E0012140305158061
:10093800E3D28380077D02E4FF1210F41215F3124C
:05094800157B0208AE62
:1010F4008D167B017A007920AD07121308751A0149
:10110400751B00751C207B017A0079101209F67B8F
:0D111400017A007910751B01AD16020E9BCB
:1014530030840320860C1215F37F327E00121403AE
:0314630080EE22F6
:100D55007B007A0079197522007523047F007EFADD
:100D65001212687A0079787522007523107F047E47
:100D7500FA12126878357C007D007A0079197E00B8
:100D85007F041201E178307C007D007B007A0079D8
:100D9500197E007F041201E1752200752300752478
:0E0DA500007B007A0079787D04E4FF021620BE
:100F51008B168A178918E53B602F900034E064AB4B
:100F61007027121121120D557B007A0079357F0609
:100F7100120ED97B007A007930E4FF120ED9AB163C
:0A0F8100AA17A91874011200B42287
:101121007F201214177B017A007930751E00751F1C
:10113100047F007EFA120E0D7B017A007920751E64
:0B11410000751F107F047EFA020E0DE7
:101063007F011212CC7F011212AED2E8E4F53BE508
:101073003B701320841020860DB2831215F37F6416
:10108300FE12140380E9C2E8E4FF1212CC7D10E4DF
:04109300FF02160B37
:020CF5008F1658
:100CF700E4F51AF519F518F5177F011212CC7F01E3
:100D07001212AED2E8E4F53BE53B7031AF16FCFDBD
:100D1700FEAB1AAA19A918A817C31200E8501E7F1C
:100D2700017E00121403E51A2401F51AE43519F5BA
:100D370019E43518F518E43517F51780CBC2E8E440
:0D0D4700FF1212CC7D10E4FF12160BAF3B23
:010D5400227C
:100F16007E007F047D007B007A0079351200F97E21
:100F2600007F047D007B007A0079301200F97B0097
:100F36007A0079357F06120ED97B007A007930E483
:0B0F4600FF120ED97D15E4FF02160B10
:071604007D10E4FF02160B4C
:100E9B008D1A7D10121612AF1A1212EAE51A64039C
:100EAB006003D38001C392947F011212CCE4FF1232
:100EBB0012AEAF1B151BEF600DD2E8753A01E53A88
:0E0ECB0070FCC2E880ECE4FF1212CCD294223C
:101308008B178A188919ED75F008A42460F9E4FA96
:0D131800FBA819AC18AD17FE7F080201E11B
:060FF9008B4E8A4F895067
:100FFF007E087F01121565AF061EEF601D12148B60
:10100F00EF60FA121657AB4E0550E550AA4F70021B
:0F101F00054F14F9EF1200B480DDE4FF021565F0
:100E5B00E4FFEFFD3395E0FCC3ED9408EC64809464
:100E6B0080500AEF2470F59EF59F0F80E575935027
:100E7B00E4F594759E03759E02759E56759E54758A
:0F0E8B009F047580FFF590F5CFD294D282D28369
:010E9A002235
:100C25007F0212114C7F011210977F051213ABE45E
:100C3500FDFCFF12128C7F6E1213EE7B007A007999
:100C4500357F06120ED97D10E4FF12160B7D01E4E7
:100C5500FF120DB37B007A007930E4FF120ED97DC7
:100C6500017F04120C8D7D017F05120C8D7D017FA6
:100C750006120C8D7F0112121C7F0412149D7F0534
:080C850012149D7F0602149D6C
:1010C600E4FF12155A0F12152D7F031214FB7FFF32
:1010D6007E7F1214797F0112155AE5AD5480648023
:0E10E60060F8E5AD5480648070F875B828227B
:0F14CF00121544EF640270F8D2EAD2B9D2AF22FC
:0A157B0075A40475A407E4F5A4228A
:03006B0002005A36
:01005A003273
:03005B0002006A36
:01006A003263
:03004B00020BB0F5
:100BB000C0E0C0F0C083C082C085C084C086758696
:100BC00000C0D075D000C000C001C002C003C00486
:060BD000C005C006C007CD
:100BD60012004EEF24F0600A24D0600E2420701E0E
:100BE60080031215DF753A008014121599EF700B09
:0E0BF6007B017A00792012164B80EF753B01CF
:100C0400D007D006D005D004D003D002D001D00044
:100C1400D0D0D086D084D085D082D083D0F0D0E01C
:010C2400329D
:0A1585008FE7E5E630E1FBAFE72257
:0212AE008F1C93
:1012B000E4FF12135E8F1DE51C64017005431D01E0
:0C12C0008003531DFEAD1DE4FF0213254A
:0212CC008F1C75
:1012CE00E4FF12135E8F1DE51C64017005431D02C1
:0C12DE008003531DFDAD1DE4FF0213252D
:021097008F16B2
:10109900E4FF12135E8F17E51614600C1460112417
:1010A9000270135317F7800E4317085317FB800676
:0D10B900431708431704AD17E4FF02132589
:040C8D008F168D171A
:100C9100E4FF12135E8F18E51624FB601E14603307
:100CA10024027049E51760047F0080027F01EF5440
:100CB10001C454F0FFE51854EF802FE51760047F5D
:100CC1000080027F01EF5401C43354E0FFE5185462
:100CD100DF8017E51760047F0080027F01EF540178
:100CE100C4333354C0FFE51854BF4FF518AD18E4B1
:040CF100FF021325C6
:0B004E007D707F07121325EF5470FF38
:010059002284
:101392007D707F07121325EF5470F55C7F071213DF
:0813A2005EEF540F425CAF5CEA
:0113AA002220
:10149D00A8077401088002C333D8FCFD7F0702132F
:0114AD002519
:0815FC001215E9EF5470FF2203
:040DB3008F168D17F3
:100DB7007F0212135E8F187F0112135E8F19E516DB
:100DC70024FA500624076021802EAF16A807740165
:100DD700088002C333D8FCFF4218E5176005EF42CD
:100DE700198015EFF45219800F75183FE517600544
:100DF70075193F8003E4F519AD187F02121325AD6D
:060E0700197F0102132512
:020003008F511B
:100005007F0212135E8F527F0112135E8F53E551EB
:1000150024FA5006240760168019AF51A807740109
:10002500088002C333D8FCF4525252538005E4F5DC
:1000350052F553AD527F02121325AD537F010213C2
:010045002595
:100ED9008F198B1A8A1B891CE51914600A24FB5087
:100EE9001960042406702512158F8F21E519242A0B
:100EF900FFAB1AAA1BA91C02094DE519240AFFAB6D
:0D0F09001AAA1BA91C12006EFD121325224E
:10102E008F468B478A488949E54614600824FB6041
:10103E00042406700BAB47AA48A949AF4602038E9B
:10104E00E546240AFF12135EAB47AA48A949EF12E0
:05105E0000B47F012237
:02128C00AB07AE
:10128E00EC540FC454F0FFE516540F4FF516EB5403
:10129E000FFFE51654F04FF516AD167F0402132519
:1013AB00E4F516EF24FE5403FFE51654FC4FF51637
:0713BB00AD167F03021325AC
:0A158F007F0312135EEF2402FF2217
:07160B00EF2411FF0213257B
:020A94008F3C95
:100A96007F0212135E8F3D7F0112135E8F3EE53C8F
:100AA60014601A14602714603414604314604E24D2
:100AB60005705EE53D5401F53FE53E804EAF3DEFE6
:100AC600C3135401F53FAF3EEFC313803EAF3DEF76
:100AD60013135401F53FAF3EEF1313802EAF3DEFD6
:100AE6001313135401F53FAF3EEF131313801CAFDE
:100AF6003DEFC45401F53FAF3EEFC4800EAF3DEF6E
:100B0600C4135401F53FAF3EEFC4135401F54080C2
:0D0B160005E4F53FF540E54025E0253FFFF3
:010B230022AF
:050046007F0802135EBB
:1013C2007F0812135EEF54F0FFE4C4F854F0C8EF44
:0613D200C4540F48FF2285
:100F8B00EF146014146015146016146017146018B5
:100F9B002405701D7F1180127F12800E7F13800A33
:100FAB007F1480067F1580027F1612135E8F5D8083
:060FBB0003E4F55DAF5DEB
:010FC100220D
:1013EE00E4F516EF547FFFE51654804FF516AD1653
:0513FE007F050213252C
:0212EA008F1C57
:1012EC007F0612135E8F1DE51C540325E0FFE51DE0
:0C12FC0054F94FF51DAD1D7F06021325AF
:02114C008F16FC
:10114E007F0612135E8F17E516600924FE700D439D
:10115E00172080035317DF5317F780065317DF430B
:09116E001708AD177F06021325D6
:0A1599007F1712135EEF5401FF22CA
:0C005E007F1712135EEFC3135401FF2242
:0B1539007F1712135EEFC45401FF2265
:0C1509007F1712135EEFC4135401FF2281
:1013D8007F1712135EEF5430FFE4C4F854F0C8EFDF
:0613E800C4540F48FF226F
:0A15A3007F1712135EEF5403FF22BE
:051641007F1702135E9B
:0A15AD007F0812135EEF540FFF22B7
:0A15B7007F0912135EEF5401FF22BA
:01165A00226D
:0C151500EF543FF55EAD5E7F1C02132515
:0211CB008F543F
:1011CD007F1D12135E8F55E55460047F0180027FF1
:1011DD0000EF540125E025E0FFE55554FB4FF55593
:0711ED00AD557F1D02132523
:02121C008F162B
:10121E007F1D12135E8F17E51660047F0180027F1B
:10122E0000EF540125E0FFE51754FD4FF517AD17FC
:05123E007F1D021325D5
:021243008F56C4
:101245007F1D12135E8F57E55660047F0180027F74
:1012550000EF5401FFE55754FE4FF557AD577F1D7D
:031265000213254C
:071612008D217FA002094DAC
:071619008D217FB002094D95
:0A15C100EF44A8FF85452102094D03
:051646007F6002135E4D
:05164B007F0802038E80
:0E14ED001215E9EF540EFFE4C313EF13FF22B4
:0A15CB00C2E97FE3121585D2E92280
:101466001216417E00EF54407806CEC313CE13D831
:03147600F9FF2259
:0A15D500C2E97FE2121585D2E92277
:0A15DF00C2E97FE1121585D2E9226E
:0915E900C2E97FFF121585D2E969
:0115F20022D6
:0211F4008F5812
:1011F6007F0612135E8F59E55860047F0180027FD7
:1012060000EF5401C454F0FFE55954EF4FF559ADC2
:06121600597F06021325BA
:021177008F5A8D
:101179007F0612135E8F5BE55A60047F0180027F50
:1011890000EF5401C43333335480FFE55B547F4F80
:09119900F55BAD5B7F0602132536
:10135E00C2E98FE7E5E6540260FAAFE7E4F5E7E5A8
:09136E00E6540260FAAFE7D2E98F
:011377002253
:10132500C2E9EF2420F5E7E5E6540260FAAFE78D60
:0C133500E7E5E6540260FA85E75FD2E9C4
:011341002289
:08038E008F088B098A0A890B14
:1003960075100185090EE50814600C24FB6008241D
:1003A600FE60142408702E12158F8F0C8F0DC2E973
:1003B600E508240AFF80191214ED8F08C3EF94078D
:1003C600E4940050101216468F0C8F0DC2E97F611F
:1003D6001215858005E4F50DF50CAF0E7E00EF7065
:0103E60028EE
:1003E700850B11E4F5E7E5107008A811A60F0511B4
:1003F7008003E4F510E5E6540260FA85E70FD50CB3
:05040700E2A811A60FA0
:09040C000204C0EF64014E703AD5
:10041500850A11850B12E4F5E7E510701385128244
:10042500851183E50FF00512E512700705118003AC
:10043500E4F510E5E6540260FA85E70FD50CD7859B
:080445001282851183E50FF01E
:08044D008071E50E64FE7029C8
:10045500850B11E4F5E7E5107009A811E50FF20524
:10046500118003E4F510E5E6540260FA85E70FD53F
:070475000CE1A811E50FF2F4
:02047C008042BC
:10047E00850911850A12850B13E4F5E7E51070184E
:10048E00AB11AA12A913E50F1200B474012513F5CE
:10049E0013E43512F5128003E4F510E5E65402601C
:1004AE00FA85E70FD50CD2AB11AA12A913E50F12DC
:0204BE0000B488
:0804C000D2E9E508FEE50DFF9D
:0104C8002211
:06094D008B1E8A1F8920A9
:09095300AD1EC2E98FE7ED701939
:10095C00852023A823E6FE0523E5E6540260FA85EC
:07096C00E7228EE7D521EC24
:070973008075ED64017026A0
:10097A00851F23852024852482852383E0FE052480
:10098A00E52470020523E5E6540260FA85E7228E23
:04099A00E7D521E29A
:07099E00804AED64FE7019B0
:1009A500852023A823E2FE0523E5E6540260FA85A7
:0709B500E7228EE7D521ECDB
:0209BC00802C8D
:1009BE00851E23851F24852025AB23AA24A9251255
:1009CE00006EFE74012525F525E43524F524E5E6B3
:0C09DE00540260FA85E7228EE7D521DD87
:0B09EA00E5E6540260FA85E722D2E93E
:0109F50022DF
:1014BF00EF6009E5A3448054F7F5A32253A37722E5
:1014AE00EF5401C4333354C0FFE5A354B74FF5A333
:0114BE00220B
:0F14DE00EF5403C454F0FFE5A354C74FF5A32206
:0A154400E5AD30E3037F02227F01D2
:01154E00227A
:0C152100EF5407FFE5A354F04FF5A322A0
:06163500E5AD5480FF2228
:06163B00E5AD5440FF2262
:0C152D00EF5407FFE5AD54F84FF5AD2278
:0B1378007FFA7E001213837FFA7E00D4
:0F1383000000000000EF1F70011E144E70F222D8
:10140300AD07AC06121378121378ED1D70011C148E
:041413004C70F12206
:1005E900637C777BF26B6FC53001672BFED7AB76E7
:1005F900CA82C97DFA5947F0ADD4A2AF9CA472C092
:10060900B7FD9326363FF7CC34A5E5F171D83115FE
:1006190004C723C31896059A071280E2EB27B2751F
:1006290009832C1A1B6E5AA0523BD6B329E32F8497
:1006390053D100ED20FCB15B6ACBBE394A4C58CF8F
:10064900D0EFAAFB434D338545F9027F503C9FA863
:1006590051A3408F929D38F5BCB6DA2110FFF3D231
:10066900CD0C13EC5F974417C4A77E3D645D1973E5
:1006790060814FDC222A908846EEB814DE5E0BDBDF
:10068900E0323A0A4906245CC2D3AC629195E47916
:10069900E7C8376D8DD54EA96C56F4EA657AAE0870
:1006A900BA78252E1CA6B4C6E8DD741F4BBD8B8A0B
:1006B900703EB5664803F60E613557B986C11D9E71
:1006C900E1F8981169D98E949B1E87E9CE5528DFE8
:1006D9008CA1890DBFE6426841992D0FB054BB1614
:0B06E9008D01020408102040801B3629
:071620008F1D8D1E020FC299
:0609F6008B178A18891915
:1009FC00E4F52DC3E52D941074809480501BAB1A34
:100A0C00AA1BA91C852D82758300120087FF741DFB
:100A1C00252DF8A607052D80DA75DE02E4F52DC329
:100A2C00E52D94097480948050137F1D1204C97FA6
:100A3C001D120207AF2D1207E2052D80E27F1D1259
:100A4C0004C97F091207E27F1D1206F4E4F52DC3D9
:100A5C00E52D941074809480502D7435252DF582DD
:100A6C00E43400F583E0FF7400252DF8EFF2741DDB
:100A7C00252DF8E6AB17AA18A919852D82758300C8
:070A8C001200C6052D80C811
:010A93002240
:060FC2008B258A26892719
:100FC800E4FFEFC39410748094805024AB25AA26C4
:100FD800A9278F82758300120087FE74002FF8EE10
:100FE800F274352FF582E43400F583EEF00F80D2E9
:010FF80022D6
:1006F400A807C000E6FE7800E26ED000F6EF04F82A
:10070400C000E6FE7801E26ED000F6EF2402F8C0E5
:1007140000E6FE7802E26ED000F6EF2403F8C00093
:10072400E6FE7803E26ED000F6EF2404F8C000E69B
:10073400FE7804E26ED000F6EF2405F8C000E6FE71
:100744007805E26ED000F6EF2406F8C000E6FE78E5
:1007540006E26ED000F6EF2407F8C000E6FE780744
:10076400E26ED000F6EF2408F8C000E6FE7808E256
:100774006ED000F6EF2409F8C000E6FE7809E26EB8
:10078400D000F6EF240AF8C000E6FE780AE26ED044
:1007940000F6EF240BF8C000E6FE780BE26ED00002
:1007A400F6EF240CF8C000E6FE780CE26ED000F6FA
:1007B400EF240DF8C000E6FE780DE26ED000F6EFEF
:1007C400240EF8C000E6FE780EE26ED000F6EF24A8
:0E07D4000FF8C000E6FF780FE26FD000F622AB
:1007E200780DE29005E993FE7800E2FDEE6DFEEFF2
:1007F2009006EA936EF2780EE29005E993FF780193
:10080200E2FEEF6EF2780FE293FF7802E2FEEF6E05
:10081200F2780CE293FF7803E2FEEF6EF208E2FF59
:100822007800E26F7804F208E2FF7801E26F78055F
:10083200F208E2FF7802E26F7806F208E2FF78033C
:10084200E26F7807F208E2FF7804E26F7808F208B4
:10085200E2FF7805E26F7809F208E2FF7806E26FBC
:10086200780AF208E2FF7807E26F780BF208E2FFFB
:100872007808E26F780CF208E2FF7809E26F780DEF
:10088200F208E2FF780AE26F780EF208E2FF780BD4
:06089200E26F780FF22274
:1004C900A807E6FE7800E26E9005E993A807F6E82A
:1004D9002404F8E6FE7804E26E93FEEF2404F8A6FD
:1004E90006EF2408F8E6FE7808E26E93FEEF24088A
:1004F900F8A606EF240CF8E6FE780CE26E93FEEF00
:10050900240CF8A606EF04F8E6FE7801E26E93F5EE
:100519002EEF2405F8E6FE7805E26E93FEEF04F867
:10052900A606EF2409F8E6FE7809E26E93FEEF24A9
:1005390005F8A606EF240DF8E6FE780DE26E93FEA7
:10054900EF2409F8A606EF240DF8A62EEF2402F8E9
:10055900E6FE7802E26E93F52EEF2406F8E6FE78C1
:1005690006E26E93F52FEF240AF8E6FE780AE26EAA
:1005790093FEEF2402F8A606EF240EF8E6FE780EA5
:10058900E26E93FEEF2406F8A606EF240AF8A62EDB
:10059900EF240EF8A62FEF240FF8E6FE780FE26E8F
:1005A90093F52EEF240BF8E6FE780BE26E93FEEF3F
:1005B900240FF8A606EF2407F8E6FE7807E26E9303
:1005C900FEEF240BF8A606EF2403F8E6FE7803E213
:0F05D9006E93FEEF2407F8A606EF2403F8A62E74
:0105E80022F0
:10020700EF2402F8E6FEEF2403F8E66EFEEF04F8AB
:10021700E6FD6EFEA807E6FC6EFEAB04EC6DF5DDB1
:10022700ADDFED6EFDE66DF6E82402F8E6FDEF04BE
:10023700F8E6FC6DF5DDADDFED6E6CF6EF2403F847
:10024700E6FDEF2402F8E6FC6DF5DDADDFED6E6C43
:10025700F6EF2403F8E6FC6BF5DDADDFED6E6CF62B
:10026700EF2406F8E6FEEF2407F8E66EFEEF240516
:10027700F8E6FD6EFEEF2404F8E6FC6EFEAB04EC38
:100287006DF5DDADDFED6E6CF6EF2406F8E6FDEFFC
:100297002405F8E6FC6DF5DDADDFED6E6CF6EF24B9
:1002A70007F8E6FDEF2406F8E6FC6DF5DDADDFEDBA
:1002B7006E6CF6EF2407F8E6FC6BF5DDADDFED6E4F
:1002C7006CF6EF240AF8E6FEEF240BF8E66EFEEF75
:1002D7002409F8E6FD6EFEEF2408F8E6FC6EFEAB97
:1002E70004EC6DF5DDADDFED6E6CF6EF240AF8E694
:1002F700FDEF2409F8E6FC6DF5DDADDFED6E6CF67C
:10030700EF240BF8E6FDEF240AF8E6FC6DF5DDAD0A
:10031700DFED6E6CF6EF240BF8E6FC6BF5DDADDF79
:10032700ED6E6CF6EF240EF8E6FEEF240FF8E66E9E
:10033700FEEF240DF8E6FD6EFEEF240CF8E66EFEE8
:10034700E6FB6DF5DDADDFED6EFDE66DF6EF240E38
:10035700F8E6FDEF240DF8E6FC6DF5DDADDFED6E9B
:100367006CF6EF240FF8E6FDEF240EF8E6FC6DF5CA
:10037700DDADDFED6E6CF6EF240FF8E6FC6BF5DD17
:06038700ADDFED6E6CF627
:01038D00224D
:10141700A2AF92D5C2AFD2FD8FFA20FCFDC2FDA2CA
:04142700D592AF2289
:10134200A2AF92D5C2AFD2FD8E4A8F4B8F828E83CF
:0B135200EDF020FCFDC2FDA2D592AF23
:01135D00226D
:060E0D008B1B8A1C891DED
:100E1300A2AF92D5C2AFD2FD8E4C8F4DE51F151FE9
:100E2300AE1E7002151E4E6028AB1B051DE51DAAE4
:100E33001C7002051C14F912006EFF054DE54DAC44
:100E43004C7002054C14F5828C83EFF030FCCD809E
:070E5300FBC2FDA2D592AF26
:010E5A002275
:061627008F828E83E0FFBC
:01162D00229A
:10126800E5231523AC22700215224C60168F828E5E
:1012780083E01200B40FBF00010E740129F9E43AAB
:03128800FA80DD0C
:01128B002240
:07162E00EFF5AFEEF5AF226E
:0815F300AFAFAEAF8FAF8EAFBA
:0115FB0022CD
:0416500043B310226E
:0B154F00EF600443B3082253B3F722FF
:0E14FB00EF25E05406FFE5B354F94FF5B32298
:0B155A00EF600443B3012253B3FE22F4
:10147900E5B35406FD53B3F9EFF5B4EEF5B5ED4216
:01148900B3AF
:01148A00223F
:10142B00E5B35406FD53B3F9AFB5EFFEACB4ECFF27
:03143B00ED42B3CC
:01143E00228B
:10143F00E5B35408FD53B3F7AFABEFFEACB6ECFF1B
:03144F00ED42B3B8
:011452002277
:03165400AFAC2216
:0B156500EF600443D6802253D67F22A3
:0B157000EF600443D6402253D6BF2298
:03165700AFD722E8
:10148B00E5D65420D39400E4940040037F01227FDF
:02149B0000222D
:03000000020B24CC
:0C0B2400787FE4F6D8FD758187020B6B2A
:10006E00BB010689828A83E0225002E722BBFE0290
:09007E00E32289828A83E49322C3
:10008700BB010CE58229F582E5833AF583E022502E
:1000970006E92582F8E622BBFE06E92582F8E22278
:0D00A700E58229F582E5833AF583E4932292
:1000B400BB010689828A83F0225002F722BBFE012B
:0200C400F32225
:1000C600F8BB010DE58229F582E5833AF583E8F070
:1000D600225006E92582C8F622BBFE05E92582C81C
:0200E600F22204
:1000E800EB9FF5F0EA9E42F0E99D42F0E89C45F06E
:0100F80022E5
:1000F900EF4E6012EF60010EEDBB010B89828A831E
:10010900F0A3DFFCDEFA2289F05007F709DFFCA92A
:0C011900F022BBFEFCF309DFFCA9F02281
:10012500E709F608DFFA8046E709F208DFFA803EBC
:1001350088828C83E709F0A3DFFA8032E309F608A9
:10014500DFFA806EE309F208DFFA806688828C8325
:10015500E309F0A3DFFA805A89828A83E0A3F608CF
:10016500DFFA804E89828A83E0A3F208DFFA8042B3
:1001750080D280FA80C680D4805580F28029801094
:1001850080A680EA809A80A880DA80E280CA8029E9
:1001950088848C8589828A83E493A30586F0A305E8
:1001A50086DFF5DEF3800B89828A83E493A3F60864
:1001B500DFF9ECFAA9F0EDFB2288848C8589828A27
:1001C50083E0A30586F0A30586DFF6DEF480E389E8
:1001D500828A83E493A3F208DFF980D688F0EF6082
:1001E500010E4E60CD88F0ED2402B4040050C3F535
:1001F50082EB2402B4040050B923234582239001E5
:0202050075730F
:100B3000020898E493A3F8E493A34003F68001F23B
:100B400008DFF48029E493A3F85407240CC8C333C6
:100B5000C4540F4420C8834004F456800146F6DF95
:100B6000E4800B01020408102040809011A2E47E72
:100B7000019360BCA3FF543F30E509541FFEE4938A
:100B8000A360010ECF54C025E060A840B8E493A351
:100B9000FAE493A3F8E493A3C8C582C8CAC583CA7C
:100BA000F0A3C8C582C8CAC583CADFE9DEE780BE34
:0111CA000024
:00000001FF
