:1011A800013B00053500000000CD053000000000BF
:1011B800AB18615E6CA774FDE3DFBCF7DA4A4F65D4
:0B11C8002D6EF0FFA6E65A8482664FF1
:1007E200E4F514120EE112117A1215A5120D7C1203
:1007F2000C457F007E031216FD308406308603020C
:10080200088E7F647E001214DC208423208620124E
:100812000F5E120DDDEF60071211D4E4FF80027F3C
:1008220001121485121338121077121041807D20A4
:100832008426121077E47B887A13F9F8C31200E851
:10084200500EE51470047F0180027F008F14805CDB
:100852007B057D037F01802F208651121041E47BAE
:10086200887A13F9F8C31200E8500EE53B70047F52
:100872000180027F008F3B80337F0A120D15EF60EB
:100882002B7B017D027F02120F9980157F0A120DC8
:1008920015EF60187B017D02E4FF120F99E51460E9
:1008A2000B7F0A7E007D007C0012143C1216C912D6
:0508B20016510207FBD6
:10143C008F188E178D168C157F01121485AE17AF71
:09144C00181214DCE4FF021485FF
:10158500E53B6005A282B38003A283B3E433FF2267
:10148500E53B6009EF24FFB39282D28322EF24FF6C
:06149500B39283D2822213
:100F99008D158B16E53B70317B017A007920AD0701
:100FA9001213B2751A01751B00751C207B017A009A
:100FB9007910120A16AF161516EF600D7B017A002B
:0A0FC9007910AD1512111780EC220B
:101117008D177D101216E1AF17121394E5176403AC
:101127006003D38001C392947F01121376E4FF1208
:101137001358D2E8753A01E53A70FCC2E8FF12137A
:0411470076D29422A6
:100DDD00E53B60037F00227F011213767F01121322
:100DED0058D2E8E4F53CE53C702120841E20861B9A
:100DFD00121585EF70047F0180027F001214851299
:100E0D0016C97F647E001214DC80DBC2E8E4FF1299
:100E1D0013767D10E4FF1216DAE53C600C90003479
:0C0E2D00E064AB70047F0180027F0022B3
:020D15008F1538
:100D1700E4F519F518F517F516E53B60037F002292
:100D27007F011213767F01121358D2E8E4F53CE5F0
:100D37003C7031AF15FCFDFEAB19AA18A917A81610
:100D4700C31200E8501E7F017E001214DCE519244F
:100D570001F519E43518F518E43517F517E43516D4
:100D6700F51680CBC2E8E4FF1213767D10E4FF127C
:040D770016DAAF3C9D
:010D7B002255
:100F5E007E007F047D007B007A0079351200F97ED9
:100F6E00007F047D007B007A0079301200F97B004F
:100F7E007A0079357F06120F217B007A007930E4F2
:0B0F8E00FF120F217D15E4FF0216DAB0
:10133800120D7C7B007A0079357F06120F217B0025
:101348007A007930E4FF120F217D10E4FF0216DAEB
:1013B2008B178A188919ED75F008A42461F9E4FAEB
:0D13C200FBA819AC18AD17FE7F080201E171
:0610AD008B4F8A508951AF
:1010B3007E087F0112163BAF061EEF601D1215510D
:1010C300EF60FA121726AB4F0551E551AA50700293
:0F10D300055014F9EF1200B480DDE4FF02163B64
:10104100E4F518F517F516F5152086211216C97F56
:10105100327E001214DCE5182432F518E43517F558
:1010610017E43516F516E43515F51580DCAF18AE25
:0510710017AD16AC15DF
:011076002257
:10107700E4F518F517F516F5152084211216C97F22
:10108700327E001214DCE5182432F518E43517F522
:1010970017E43516F516E43515F51580DCAF18AEEF
:0510A70017AD16AC15A9
:0110AC002221
:1011D4007F201214F07B017A007930751A00751B98
:1011E400047F007EFA120E937B017A007920751A2F
:0B11F40000751B107F047EFA020E93B2
:100D7C007515047B007A007916751F008515207F88
:100D8C00007EFA1212F27A007979751F0075201024
:100D9C007F047EFA1212F2AF157E0078357C007D4E
:100DAC00007A0079161201E1AF157E0078307C00D4
:100DBC007D007B007A0079161201E1751F00752009
:100DCC00007521007B007A0079797D04E4FF02161E
:010DDC00EF27
:100EE100E4FFEFFD3395E0FCC3ED9408EC648094DE
:100EF10080500AEF2470F59EF59F0F80E5759350A1
:100F0100E4F594759E03759E02759E56759E547503
:0F0F11009F047580FFF590F5CFD294D282D283E2
:010F200022AE
:100C45007F021211FF7F0112114B7F0512146EE412
:100C5500FDFCFF1213167F6E1214C77B007A007914
:100C6500357F06120F217D10E4FF1216DA7D01E4AF
:100C7500FF120E397B007A007930E4FF120F217DD7
:100C8500017F04120CAD7D017F05120CAD7D017F46
:100C950006120CAD7F011212A67F041215637F05A3
:080CA5001215637F06021563BE
:10117A00E4FF1216300F1216037F031215D17FFFF8
:10118A007E7F12153F7F01121630E5AD54806480D0
:0E119A0060F8E5AD5480648070F875B82822C6
:0F15A50012161AEF640270F8D2EAD2B9D2AF224E
:0A16510075A40475A407E4F5A422B3
:03006B0002005A36
:01005A003273
:03005B0002006A36
:01006A003263
:03004B00020BD0D5
:100BD000C0E0C0F0C083C082C085C084C086758676
:100BE00000C0D075D000C000C001C002C003C00466
:060BF000C005C006C007AD
:100BF60012004EEF24F0600A24D0600E2420701EEE
:100C060080031216B5753A00801412166FEF700B3A
:0E0C16007B017A00792012171A80EF753C01DD
:100C2400D007D006D005D004D003D002D001D00024
:100C3400D0D0D086D084D085D082D083D0F0D0E0FC
:010C4400327D
:0A165B008FE7E5E630E1FBAFE72280
:021358008F1AEA
:10135A00E4FF1214088F1BE51A64017005431B0190
:0C136A008003531BFEAD1BE4FF0213CFF9
:021376008F1ACC
:10137800E4FF1214088F1BE51A64017005431B0271
:0C1388008003531BFDAD1BE4FF0213CFDC
:02114B008F15FE
:10114D00E4FF1214088F16E51514600C14601124B9
:10115D000270135316F7800E4316085316FB8006C4
:0D116D00431608431604AD16E4FF0213CF2D
:040CAD008F158D16FC
:100CB100E4FF1214088F17E51524FB601E1460333E
:100CC10024027049E51660047F0080027F01EF5421
:100CD10001C454F0FFE51754EF802FE51660047F3F
:100CE1000080027F01EF5401C43354E0FFE5175443
:100CF100DF8017E51660047F0080027F01EF540159
:100D0100C4333354C0FFE51754BF4FF517AD17E493
:040D1100FF0213CFFB
:0B004E007D707F071213CFEF5470FF8E
:010059002284
:101455007D707F071213CFEF5470F55D7F0712146F
:0814650008EF540F425DAF5D7A
:01146D00225C
:10156300A8077401088002C333D8FCFD7F07021368
:01157300CFA8
:0816D2001216BFEF5470FF2255
:040E39008F158D166E
:100E3D007F021214088F177F011214088F18E51501
:100E4D0024FA500624076021802EAF15A8077401DF
:100E5D00088002C333D8FCFF4217E5166005EF4248
:100E6D00188015EFF45218800F75173FE5166005C1
:100E7D0075183F8003E4F518AD177F021213CFAD3F
:060E8D00187F010213CFE3
:020003008F521A
:100005007F021214088F537F011214088F54E55292
:1000150024FA5006240760168019AF52A807740108
:10002500088002C333D8FCF4525352548005E4F5DA
:1000350053F554AD537F021213CFAD547F01021314
:01004500CFEB
:100F21008F158B168A178918E51514600A24FB5052
:100F3100196004240670251216658F1DE515242AF3
:100F4100FFAB16AA17A91802096DE515240AFFAB14
:0D0F510016AA17A91812006EFD1213CF2268
:1010E2008F478B488A49894AE54714600824FB6088
:1010F200042406700BAB48AA49A94AAF4702038EE3
:10110200E547240AFF121408AB48AA49A94AEF127C
:0511120000B47F012282
:02131600AB0723
:10131800EC540FC454F0FFE515540F4FF515EB547A
:101328000FFFE51554F04FF515AD157F040213CFE7
:10146E00E4F515EF24FE5403FFE51554FC4FF51576
:07147E00AD157F030213CF3F
:0A1665007F03121408EF2402FF2295
:0716DA00EF2411FF0213CF02
:020AB4008F3D74
:100AB6007F021214088F3E7F011214088F3FE53D16
:100AC60014601A14602714603414604314604E24B2
:100AD60005705EE53E5401F540E53F804EAF3EEFC2
:100AE600C3135401F540AF3FEFC313803EAF3EEF53
:100AF60013135401F540AF3FEF1313802EAF3EEFB3
:100B06001313135401F540AF3FEF131313801CAFBB
:100B16003EEFC45401F540AF3FEFC4800EAF3EEF49
:100B2600C4135401F540AF3FEFC4135401F541809F
:0D0B360005E4F540F541E54125E02540FFCF
:010B4300228F
:050046007F0802140810
:10149B007F08121408EF54F0FFE4C4F854F0C8EFBF
:0614AB00C4540F48FF22AB
:100FD300EF1460141460151460161460171460186D
:100FE3002405701D7F1180127F12800E7F13800AEB
:100FF3007F1480067F1580027F161214088F5E808F
:0610030003E4F55EAF5EA0
:0110090022C4
:1014C700E4F515EF547FFFE51554804FF515AD157D
:0514D7007F050213CFA8
:021394008F18B0
:101396007F061214088F19E518540325E0FFE51996
:0C13A60054F94FF519AD197F060213CF62
:0211FF008F154A
:101201007F061214088F16E515600924FE700D4340
:10121100162080035316DF5316F780065316DF435B
:091221001608AD167F060213CF7A
:0A166F007F17121408EF5401FF2248
:0C005E007F17121408EFC3135401FF2297
:0B160F007F17121408EFC45401FF22E3
:0C15DF007F17121408EFC4135401FF2200
:1014B1007F17121408EF5430FFE4C4F854F0C8EF5A
:0614C100C4540F48FF2295
:0A1679007F17121408EF5403FF223C
:051710007F1702140820
:0A1683007F08121408EF540FFF2235
:0A168D007F09121408EF5401FF2238
:01172900229D
:0C15EB00EF543FF55FAD5F7F1C0213CF93
:021255008F55B3
:101257007F1D1214088F56E55560047F0180027FB9
:1012670000EF540125E025E0FFE55654FB4FF55606
:07127700AD567F1D0213CFED
:0212A6008F15A2
:1012A8007F1D1214088F16E51560047F0180027FE8
:1012B80000EF540125E0FFE51654FD4FF516AD1675
:0512C8007F1D0213CFA1
:0212CD008F5739
:1012CF007F1D1214088F58E55760047F0180027F3D
:1012DF0000EF5401FFE55854FE4FF558AD587F1DF0
:0312EF000213CF18
:0716E1008D1D7FA002096DC1
:0716E8008D1D7FB002096DAA
:0A169700EF44A8FF85461D02096D0F
:051715007F60021408D2
:05171A007F0802038EB0
:0E15C3001216BFEF540EFFE4C313EF13FF2206
:0A16A100C2E97FE312165BD2E922D2
:10152C001217107E00EF54407806CEC313CE13D89A
:03153C00F9FF2292
:0A16AB00C2E97FE212165BD2E922C9
:0A16B500C2E97FE112165BD2E922C0
:0916BF00C2E97FFF12165BD2E9BB
:0116C80022FF
:02127E008F5986
:101280007F061214088F5AE55960047F0180027F9F
:1012900000EF5401C454F0FFE55A54EF4FF55AAD36
:0612A0005A7F060213CF85
:02122A008F5BD8
:10122C007F061214088F5CE55B60047F0180027FEF
:10123C0000EF5401C43333335480FFE55C547F4FCB
:09124C00F55CAD5C7F060213CFD6
:10140800C2E98FE7E5E6540260FAAFE7E4F5E7E5FD
:09141800E6540260FAAFE7D2E9E4
:0114210022A8
:1013CF00C2E9EF2420F5E7E5E6540260FAAFE78DB6
:0C13DF00E7E5E6540260FA85E760D2E919
:0113EB0022DF
:08038E008F088B098A0A890B14
:1003960075100185090EE50814600C24FB6008241D
:1003A600FE60142408702E1216658F0C8F0DC2E99C
:1003B600E508240AFF80191215C38F08C3EF9407B6
:1003C600E4940050101217158F0C8F0DC2E97F614F
:1003D60012165B8005E4F50DF50CAF0E7E00EF708E
:0103E60028EE
:1003E700850B11E4F5E7E5107008A811A60F0511B4
:1003F7008003E4F510E5E6540260FA85E70FD50CB3
:05040700E2A811A60FA0
:09040C000204C0EF64014E703AD5
:10041500850A11850B12E4F5E7E510701385128244
:10042500851183E50FF00512E512700705118003AC
:10043500E4F510E5E6540260FA85E70FD50CD7859B
:080445001282851183E50FF01E
:08044D008071E50E64FE7029C8
:10045500850B11E4F5E7E5107009A811E50FF20524
:10046500118003E4F510E5E6540260FA85E70FD53F
:070475000CE1A811E50FF2F4
:02047C008042BC
:10047E00850911850A12850B13E4F5E7E51070184E
:10048E00AB11AA12A913E50F1200B474012513F5CE
:10049E0013E43512F5128003E4F510E5E65402601C
:1004AE00FA85E70FD50CD2AB11AA12A913E50F12DC
:0204BE0000B488
:0804C000D2E9E508FEE50DFF9D
:0104C8002211
:06096D008B1A8A1B891C95
:09097300AD1AC2E98FE7ED70191D
:10097C00851C1FA81FE6FE051FE5E6540260FA85DC
:07098C00E71E8EE7D51DEC0C
:070993008075ED6401702680
:10099A00851B1F851C20852082851F83E0FE05207C
:1009AA00E5207002051FE5E6540260FA85E71E8E0F
:0409BA00E7D51DE27E
:0709BE00804AED64FE701990
:1009C500851C1FA81FE2FE051FE5E6540260FA8597
:0709D500E71E8EE7D51DECC3
:0209DC00802C6D
:1009DE00851A1F851B20851C21AB1FAA20A9211259
:1009EE00006EFE74012521F521E43520F520E5E6A3
:0C09FE00540260FA85E71E8EE7D51DDD6F
:0B0A0A00E5E6540260FA85E71ED2E921
:010A150022BE
:10159500EF6009E5A3448054F7F5A32253A377220E
:10157400EF5401C4333354C0FFE5A354B74FF5A36C
:011584002244
:0F15B400EF5403C454F0FFE5A354C74FF5A3222F
:0A161A00E5AD30E3037F02227F01FB
:0116240022A3
:0C15F700EF5407FFE5A354F04FF5A322CA
:06170400E5AD5480FF2258
:06170A00E5AD5440FF2292
:0C160300EF5407FFE5AD54F84FF5AD22A1
:0B1422007FFA7E0012142D7FFA7E007E
:0F142D000000000000EF1F70011E144E70F2222D
:1014DC00AD07AC06121422121422ED1D70011C145F
:0414EC004C70F1222D
:1005E900637C777BF26B6FC53001672BFED7AB76E7
:1005F900CA82C97DFA5947F0ADD4A2AF9CA472C092
:10060900B7FD9326363FF7CC34A5E5F171D83115FE
:1006190004C723C31896059A071280E2EB27B2751F
:1006290009832C1A1B6E5AA0523BD6B329E32F8497
:1006390053D100ED20FCB15B6ACBBE394A4C58CF8F
:10064900D0EFAAFB434D338545F9027F503C9FA863
:1006590051A3408F929D38F5BCB6DA2110FFF3D231
:10066900CD0C13EC5F974417C4A77E3D645D1973E5
:1006790060814FDC222A908846EEB814DE5E0BDBDF
:10068900E0323A0A4906245CC2D3AC629195E47916
:10069900E7C8376D8DD54EA96C56F4EA657AAE0870
:1006A900BA78252E1CA6B4C6E8DD741F4BBD8B8A0B
:1006B900703EB5664803F60E613557B986C11D9E71
:1006C900E1F8981169D98E949B1E87E9CE5528DFE8
:1006D9008CA1890DBFE6426841992D0FB054BB1614
:0B06E9008D01020408102040801B3629
:0716EF008F1A8D1B02100A87
:060A16008B178A188919F4
:100A1C00E4F52DC3E52D941074809480501BAB1A13
:100A2C00AA1BA91C852D82758300120087FF741DDB
:100A3C00252DF8A607052D80DA75DE02E4F52DC309
:100A4C00E52D94097480948050137F1D1204C97F86
:100A5C001D120207AF2D1208B7052D80E27F1D1263
:100A6C0004C97F091208B77F1D1206F4E4F52DC3E3
:100A7C00E52D941074809480502D7435252DF582BD
:100A8C00E43400F583E0FF7400252DF8EFF2741DBB
:100A9C00252DF8E6AB17AA18A919852D82758300A8
:070AAC001200C6052D80C8F1
:010AB3002220
:06100A008B228A238924D9
:10101000E4FFEFC39410748094805024AB22AA2381
:10102000A9248F82758300120087FE74002FF8EECA
:10103000F274352FF582E43400F583EEF00F80D2A0
:01104000228D
:1006F400A807C000E6FE7800E26ED000F6EF04F82A
:10070400C000E6FE7801E26ED000F6EF2402F8C0E5
:1007140000E6FE7802E26ED000F6EF2403F8C00093
:10072400E6FE7803E26ED000F6EF2404F8C000E69B
:10073400FE7804E26ED000F6EF2405F8C000E6FE71
:100744007805E26ED000F6EF2406F8C000E6FE78E5
:1007540006E26ED000F6EF2407F8C000E6FE780744
:10076400E26ED000F6EF2408F8C000E6FE7808E256
:100774006ED000F6EF2409F8C000E6FE7809E26EB8
:10078400D000F6EF240AF8C000E6FE780AE26ED044
:1007940000F6EF240BF8C000E6FE780BE26ED00002
:1007A400F6EF240CF8C000E6FE780CE26ED000F6FA
:1007B400EF240DF8C000E6FE780DE26ED000F6EFEF
:1007C400240EF8C000E6FE780EE26ED000F6EF24A8
:0E07D4000FF8C000E6FF780FE26FD000F622AB
:1008B700780DE29005E993FE7800E2FDEE6DFEEF1C
:1008C7009006EA936EF2780EE29005E993FF7801BD
:1008D700E2FEEF6EF2780FE293FF7802E2FEEF6E30
:1008E700F2780CE293FF7803E2FEEF6EF208E2FF84
:1008F7007800E26F7804F208E2FF7801E26F78058A
:10090700F208E2FF7802E26F7806F208E2FF780366
:10091700E26F7807F208E2FF7804E26F7808F208DE
:10092700E2FF7805E26F7809F208E2FF7806E26FE6
:10093700780AF208E2FF7807E26F780BF208E2FF25
:100947007808E26F780CF208E2FF7809E26F780D19
:10095700F208E2FF780AE26F780EF208E2FF780BFE
:06096700E26F780FF2229E
:1004C900A807E6FE7800E26E9005E993A807F6E82A
:1004D9002404F8E6FE7804E26E93FEEF2404F8A6FD
:1004E90006EF2408F8E6FE7808E26E93FEEF24088A
:1004F900F8A606EF240CF8E6FE780CE26E93FEEF00
:10050900240CF8A606EF04F8E6FE7801E26E93F5EE
:100519002EEF2405F8E6FE7805E26E93FEEF04F867
:10052900A606EF2409F8E6FE7809E26E93FEEF24A9
:1005390005F8A606EF240DF8E6FE780DE26E93FEA7
:10054900EF2409F8A606EF240DF8A62EEF2402F8E9
:10055900E6FE7802E26E93F52EEF2406F8E6FE78C1
:1005690006E26E93F52FEF240AF8E6FE780AE26EAA
:1005790093FEEF2402F8A606EF240EF8E6FE780EA5
:10058900E26E93FEEF2406F8A606EF240AF8A62EDB
:10059900EF240EF8A62FEF240FF8E6FE780FE26E8F
:1005A90093F52EEF240BF8E6FE780BE26E93FEEF3F
:1005B900240FF8A606EF2407F8E6FE7807E26E9303
:1005C900FEEF240BF8A606EF2403F8E6FE7803E213
:0F05D9006E93FEEF2407F8A606EF2403F8A62E74
:0105E80022F0
:10020700EF2402F8E6FEEF2403F8E66EFEEF04F8AB
:10021700E6FD6EFEA807E6FC6EFEAB04EC6DF5DDB1
:10022700ADDFED6EFDE66DF6E82402F8E6FDEF04BE
:10023700F8E6FC6DF5DDADDFED6E6CF6EF2403F847
:10024700E6FDEF2402F8E6FC6DF5DDADDFED6E6C43
:10025700F6EF2403F8E6FC6BF5DDADDFED6E6CF62B
:10026700EF2406F8E6FEEF2407F8E66EFEEF240516
:10027700F8E6FD6EFEEF2404F8E6FC6EFEAB04EC38
:100287006DF5DDADDFED6E6CF6EF2406F8E6FDEFFC
:100297002405F8E6FC6DF5DDADDFED6E6CF6EF24B9
:1002A70007F8E6FDEF2406F8E6FC6DF5DDADDFEDBA
:1002B7006E6CF6EF2407F8E6FC6BF5DDADDFED6E4F
:1002C7006CF6EF240AF8E6FEEF240BF8E66EFEEF75
:1002D7002409F8E6FD6EFEEF2408F8E6FC6EFEAB97
:1002E70004EC6DF5DDADDFED6E6CF6EF240AF8E694
:1002F700FDEF2409F8E6FC6DF5DDADDFED6E6CF67C
:10030700EF240BF8E6FDEF240AF8E6FC6DF5DDAD0A
:10031700DFED6E6CF6EF240BF8E6FC6BF5DDADDF79
:10032700ED6E6CF6EF240EF8E6FEEF240FF8E66E9E
:10033700FEEF240DF8E6FD6EFEEF240CF8E66EFEE8
:10034700E6FB6DF5DDADDFED6EFDE66DF6EF240E38
:10035700F8E6FDEF240DF8E6FC6DF5DDADDFED6E9B
:100367006CF6EF240FF8E6FDEF240EF8E6FC6DF5CA
:10037700DDADDFED6E6CF6EF240FF8E6FC6BF5DD17
:06038700ADDFED6E6CF627
:01038D00224D
:1014F000A2AF92D5C2AFD2FD8FFA20FCFDC2FDA2F1
:04150000D592AF22AF
:1013EC00A2AF92D5C2AFD2FD8E4B8F4C8F828E8323
:0B13FC00EDF020FCFDC2FDA2D592AF79
:0114070022C2
:060E93008B178A18891973
:100E9900A2AF92D5C2AFD2FD8E4D8F4EE51B151B69
:100EA900AE1A7002151A4E6028AB170519E519AA72
:100EB900187002051814F912006EFF054EE54EACC4
:100EC9004D7002054D14F5828C83EFF030FCCD8016
:070ED900FBC2FDA2D592AFA0
:010EE00022EF
:0616F6008F828E83E0FFED
:0116FC0022CB
:1012F200E5201520AC1F7002151F4C60168F828EE0
:1013020083E01200B40FBF00010E740129F9E43A20
:03131200FA80DD81
:0113150022B5
:0716FD00EFF5AFEEF5AF229F
:0816C900AFAFAEAF8FAF8EAFE3
:0116D10022F6
:04171F0043B310229E
:0B162500EF600443B3082253B3F72228
:0E15D100EF25E05406FFE5B354F94FF5B322C1
:0B163000EF600443B3012253B3FE221D
:10153F00E5B35406FD53B3F9EFF5B4EEF5B5ED424F
:01154F00B3E8
:011550002278
:10150400E5B35406FD53B3F9AFB5EFFEACB4ECFF4D
:03151400ED42B3F2
:0115170022B1
:10151800E5B35408FD53B3F7AFABEFFEACB6ECFF41
:03152800ED42B3DE
:01152B00229D
:03172300AFAC2246
:0B163B00EF600443D6802253D67F22CC
:0B164600EF600443D6402253D6BF22C1
:03172600AFD72218
:10155100E5D65420D39400E4940040037F01227F18
:02156100002266
:03000000020B44AC
:0C0B4400787FE4F6D8FD758188020B8BE9
:10006E00BB010689828A83E0225002E722BBFE0290
:09007E00E32289828A83E49322C3
:10008700BB010CE58229F582E5833AF583E022502E
:1000970006E92582F8E622BBFE06E92582F8E22278
:0D00A700E58229F582E5833AF583E4932292
:1000B400BB010689828A83F0225002F722BBFE012B
:0200C400F32225
:1000C600F8BB010DE58229F582E5833AF583E8F070
:1000D600225006E92582C8F622BBFE05E92582C81C
:0200E600F22204
:1000E800EB9FF5F0EA9E42F0E99D42F0E89C45F06E
:0100F80022E5
:1000F900EF4E6012EF60010EEDBB010B89828A831E
:10010900F0A3DFFCDEFA2289F05007F709DFFCA92A
:0C011900F022BBFEFCF309DFFCA9F02281
:10012500E709F608DFFA8046E709F208DFFA803EBC
:1001350088828C83E709F0A3DFFA8032E309F608A9
:10014500DFFA806EE309F208DFFA806688828C8325
:10015500E309F0A3DFFA805A89828A83E0A3F608CF
:10016500DFFA804E89828A83E0A3F208DFFA8042B3
:1001750080D280FA80C680D4805580F28029801094
:1001850080A680EA809A80A880DA80E280CA8029E9
:1001950088848C8589828A83E493A30586F0A305E8
:1001A50086DFF5DEF3800B89828A83E493A3F60864
:1001B500DFF9ECFAA9F0EDFB2288848C8589828A27
:1001C50083E0A30586F0A30586DFF6DEF480E389E8
:1001D500828A83E493A3F208DFF980D688F0EF6082
:1001E500010E4E60CD88F0ED2402B4040050C3F535
:1001F50082EB2402B4040050B923234582239001E5
:0202050075730F
:100B50000207E2E493A3F8E493A34003F68001F2D2
:100B600008DFF48029E493A3F85407240CC8C333A6
:100B7000C4540F4420C8834004F456800146F6DF75
:100B8000E4800B01020408102040809011A8E47E4C
:100B9000019360BCA3FF543F30E509541FFEE4936A
:100BA000A360010ECF54C025E060A840B8E493A331
:100BB000FAE493A3F8E493A3C8C582C8CAC583CA5C
:100BC000F0A3C8C582C8CAC583CADFE9DEE780BE14
:0111D300001B
:00000001FF
