:10119500013F00053900000000CD053400000000C6
:1011A500AB18655E6CA774FDE3DFBCF7DA4A4F65E3
:0B11B5002D6EF0FFA6E65A8482664F04
:1004C900E4F514120F3412116712158A120DD6129F
:1004D9000CA67F007E031216F730840630860302CD
:1004E90005C57F647E001214AC2084242086211265
:1004F9000FEF121098121522EF60071213B9E4FFDB
:1005090080027F011214551216CD1214FC0205C582
:1005190020845BE4F518F517F516F51520842112EA
:1005290016BC7F647E001214ACE5182464F518E447
:100539003517F517E43516F516E43515F51580DC8C
:10054900E47FB87E0BFDFCAB18AA17A916A815D332
:100559001200E8400EE51470047F0180027F008FCD
:100569001480597B057D037F01120E8E804EE4F5C0
:1005790018F517F516F5152086211216BC7F647E2D
:10058900001214ACE5182464F518E43517F517E4DE
:100599003516F516E43515F51580DCE47FB87E0BC4
:1005A900FDFCAB18AA17A916A815D31200E8400C30
:1005B900E53F70047F0180027F008F3F7F0A120DA3
:1005C90076EF60292086087B057D027F0280067B05
:1005D900017D02E4FF120E8EE51460117F011214F1
:1005E900557F197E001214ACE4FF1214551216BC83
:0605F9001216440204E2A8
:0E15A800E53F6005B282D28322B283D2822256
:10145500E53F6009EF24FFB39282D28322EF24FF98
:06146500B39283D2822243
:100E8E008D198B1A7B017A007920AD0712137F75AD
:100E9E001E01751F007520207B017A007910120A41
:100EAE0077D3E51A94017480948040057F01121463
:100EBE0055AF1A151AEF601B7B017A007910751F5A
:100ECE0001AD19120F74E51A60E77F057E0012144A
:080EDE00AC80DEE4FF021455B4
:1014FC0030840320860C1216BC7F327E001214AC92
:03150C0080EE224C
:100DD6007B007A0079197522007523047F007EFA5C
:100DE6001212DF7A00797D7522007523107F047E4A
:100DF600FA1212DF78397C007D007A0079197E00BC
:100E06007F041201E178347C007D007B007A007952
:100E1600197E007F041201E17522007523007524F6
:0E0E2600007B007A00797D7D04E4FF0216E96E
:10152200E540600B900034E064AB70037F01227FE2
:02153200002295
:1013B9001211C1120DD67B007A0079397F06120FFE
:0C13C900B27B007A007934E4FF020FB21E
:1011C1007F201214C07B017A007930751E00751FD3
:1011D100047F007EFA120EE67B017A007920751EEB
:0B11E10000751F107F047EFA020EE66E
:101098007F011213437F01121325D2E8E4F540E5DE
:1010A80040701520841220860F1215A81216BC7FD6
:1010B800647E001214AC80E7C2E8E4FF1213437D9B
:0610C80010E4FF0216D443
:020D76008F19D3
:100D7800E4F51DF51CF51BF51A7F011213437F01DD
:100D8800121325D2E8E4F540E5407031AF19FCFDB7
:100D9800FEAB1DAA1CA91BA81AC31200E8501E7F8F
:100DA800017E001214ACE51D2401F51DE4351CF587
:100DB8001CE4351BF51BE4351AF51A80CBC2E8E4B0
:0D0DC800FF1213437D10E4FF1216D4AF405C
:010DD50022FB
:100FEF007E007F047D007B007A0079391200F97E44
:100FFF00007F047D007B007A0079341200F97B00BA
:10100F007A0079397F06120FB27B007A007934E4C7
:0B101F00FF120FB27D15E4FF0216D493
:0716CD007D10E4FF0216D4BA
:100F74008D1E7D101216DBAF1E121361E51E640375
:100F84006003D38001C392947F01121343E4FF12E0
:100F94001325AF1F151FEF600DD2E8753E01E53E26
:0E0FA40070FCC2E880ECE4FF121343D29422EA
:10137F008B1B8A1C891DED75F008A42465F9E4FA0E
:0D138F00FBA81DAC1CAD1BFE7F080201E198
:0610CE008B538A54895582
:1010D4007E087F0112162EAF061EEF601D12154604
:1010E400EF60FA121720AB530555E555AA54700268
:0F10F400055414F9EF1200B480DDE4FF02162E4C
:100F3400E4FFEFFD3395E0FCC3ED9408EC6480948A
:100F440080500AEF2470F59EF59F0F80E57593504D
:100F5400E4F594759E03759E02759E56759E5475B0
:0F0F64009F047580FFF590F5CFD294D282D2838F
:010F7300225B
:100CA6007F021211EC7F011211387F0512143EE407
:100CB600FDFCFF1213037F6E1214977B007A0079F6
:100CC600397F06120FB27D10E4FF1216D47D01E4BF
:100CD600FF120E347B007A007934E4FF120FB27DE6
:100CE600017F04120D0E7D017F05120D0E7D017F21
:100CF60006120D0E7F011212937F041215587F05FE
:080D06001215587F0602155872
:10116700E4FF1216230F1215F67F031215C47FFF33
:101177007E7F1215347F01121623E5AD54806480FB
:0E11870060F8E5AD5480648070F875B82822D9
:0F158A0012160DEF640270F8D2EAD2B9D2AF2276
:0A16440075A40475A407E4F5A422C0
:03006B0002005A36
:01005A003273
:03005B0002006A36
:01006A003263
:03004B00020C3173
:100C3100C0E0C0F0C083C082C085C084C086758614
:100C410000C0D075D000C000C001C002C003C00404
:060C5100C005C006C0074B
:100C570012004EEF24F0600A24D0600E2420701E8C
:100C670080031216A8753E008014121662EF700BEF
:0E0C77007B017A00792012171480EF7540017E
:100C8500D007D006D005D004D003D002D001D000C3
:100C9500D0D0D086D084D085D082D083D0F0D0E09B
:010CA500321C
:0A164E008FE7E5E630E1FBAFE7228D
:021325008F2017
:10132700E4FF1213F18F21E52064017005432101C9
:0C13370080035321FEAD21E4FF02139C53
:021343008F20F9
:10134500E4FF1213F18F21E52064017005432102AA
:0C13550080035321FDAD21E4FF02139C36
:021138008F190D
:10113A00E4FF1213F18F1AE51914600C14601124DC
:10114A00027013531AF7800E431A08531AFB8006CB
:0D115A00431A08431A04AD1AE4FF02139C67
:040D0E008F198D1A92
:100D1200E4FF1213F18F1BE51924FB601E146033EC
:100D220024027049E51A60047F0080027F01EF54BB
:100D320001C454F0FFE51B54EF802FE51A60047FD5
:100D42000080027F01EF5401C43354E0FFE51B54DD
:100D5200DF8017E51A60047F0080027F01EF5401F3
:100D6200C4333354C0FFE51B54BF4FF51BAD1BE426
:040D7200FF02139CCD
:0B004E007D707F0712139CEF5470FFC1
:010059002284
:101425007D707F0712139CEF5470F5617F071213CF
:08143500F1EF540F4261AF61B9
:01143D00228C
:10155800A8077401088002C333D8FCFD7F07021373
:011568009CE6
:0816C5001216B2EF5470FF226F
:040E34008F198D1A6B
:100E38007F021213F18F1B7F011213F18F1CE5192A
:100E480024FA500624076021802EAF19A8077401E0
:100E5800088002C333D8FCFF421BE51A6005EF4245
:100E68001C8015EFF4521C800F751B3FE51A6005B6
:100E7800751C3F8003E4F51CAD1B7F0212139CAD6B
:060E88001C7F0102139C17
:020003008F5616
:100005007F021213F18F577F011213F18F58E556B6
:1000150024FA5006240760168019AF56A807740104
:10002500088002C333D8FCF4525752588005E4F5D2
:1000350057F558AD577F0212139CAD587F01021337
:010045009C1E
:100FB2008F198B1A8A1B891CE51914600A24FB50AD
:100FC200196004240670251216588F24E519242A64
:100FD200FFAB1AAA1BA91C0209CEE519240AFFAB12
:0D0FE2001AAA1BA91C12006EFD12139C22FE
:101103008F4B8B4C8A4D894EE54B14600824FB6052
:10111300042406700BAB4CAA4DA94EAF4B02038EB1
:10112300E54B240AFF1213F1AB4CAA4DA94EEF1263
:0511330000B47F012261
:02130300AB0736
:10130500EC540FC454F0FFE519540F4FF519EB5485
:101315000FFFE51954F04FF519AD197F0402139C21
:10143E00E4F519EF24FE5403FFE51954FC4FF5199A
:07144E00AD197F0302139C9E
:0A1658007F031213F1EF2402FF22BA
:0716D400EF2411FF02139C3B
:020B15008F410E
:100B17007F021213F18F427F011213F18F43E541D8
:100B270014601A14602714603414604314604E2450
:100B370005705EE5425401F544E543804EAF42EF50
:100B4700C3135401F544AF43EFC313803EAF42EFE5
:100B570013135401F544AF43EF1313802EAF42EF45
:100B67001313135401F544AF43EF131313801CAF52
:100B770042EFC45401F544AF43EFC4800EAF42EFD8
:100B8700C4135401F544AF43EFC4135401F5458032
:0D0B970005E4F544F545E54525E02544FF5E
:010BA400222E
:050046007F080213F128
:10146B007F081213F1EF54F0FFE4C4F854F0C8EF07
:06147B00C4540F48FF22DB
:10102A00EF14601414601514601614601714601815
:10103A002405701D7F1180127F12800E7F13800A93
:10104A007F1480067F1580027F161213F18F62804B
:06105A0003E4F562AF6241
:01106000226D
:10149700E4F519EF547FFFE51954804FF519AD199D
:0514A7007F0502139C0B
:021361008F20DB
:101363007F061213F18F21E520540325E0FFE521C9
:0C13730054F94FF521AD217F0602139CB8
:0211EC008F1959
:1011EE007F061213F18F1AE519600924FE700D4364
:1011FE001A208003531ADF531AF78006531ADF435F
:09120E001A08AD1A7F0602139CB8
:0A1662007F171213F1EF5401FF226D
:0C005E007F171213F1EFC3135401FF22AF
:0B1602007F171213F1EFC45401FF2208
:0C15D2007F171213F1EFC4135401FF2225
:101481007F171213F1EF5430FFE4C4F854F0C8EFA2
:06149100C4540F48FF22C5
:0A166C007F171213F1EF5403FF2261
:05170A007F170213F13E
:0A1676007F081213F1EF540FFF225A
:0A1680007F091213F1EF5401FF225D
:0117230022A3
:0C15DE00EF543FF563AD637F1C02139CCB
:021242008F59C2
:101244007F1D1213F18F5AE55960047F0180027FDC
:1012540000EF540125E025E0FFE55A54FB4FF55A11
:07126400AD5A7F1D02139C2F
:021293008F19B1
:101295007F1D1213F18F1AE51960047F0180027F0B
:1012A50000EF540125E0FFE51A54FD4FF51AAD1A7C
:0512B5007F1D02139CE7
:0212BA008F5B48
:1012BC007F1D1213F18F5CE55B60047F0180027F60
:1012CC0000EF5401FFE55C54FE4FF55CAD5C7F1DF7
:0312DC0002139C5E
:0716DB008D247FA00209CE5F
:0716E2008D247FB00209CE48
:0A168A00EF44A8FF854A240209CEB0
:05170F007F600213F1F0
:051714007F0802038EB6
:0E15B6001216B2EF540EFFE4C313EF13FF2220
:0A169400C2E97FE312164ED2E922EC
:10150F0012170A7E00EF54407806CEC313CE13D8BD
:03151F00F9FF22AF
:0A169E00C2E97FE212164ED2E922E3
:0A16A800C2E97FE112164ED2E922DA
:0916B200C2E97FFF12164ED2E9D5
:0116BB00220C
:02126B008F5D95
:10126D007F061213F18F5EE55D60047F0180027FC2
:10127D0000EF5401C454F0FFE55E54EF4FF55EAD41
:06128D005E7F0602139CC7
:021217008F5FE7
:101219007F061213F18F60E55F60047F0180027F12
:1012290000EF5401C43333335480FFE560547F4FDA
:09123900F560AD607F0602139C14
:1013F100C2E98FE7E5E6540260FAAFE7E4F5E7E515
:09140100E6540260FAAFE7D2E9FB
:01140A0022BF
:10139C00C2E9EF2420F5E7E5E6540260FAAFE78DE9
:0C13AC00E7E5E6540260FA85E764D2E948
:0113B8002212
:08038E008F088B098A0A890B14
:1003960075100185090EE50814600C24FB6008241D
:1003A600FE60142408702E1216588F0C8F0DC2E9A9
:1003B600E508240AFF80191215B68F08C3EF9407C3
:1003C600E49400501012170F8F0C8F0DC2E97F6155
:1003D60012164E8005E4F50DF50CAF0E7E00EF709B
:0103E60028EE
:1003E700850B11E4F5E7E5107008A811A60F0511B4
:1003F7008003E4F510E5E6540260FA85E70FD50CB3
:05040700E2A811A60FA0
:09040C000204C0EF64014E703AD5
:10041500850A11850B12E4F5E7E510701385128244
:10042500851183E50FF00512E512700705118003AC
:10043500E4F510E5E6540260FA85E70FD50CD7859B
:080445001282851183E50FF01E
:08044D008071E50E64FE7029C8
:10045500850B11E4F5E7E5107009A811E50FF20524
:10046500118003E4F510E5E6540260FA85E70FD53F
:070475000CE1A811E50FF2F4
:02047C008042BC
:10047E00850911850A12850B13E4F5E7E51070184E
:10048E00AB11AA12A913E50F1200B474012513F5CE
:10049E0013E43512F5128003E4F510E5E65402601C
:1004AE00FA85E70FD50CD2AB11AA12A913E50F12DC
:0204BE0000B488
:0804C000D2E9E508FEE50DFF9D
:0104C8002211
:0609CE008B218A2289231F
:0909D400AD21C2E98FE7ED7019B5
:1009DD00852326A826E6FE0526E5E6540260FA855F
:0709ED00E7258EE7D524EC9D
:0709F4008075ED640170261F
:1009FB00852226852327852782852683E0FE0527EA
:100A0B00E52770020526E5E6540260FA85E7258E98
:040A1B00E7D524E215
:070A1F00804AED64FE70192E
:100A2600852326A826E2FE0526E5E6540260FA8519
:070A3600E7258EE7D524EC53
:020A3D00802C0B
:100A3F00852126852227852328AB26AA27A92812B8
:100A4F00006EFE74012528F528E43527F527E5E625
:0C0A5F00540260FA85E7258EE7D524DDFF
:0B0A6B00E5E6540260FA85E725D2E9B9
:010A7600225D
:10157A00EF6009E5A3448054F7F5A32253A3772229
:10156900EF5401C4333354C0FFE5A354B74FF5A377
:01157900224F
:0F159900EF5403C454F0FFE5A354C74FF5A3224A
:0A160D00E5AD30E3037F02227F0108
:0116170022B0
:0C15EA00EF5407FFE5A354F04FF5A322D7
:0616FE00E5AD5480FF225F
:06170400E5AD5440FF2298
:0C15F600EF5407FFE5AD54F84FF5AD22AF
:0B140B007FFA7E001214167FFA7E00AC
:0F1416000000000000EF1F70011E144E70F22244
:1014AC00AD07AC0612140B12140BED1D70011C14BD
:0414BC004C70F1225D
:10071F00637C777BF26B6FC53001672BFED7AB76AF
:10072F00CA82C97DFA5947F0ADD4A2AF9CA472C05A
:10073F00B7FD9326363FF7CC34A5E5F171D83115C7
:10074F0004C723C31896059A071280E2EB27B275E8
:10075F0009832C1A1B6E5AA0523BD6B329E32F8460
:10076F0053D100ED20FCB15B6ACBBE394A4C58CF58
:10077F00D0EFAAFB434D338545F9027F503C9FA82C
:10078F0051A3408F929D38F5BCB6DA2110FFF3D2FA
:10079F00CD0C13EC5F974417C4A77E3D645D1973AE
:1007AF0060814FDC222A908846EEB814DE5E0BDBA8
:1007BF00E0323A0A4906245CC2D3AC629195E479DF
:1007CF00E7C8376D8DD54EA96C56F4EA657AAE0839
:1007DF00BA78252E1CA6B4C6E8DD741F4BBD8B8AD4
:1007EF00703EB5664803F60E613557B986C11D9E3A
:1007FF00E1F8981169D98E949B1E87E9CE5528DFB1
:10080F008CA1890DBFE6426841992D0FB054BB16DC
:0B081F008D01020408102040801B36F1
:0716E9008F1D8D1E02106130
:060A77008B1B8A1C891D87
:100A7D00E4F531C3E531941074809480501BAB1EA6
:100A8D00AA1FA920853182758300120087FF74216A
:100A9D002531F8A607053180DA75DE02E4F531C39C
:100AAD00E53194097480948050137F211205FF7FE6
:100ABD0021120207AF31120918053180E27F211290
:100ACD0005FF7F091209187F2112082AE4F531C3A9
:100ADD00E531941074809480502D74352531F58254
:100AED00E43400F583E0FF74002531F8EFF2742152
:100AFD002531F8E6AB1BAA1CA91D85318275830033
:070B0D001200C6053180C88B
:010B140022BE
:061061008B258A26892779
:10106700E4FFEFC39410748094805024AB25AA2624
:10107700A9278F82758300120087FE74002FF8EE70
:10108700F274352FF582E43400F583EEF00F80D249
:011097002236
:10082A00A807C000E6FE7800E26ED000F6EF04F8F2
:10083A00C000E6FE7801E26ED000F6EF2402F8C0AE
:10084A0000E6FE7802E26ED000F6EF2403F8C0005C
:10085A00E6FE7803E26ED000F6EF2404F8C000E664
:10086A00FE7804E26ED000F6EF2405F8C000E6FE3A
:10087A007805E26ED000F6EF2406F8C000E6FE78AE
:10088A0006E26ED000F6EF2407F8C000E6FE78070D
:10089A00E26ED000F6EF2408F8C000E6FE7808E21F
:1008AA006ED000F6EF2409F8C000E6FE7809E26E81
:1008BA00D000F6EF240AF8C000E6FE780AE26ED00D
:1008CA0000F6EF240BF8C000E6FE780BE26ED000CB
:1008DA00F6EF240CF8C000E6FE780CE26ED000F6C3
:1008EA00EF240DF8C000E6FE780DE26ED000F6EFB8
:1008FA00240EF8C000E6FE780EE26ED000F6EF2471
:0E090A000FF8C000E6FF780FE26FD000F62273
:10091800780DE290071F93FE7800E2FDEE6DFEEF82
:10092800900820936EF2780EE290071F93FF7801EB
:10093800E2FEEF6EF2780FE293FF7802E2FEEF6ECE
:10094800F2780CE293FF7803E2FEEF6EF208E2FF22
:100958007800E26F7804F208E2FF7801E26F780528
:10096800F208E2FF7802E26F7806F208E2FF780305
:10097800E26F7807F208E2FF7804E26F7808F2087D
:10098800E2FF7805E26F7809F208E2FF7806E26F85
:10099800780AF208E2FF7807E26F780BF208E2FFC4
:1009A8007808E26F780CF208E2FF7809E26F780DB8
:1009B800F208E2FF780AE26F780EF208E2FF780B9D
:0609C800E26F780FF2223D
:1005FF00A807E6FE7800E26E90071F93A807F6E8BB
:10060F002404F8E6FE7804E26E93FEEF2404F8A6C5
:10061F0006EF2408F8E6FE7808E26E93FEEF240852
:10062F00F8A606EF240CF8E6FE780CE26E93FEEFC8
:10063F00240CF8A606EF04F8E6FE7801E26E93F5B7
:10064F0032EF2405F8E6FE7805E26E93FEEF04F82C
:10065F00A606EF2409F8E6FE7809E26E93FEEF2472
:10066F0005F8A606EF240DF8E6FE780DE26E93FE70
:10067F00EF2409F8A606EF240DF8A632EF2402F8AE
:10068F00E6FE7802E26E93F532EF2406F8E6FE7886
:10069F0006E26E93F533EF240AF8E6FE780AE26E6F
:1006AF0093FEEF2402F8A606EF240EF8E6FE780E6E
:1006BF00E26E93FEEF2406F8A606EF240AF8A632A0
:1006CF00EF240EF8A633EF240FF8E6FE780FE26E54
:1006DF0093F532EF240BF8E6FE780BE26E93FEEF04
:1006EF00240FF8A606EF2407F8E6FE7807E26E93CC
:1006FF00FEEF240BF8A606EF2403F8E6FE7803E2DC
:0F070F006E93FEEF2407F8A606EF2403F8A63238
:01071E0022B8
:10020700EF2402F8E6FEEF2403F8E66EFEEF04F8AB
:10021700E6FD6EFEA807E6FC6EFEAB04EC6DF5DDB1
:10022700ADDFED6EFDE66DF6E82402F8E6FDEF04BE
:10023700F8E6FC6DF5DDADDFED6E6CF6EF2403F847
:10024700E6FDEF2402F8E6FC6DF5DDADDFED6E6C43
:10025700F6EF2403F8E6FC6BF5DDADDFED6E6CF62B
:10026700EF2406F8E6FEEF2407F8E66EFEEF240516
:10027700F8E6FD6EFEEF2404F8E6FC6EFEAB04EC38
:100287006DF5DDADDFED6E6CF6EF2406F8E6FDEFFC
:100297002405F8E6FC6DF5DDADDFED6E6CF6EF24B9
:1002A70007F8E6FDEF2406F8E6FC6DF5DDADDFEDBA
:1002B7006E6CF6EF2407F8E6FC6BF5DDADDFED6E4F
:1002C7006CF6EF240AF8E6FEEF240BF8E66EFEEF75
:1002D7002409F8E6FD6EFEEF2408F8E6FC6EFEAB97
:1002E70004EC6DF5DDADDFED6E6CF6EF240AF8E694
:1002F700FDEF2409F8E6FC6DF5DDADDFED6E6CF67C
:10030700EF240BF8E6FDEF240AF8E6FC6DF5DDAD0A
:10031700DFED6E6CF6EF240BF8E6FC6BF5DDADDF79
:10032700ED6E6CF6EF240EF8E6FEEF240FF8E66E9E
:10033700FEEF240DF8E6FD6EFEEF240CF8E66EFEE8
:10034700E6FB6DF5DDADDFED6EFDE66DF6EF240E38
:10035700F8E6FDEF240DF8E6FC6DF5DDADDFED6E9B
:100367006CF6EF240FF8E6FDEF240EF8E6FC6DF5CA
:10037700DDADDFED6E6CF6EF240FF8E6FC6BF5DD17
:06038700ADDFED6E6CF627
:01038D00224D
:1014C000A2AF92D5C2AFD2FD8FFA20FCFDC2FDA221
:0414D000D592AF22E0
:1013D500A2AF92D5C2AFD2FD8E4F8F508F828E8332
:0B13E500EDF020FCFDC2FDA2D592AF90
:0113F00022DA
:060EE6008B1B8A1C891D14
:100EEC00A2AF92D5C2AFD2FD8E518F52E51F151F06
:100EFC00AE1E7002151E4E6028AB1B051DE51DAA0B
:100F0C001C7002051C14F912006EFF0552E552AC60
:100F1C00517002055114F5828C83EFF030FCCD80BA
:070F2C00FBC2FDA2D592AF4C
:010F3300229B
:0616F0008F828E83E0FFF3
:0116F60022D1
:1012DF00E5231523AC22700215224C60168F828EE7
:1012EF0083E01200B40FBF00010E740129F9E43A34
:0312FF00FA80DD95
:0113020022C8
:0716F700EFF5AFEEF5AF22A5
:0816BC00AFAFAEAF8FAF8EAFF0
:0116C4002203
:0417190043B31022A4
:0B161800EF600443B3082253B3F72235
:0E15C400EF25E05406FFE5B354F94FF5B322CE
:0B162300EF600443B3012253B3FE222A
:10153400E5B35406FD53B3F9EFF5B4EEF5B5ED425A
:01154400B3F3
:011545002283
:1014D400E5B35406FD53B3F9AFB5EFFEACB4ECFF7E
:0314E400ED42B323
:0114E70022E2
:1014E800E5B35408FD53B3F7AFABEFFEACB6ECFF72
:0314F800ED42B30F
:0114FB0022CE
:03171D00AFAC224C
:0B162E00EF600443D6802253D67F22D9
:0B163900EF600443D6402253D6BF22CE
:03172000AFD7221E
:10154600E5D65420D39400E4940040037F01227F23
:02155600002271
:03000000020BA54B
:0C0BA500787FE4F6D8FD75818C020BEC23
:10006E00BB010689828A83E0225002E722BBFE0290
:09007E00E32289828A83E49322C3
:10008700BB010CE58229F582E5833AF583E022502E
:1000970006E92582F8E622BBFE06E92582F8E22278
:0D00A700E58229F582E5833AF583E4932292
:1000B400BB010689828A83F0225002F722BBFE012B
:0200C400F32225
:1000C600F8BB010DE58229F582E5833AF583E8F070
:1000D600225006E92582C8F622BBFE05E92582C81C
:0200E600F22204
:1000E800EB9FF5F0EA9E42F0E99D42F0E89C45F06E
:0100F80022E5
:1000F900EF4E6012EF60010EEDBB010B89828A831E
:10010900F0A3DFFCDEFA2289F05007F709DFFCA92A
:0C011900F022BBFEFCF309DFFCA9F02281
:10012500E709F608DFFA8046E709F208DFFA803EBC
:1001350088828C83E709F0A3DFFA8032E309F608A9
:10014500DFFA806EE309F208DFFA806688828C8325
:10015500E309F0A3DFFA805A89828A83E0A3F608CF
:10016500DFFA804E89828A83E0A3F208DFFA8042B3
:1001750080D280FA80C680D4805580F28029801094
:1001850080A680EA809A80A880DA80E280CA8029E9
:1001950088848C8589828A83E493A30586F0A305E8
:1001A50086DFF5DEF3800B89828A83E493A3F60864
:1001B500DFF9ECFAA9F0EDFB2288848C8589828A27
:1001C50083E0A30586F0A30586DFF6DEF480E389E8
:1001D500828A83E493A3F208DFF980D688F0EF6082
:1001E500010E4E60CD88F0ED2402B4040050C3F535
:1001F50082EB2402B4040050B923234582239001E5
:0202050075730F
:100BB1000204C9E493A3F8E493A34003F68001F28D
:100BC10008DFF48029E493A3F85407240CC8C33345
:100BD100C4540F4420C8834004F456800146F6DF14
:100BE100E4800B0102040810204080901195E47EFE
:100BF100019360BCA3FF543F30E509541FFEE49309
:100C0100A360010ECF54C025E060A840B8E493A3CF
:100C1100FAE493A3F8E493A3C8C582C8CAC583CAFA
:100C2100F0A3C8C582C8CAC583CADFE9DEE780BEB2
:0111C000002E
:00000001FF
