:10117D00053D00000000CD053800000000AB1865EE
:10118D005E6CA774FDE3DFBCF7DA4A4F652D6EF098
:08119D00FFA6E65A8482664FAA
:1006E300120ECF1210F91214B07B007A0079147530
:1006F30024007525047F007EFA1212437A00797D67
:100703007524007525107F047EFA1212437E007F44
:1007130014BE6807BF0904D29380FC783D7C007D3A
:10072300007B007A0079147E007F041201D07838B0
:100733007C007D007B007A0079147E007F04120127
:10074300D0120D127527007528007529007B007AD9
:1007530000797D7D04E4FF1215FA7F007E031216F3
:100763000830832E30812BE4F5187F64FE1213F7D3
:10077300120F4A120F857B007A007918120988E557
:10078300186006C291C2938004D291D29312136D62
:10079300804775220075230075241A7B007A00793F
:1007A300191200037B017A00792812102C7B017A3D
:1007B300007920AD191212E3752201752300752407
:1007C300207B017A007910120AE37B017A00791009
:1007D300AD1A121096B291B2931215D412155C8011
:0107E3008095
:10136D0020830330810C1215D47F327E001213F7C7
:09137D0080EE7F647E000213F78C
:100988008B1F8A208921E5437003020A39900034BD
:10099800E064AB6003020A39787D7C00FD7B017A54
:1009A800007920FE7F101201D0783D7C007D007B0D
:1009B800017A0079307E007F041201D078387C00FB
:1009C8007D007B017A0079307E007F041201D07FA0
:1009D8002112140B7B017A007930752700752804E1
:1009E8007F007EFA120E3E7B017A0079207527007F
:1009F8007528107F047EFA120E3E752700752800B0
:100A08007529007B007A00797D7D04E4FF1215FAD0
:100A18007B007A00793D7F06120F0D7B007A007902
:100A280038E4FF120F0DAB1FAA20A9217401120090
:020A3800B422E6
:100F85007F011212A77F01121289D2E8E4F543E529
:100F9500437018308315308112B291A291B39293A8
:100FA5001215D47FFAFE1213F780E4C2E8E4FF12AB
:090FB50012A77D10E4FF0215E50E
:100F4A007E007F047D007B007A00793D1200E87EF6
:100F5A00007F047D007B007A0079381200E87B006C
:100F6A007A00793D7F06120F0D7B007A007938E40A
:0B0F7A00FF120F0D7D15E4FF0215E5CE
:101096008D1F7D101215ECAF1F1212C5E51F6403DC
:1010A6006003D38001C392907F011212A7E4FF125E
:1010B6001289D2E8754201E54270FCC2E8FF1212BD
:0410C600A7D29022FB
:1012E3008B1F8A208921ED75F008A42465F9E4FA9F
:0D12F300FBA821AC20AD1FFE7F080201D03A
:100003008B1F8A208921E41200B4AB22AA23A924DE
:100013001200B420830330812D7F0A7E001213F770
:1000230030810AAB1FAA20A92174028016308316DF
:10003300AB1FAA20A92174011200B4AB22AA23A9E1
:070043002474031200B42233
:06102C008B1F8A208921C0
:101032007E087F01121546AF061EEF601D12146C6A
:10104200EF60FA121636AB1F0521E521AA207002C5
:0F105200052014F9EF1200B480DDE4FF0215460B
:100ECF00E4FFEFFD3395E0FCC3ED9408EC648094F0
:100EDF0080500AEF2470F59EF59F0F80E575930BF8
:100EEF00E4F594759F03F59F759E11759E13F5801C
:0D0EFF00F59075CF0BF5AED290C291C29365
:010F0C0022C2
:100D12007F021211277F011210CA7F0512139F7DD5
:100D22000F7C007F0F1212677F6E1213E27B007A34
:100D320000793D7F06120F0D7D10E4FF1215E57D4F
:100D420001E4FF120DE47B007A007938E4FF120F10
:100D52000D7D017F04120D7C7D017F05120D7C7DCE
:100D6200017F06120D7C7F011211F77F0412147E9F
:0A0D72007F0512147E7F0602147E36
:1010F900E4FF12153B0F12150E7F031214DC74FF67
:10110900FFFE12145A7F0112153BE5AD548064802D
:0E11190060F8E5AD5480648070F875B8282247
:0F14B000121525EF640270F8D2EAD2B9D2AF223A
:0A155C0075A40475A407E4F5A422A9
:03006B0002004A46
:01004A003283
:03005B0002005A46
:01005A003273
:03004B00020C9D07
:100C9D00C0E0C0F0C083C082C085C084C0867586A8
:100CAD0000C0D075D000C000C001C002C003C00498
:060CBD00C005C006C007DF
:100CC30012004EEF24F0600A24D0600E2420701E20
:100CD30080031215C0754200801412157AEF700B51
:0E0CE3007B017A00792012162A80EF754301FA
:100CF100D007D006D005D004D003D002D001D00057
:100D0100D0D0D086D084D085D082D083D0F0D0E02E
:010D110032AF
:0A1566008FE7E5E630E1FBAFE72276
:021289008F20B4
:10128B00E4FF1213398F21E520640170054321011E
:0C129B0080035321FEAD21E4FF0213008C
:0212A7008F2096
:1012A900E4FF1213398F21E52064017005432102FF
:0C12B90080035321FDAD21E4FF0213006F
:0210CA008F1F76
:1010CC00E4FF1213398F20E51F14600C14601124F7
:1010DC000270135320F7800E4320085320FB800628
:0D10EC00432008432004AD20E4FF02130060
:040D7C008F1F8D2018
:100D8000E4FF1213398F21E51F24FB601E1460332A
:100D900024027049E52060047F0080027F01EF5447
:100DA00001C454F0FFE52154EF802FE52060047F5B
:100DB0000080027F01EF5401C43354E0FFE5215469
:100DC000DF8017E52060047F0080027F01EF54017F
:100DD000C4333354C0FFE52154BF4FF521AD21E4A6
:040DE000FF021300FB
:0B004E007D707F07121300EF5470FF5D
:010059002284
:101386007D707F07121300EF5470F5617F0712130B
:0813960039EF540F4261AF6111
:01139E00222C
:10147E00A8077401088002C333D8FCFD7F0702134E
:01148E00005D
:0815DD001215CAEF5470FF2241
:040DE4008F1F8D20B0
:100DE8007F021213398F217F011213398F22E51FD9
:100DF80024FA500624076021802EAF1FA80774012B
:100E0800088002C333D8FCFF4221E5206005EF4289
:100E1800228015EFF45222800F75213FE5206005EE
:100E280075223F8003E4F522AD217F02121300AD45
:060E3800227F01021300FD
:020E8C008F567F
:100E8E007F021213398F577F011213398F58E5568F
:100E9E0024FA5006240760168019AF56A80774016D
:100EAE00088002C333D8FCF4525752588005E4F53B
:100EBE0057F558AD577F02121300AD587F0102133C
:010ECE000023
:100F0D008F228B238A248925E52214600A24FB5025
:100F1D00196004240670251215708F2AE522242AE3
:100F2D00FFAB23AA24A925020A3AE522240AFFAB26
:0D0F3D0023AA24A92512006EFD1213002224
:101061008F4E8B4F8A508951E54E14600824FB60E6
:10107100042406700BAB4FAA50A951AF4E02037D59
:10108100E54E240AFF121339AB4FAA50A951EF12B2
:0510910000B47F012204
:02126700AB07D3
:10126900EC540FC454F0FFE51F540F4FF51FEB5416
:101279000FFFE51F54F04FF51FAD1F7F0402130048
:10139F00E4F51FEF24FE5403FFE51F54FC4FF51F28
:0713AF00AD1F7F03021300D4
:0A1570007F03121339EF2402FF225B
:0715E500EF2411FF021300C7
:020B81008F449F
:100B83007F021213398F457F011213398F46E544D3
:100B930014601A14602714603414604314604E24E4
:100BA30005705EE5455401F547E546804EAF45EFD8
:100BB300C3135401F547AF46EFC313803EAF45EF70
:100BC30013135401F547AF46EF1313802EAF45EFD0
:100BD3001313135401F547AF46EF131313801CAFE0
:100BE30045EFC45401F547AF46EFC4800EAF45EF60
:100BF300C4135401F547AF46EFC4135401F54880BD
:0D0C030005E4F547F548E54825E02547FFE5
:010C100022C1
:05161B007F08021339F5
:1013B6007F08121339EF54F0FFE4C4F854F0C8EF75
:0613C600C4540F48FF2291
:100FBE00EF14601414601514601614601714601882
:100FCE002405701D7F1180127F12800E7F13800A00
:100FDE007F1480067F1580027F161213398F628070
:060FEE0003E4F562AF62AE
:010FF40022DA
:1013E200E4F51FEF547FFFE51F54804FF51FAD1F3B
:0513F2007F050213005D
:0212C5008F2078
:1012C7007F061213398F21E520540325E0FFE5211E
:0C12D70054F94FF521AD217F06021300F1
:021127008F1F18
:101129007F061213398F20E51F600924FE700D43D5
:10113900202080035320DF5320F780065320DF430C
:091149002008AD207F060213000E
:0A157A007F17121339EF5401FF220E
:0C005E007F17121339EFC3135401FF2267
:0B151A007F17121339EFC45401FF22A9
:0C14EA007F17121339EFC4135401FF22C6
:1013CC007F17121339EF5430FFE4C4F854F0C8EF10
:0613DC00C4540F48FF227B
:0A1584007F17121339EF5403FF2202
:051620007F17021339E1
:0A158E007F08121339EF540FFF22FB
:0A1598007F09121339EF5401FF22FE
:01006A002273
:0C14F600EF543FF563AD637F1C02130050
:0211A6008F595F
:1011A8007F1D1213398F5AE55960047F0180027F31
:1011B80000EF540125E025E0FFE55A54FB4FF55AAE
:0711C800AD5A7F1D02130068
:0211F7008F1F48
:1011F9007F1D1213398F20E51F60047F0180027F54
:1012090000EF540125E0FFE52054FD4FF520AD2006
:051219007F1D0213001F
:02121E008F5BE4
:101220007F1D1213398F5CE55B60047F0180027FB4
:1012300000EF5401FFE55C54FE4FF55CAD5C7F1D93
:0312400002130096
:0715EC008D2A7FA0020A3ADC
:0715F3008D2A7FB0020A3AC5
:0A15A200EF44A8FF854D2A020A3A23
:051625007F6002133993
:05162A007F0802037DB2
:0E14CE001215CAEF540EFFE4C313EF13FF22F2
:0A15AC00C2E97FE3121566D2E922BE
:101447001216207E00EF54407806CEC313CE13D871
:03145700F9FF2278
:0A15B600C2E97FE2121566D2E922B5
:0A15C000C2E97FE1121566D2E922AC
:0915CA00C2E97FFF121566D2E9A7
:0115D30022F5
:0211CF008F5D32
:1011D1007F061213398F5EE55D60047F0180027F17
:1011E10000EF5401C454F0FFE55E54EF4FF55EADDE
:0611F1005E7F0602130000
:021152008F5FAD
:101154007F061213398F60E55F60047F0180027F90
:1011640000EF5401C43333335480FFE560547F4FA0
:09117400F560AD607F0602130076
:10133900C2E98FE7E5E6540260FAAFE7E4F5E7E5CD
:09134900E6540260FAAFE7D2E9B4
:011352002278
:10130000C2E9EF2420F5E7E5E6540260FAAFE78D85
:0C131000E7E5E6540260FA85E764D2E9E4
:01131C0022AE
:08037D008F088B098A0A890B25
:1003850075100185090EE50814600C24FB6008242E
:10039500FE60142408702E1215708F0C8F0DC2E9A3
:1003A500E508240AFF80191214CE8F08C3EF9407BD
:1003B500E4940050101216258F0C8F0DC2E97F6151
:1003C5001215668005E4F50DF50CAF0E7E00EF7095
:0103D50028FF
:1003D600850B11E4F5E7E5107008A811A60F0511C5
:1003E6008003E4F510E5E6540260FA85E70FD50CC4
:0503F600E2A811A60FB2
:0903FB000204AFEF64014E703AF8
:10040400850A11850B12E4F5E7E510701385128255
:10041400851183E50FF00512E512700705118003BD
:10042400E4F510E5E6540260FA85E70FD50CD785AC
:080434001282851183E50FF02F
:08043C008071E50E64FE7029D9
:10044400850B11E4F5E7E5107009A811E50FF20535
:10045400118003E4F510E5E6540260FA85E70FD550
:070464000CE1A811E50FF205
:02046B008042CD
:10046D00850911850A12850B13E4F5E7E51070185F
:10047D00AB11AA12A913E50F1200B474012513F5DF
:10048D0013E43512F5128003E4F510E5E65402602D
:10049D00FA85E70FD50CD2AB11AA12A913E50F12ED
:0204AD0000B499
:0804AF00D2E9E508FEE50DFFAE
:0104B7002222
:060A3A008B278A288929A0
:090A4000AD27C2E98FE7ED701942
:100A490085292CA82CE6FE052CE5E6540260FA85DA
:070A5900E72B8EE7D52AEC24
:070A60008075ED64017026B2
:100A670085282C85292D852D82852C83E0FE052D53
:100A7700E52D7002052CE5E6540260FA85E72B8E1A
:040A8700E7D52AE2A3
:070A8B00804AED64FE7019C2
:100A920085292CA82CE2FE052CE5E6540260FA8595
:070AA200E72B8EE7D52AECDB
:020AA900802C9F
:100AAB0085272C85282D85292EAB2CAA2DA92E1216
:100ABB00006EFE7401252EF52EE4352DF52DE5E6A1
:0C0ACB00540260FA85E72B8EE7D52ADD87
:0B0AD700E5E6540260FA85E72BD2E947
:010AE20022F1
:1014A000EF6009E5A3448054F7F5A32253A3772204
:10148F00EF5401C4333354C0FFE5A354B74FF5A352
:01149F00222A
:0F14BF00EF5403C454F0FFE5A354C74FF5A32225
:0A152500E5AD30E3037F02227F01F1
:01152F002299
:0C150200EF5407FFE5A354F04FF5A322BF
:06160F00E5AD5480FF224E
:06161500E5AD5440FF2288
:0C150E00EF5407FFE5AD54F84FF5AD2297
:0B1353007FFA7E0012135E7FFA7E001E
:0F135E000000000000EF1F70011E144E70F222FD
:1013F700AD07AC06121353121353ED1D70011C14E5
:041407004C70F12212
:1005D800637C777BF26B6FC53001672BFED7AB76F8
:1005E800CA82C97DFA5947F0ADD4A2AF9CA472C0A3
:1005F800B7FD9326363FF7CC34A5E5F171D8311510
:1006080004C723C31896059A071280E2EB27B27530
:1006180009832C1A1B6E5AA0523BD6B329E32F84A8
:1006280053D100ED20FCB15B6ACBBE394A4C58CFA0
:10063800D0EFAAFB434D338545F9027F503C9FA874
:1006480051A3408F929D38F5BCB6DA2110FFF3D242
:10065800CD0C13EC5F974417C4A77E3D645D1973F6
:1006680060814FDC222A908846EEB814DE5E0BDBF0
:10067800E0323A0A4906245CC2D3AC629195E47927
:10068800E7C8376D8DD54EA96C56F4EA657AAE0881
:10069800BA78252E1CA6B4C6E8DD741F4BBD8B8A1C
:1006A800703EB5664803F60E613557B986C11D9E82
:1006B800E1F8981169D98E949B1E87E9CE5528DFF9
:1006C8008CA1890DBFE6426841992D0FB054BB1625
:0B06D8008D01020408102040801B363A
:0715FA008F228D23020FF583
:060AE3008B1F8A2089210F
:100AE900E4F535C3E535941074809480501BAB222E
:100AF900AA23A924853582758300120087FF7425EE
:100B09002535F8A607053580DA75DE02E4F535C323
:100B1900E53594097480948050137F251204B87FB9
:100B2900251201F6AF351208D2053580E27F25126C
:100B390004B87F091208D27F251207E4E4F535C30A
:100B4900E535941074809480502D74352535F582DF
:100B5900E43400F583E0FF74002535F8EFF27425DD
:100B69002535F8E6AB1FAA20A921853582758300B2
:070B79001200C6053580C81B
:010B80002252
:060FF5008B2A8A2B892CD7
:100FFB00E4FFEFC39410748094805024AB2AAA2B87
:10100B00A92C8F82758300120087FE74002FF8EED7
:10101B00F274352FF582E43400F583EEF00F80D2B5
:01102B0022A2
:1007E400A807C000E6FE7800E26ED000F6EF04F839
:1007F400C000E6FE7801E26ED000F6EF2402F8C0F5
:1008040000E6FE7802E26ED000F6EF2403F8C000A2
:10081400E6FE7803E26ED000F6EF2404F8C000E6AA
:10082400FE7804E26ED000F6EF2405F8C000E6FE80
:100834007805E26ED000F6EF2406F8C000E6FE78F4
:1008440006E26ED000F6EF2407F8C000E6FE780753
:10085400E26ED000F6EF2408F8C000E6FE7808E265
:100864006ED000F6EF2409F8C000E6FE7809E26EC7
:10087400D000F6EF240AF8C000E6FE780AE26ED053
:1008840000F6EF240BF8C000E6FE780BE26ED00011
:10089400F6EF240CF8C000E6FE780CE26ED000F609
:1008A400EF240DF8C000E6FE780DE26ED000F6EFFE
:1008B400240EF8C000E6FE780EE26ED000F6EF24B7
:0E08C4000FF8C000E6FF780FE26FD000F622BA
:1008D200780DE29005D893FE7800E2FDEE6DFEEF12
:1008E2009006D9936EF2780EE29005D893FF7801C4
:1008F200E2FEEF6EF2780FE293FF7802E2FEEF6E15
:10090200F2780CE293FF7803E2FEEF6EF208E2FF68
:100912007800E26F7804F208E2FF7801E26F78056E
:10092200F208E2FF7802E26F7806F208E2FF78034B
:10093200E26F7807F208E2FF7804E26F7808F208C3
:10094200E2FF7805E26F7809F208E2FF7806E26FCB
:10095200780AF208E2FF7807E26F780BF208E2FF0A
:100962007808E26F780CF208E2FF7809E26F780DFE
:10097200F208E2FF780AE26F780EF208E2FF780BE3
:06098200E26F780FF22283
:1004B800A807E6FE7800E26E9005D893A807F6E84C
:1004C8002404F8E6FE7804E26E93FEEF2404F8A60E
:1004D80006EF2408F8E6FE7808E26E93FEEF24089B
:1004E800F8A606EF240CF8E6FE780CE26E93FEEF11
:1004F800240CF8A606EF04F8E6FE7801E26E93F500
:1005080036EF2405F8E6FE7805E26E93FEEF04F870
:10051800A606EF2409F8E6FE7809E26E93FEEF24BA
:1005280005F8A606EF240DF8E6FE780DE26E93FEB8
:10053800EF2409F8A606EF240DF8A636EF2402F8F2
:10054800E6FE7802E26E93F536EF2406F8E6FE78CA
:1005580006E26E93F537EF240AF8E6FE780AE26EB3
:1005680093FEEF2402F8A606EF240EF8E6FE780EB6
:10057800E26E93FEEF2406F8A606EF240AF8A636E4
:10058800EF240EF8A637EF240FF8E6FE780FE26E98
:1005980093F536EF240BF8E6FE780BE26E93FEEF48
:1005A800240FF8A606EF2407F8E6FE7807E26E9314
:1005B800FEEF240BF8A606EF2403F8E6FE7803E224
:0F05C8006E93FEEF2407F8A606EF2403F8A6367D
:0105D7002201
:1001F600EF2402F8E6FEEF2403F8E66EFEEF04F8BD
:10020600E6FD6EFEA807E6FC6EFEAB04EC6DF5DDC2
:10021600ADDFED6EFDE66DF6E82402F8E6FDEF04CF
:10022600F8E6FC6DF5DDADDFED6E6CF6EF2403F858
:10023600E6FDEF2402F8E6FC6DF5DDADDFED6E6C54
:10024600F6EF2403F8E6FC6BF5DDADDFED6E6CF63C
:10025600EF2406F8E6FEEF2407F8E66EFEEF240527
:10026600F8E6FD6EFEEF2404F8E6FC6EFEAB04EC49
:100276006DF5DDADDFED6E6CF6EF2406F8E6FDEF0D
:100286002405F8E6FC6DF5DDADDFED6E6CF6EF24CA
:1002960007F8E6FDEF2406F8E6FC6DF5DDADDFEDCB
:1002A6006E6CF6EF2407F8E6FC6BF5DDADDFED6E60
:1002B6006CF6EF240AF8E6FEEF240BF8E66EFEEF86
:1002C6002409F8E6FD6EFEEF2408F8E6FC6EFEABA8
:1002D60004EC6DF5DDADDFED6E6CF6EF240AF8E6A5
:1002E600FDEF2409F8E6FC6DF5DDADDFED6E6CF68D
:1002F600EF240BF8E6FDEF240AF8E6FC6DF5DDAD1C
:10030600DFED6E6CF6EF240BF8E6FC6BF5DDADDF8A
:10031600ED6E6CF6EF240EF8E6FEEF240FF8E66EAF
:10032600FEEF240DF8E6FD6EFEEF240CF8E66EFEF9
:10033600E6FB6DF5DDADDFED6EFDE66DF6EF240E49
:10034600F8E6FDEF240DF8E6FC6DF5DDADDFED6EAC
:100356006CF6EF240FF8E6FDEF240EF8E6FC6DF5DB
:10036600DDADDFED6E6CF6EF240FF8E6FC6BF5DD28
:06037600ADDFED6E6CF638
:01037C00225E
:10140B00A2AF92D5C2AFD2FD8FFA20FCFDC2FDA2D6
:04141B00D592AF2295
:10131D00A2AF92D5C2AFD2FD8E528F538F828E83E4
:0B132D00EDF020FCFDC2FDA2D592AF48
:011338002292
:060E3E008B248A258926A1
:100E4400A2AF92D5C2AFD2FD8E548F55E528152896
:100E5400AE27700215274E6028AB240526E526AA86
:100E6400257002052514F912006EFF0555E555ACF1
:100E7400547002055414F5828C83EFF030FCCD805D
:070E8400FBC2FDA2D592AFF5
:010E8B002244
:061601008F828E83E0FFE2
:0116070022C0
:10124300E5251525AC24700215244C60168F828E7B
:1012530083E01200B40FBF00010E740129F9E43AD0
:03126300FA80DD31
:011266002265
:07160800EFF5AFEEF5AF2294
:0815D400AFAFAEAF8FAF8EAFD9
:0115DC0022EC
:04162F0043B310228F
:0B153000EF600443B3082253B3F7221E
:0E14DC00EF25E05406FFE5B354F94FF5B322B7
:0B153B00EF600443B3012253B3FE2213
:10145A00E5B35406FD53B3F9EFF5B4EEF5B5ED4235
:01146A00B3CE
:01146B00225E
:10141F00E5B35406FD53B3F9AFB5EFFEACB4ECFF33
:03142F00ED42B3D8
:011432002297
:10143300E5B35408FD53B3F7AFABEFFEACB6ECFF27
:03144300ED42B3C4
:011446002283
:03163300AFAC2237
:0B154600EF600443D6802253D67F22C2
:0B155100EF600443D6402253D6BF22B7
:03163600AFD72209
:10146C00E5D65420D39400E4940040037F01227FFE
:02147C0000224C
:03000000020C11DE
:0C0C1100787FE4F6D8FD75818C020C5849
:10006E00BB010689828A83E0225002E722BBFE0290
:09007E00E32289828A83E49322C3
:10008700BB010CE58229F582E5833AF583E022502E
:1000970006E92582F8E622BBFE06E92582F8E22278
:0D00A700E58229F582E5833AF583E4932292
:1000B400BB010689828A83F0225002F722BBFE012B
:0200C400F32225
:1000C600F8BB010DE58229F582E5833AF583E8F070
:1000D600225006E92582C8F622BBFE05E92582C81C
:0200E600F22204
:1000E800EF4E6012EF60010EEDBB010B89828A832F
:1000F800F0A3DFFCDEFA2289F05007F709DFFCA93C
:0C010800F022BBFEFCF309DFFCA9F02292
:10011400E709F608DFFA8046E709F208DFFA803ECD
:1001240088828C83E709F0A3DFFA8032E309F608BA
:10013400DFFA806EE309F208DFFA806688828C8336
:10014400E309F0A3DFFA805A89828A83E0A3F608E0
:10015400DFFA804E89828A83E0A3F208DFFA8042C4
:1001640080D280FA80C680D4805580F280298010A5
:1001740080A680EA809A80A880DA80E280CA8029FA
:1001840088848C8589828A83E493A30586F0A305F9
:1001940086DFF5DEF3800B89828A83E493A3F60875
:1001A400DFF9ECFAA9F0EDFB2288848C8589828A38
:1001B40083E0A30586F0A30586DFF6DEF480E389F9
:1001C400828A83E493A3F208DFF980D688F0EF6093
:1001D400010E4E60CD88F0ED2402B4040050C3F546
:1001E40082EB2402B4040050B923234582239001F6
:0201F400647332
:100C1D000206E3E493A3F8E493A34003F68001F204
:100C2D0008DFF48029E493A3F85407240CC8C333D8
:100C3D00C4540F4420C8834004F456800146F6DFA7
:100C4D00E4800B010204081020408090117DE47EA9
:100C5D00019360BCA3FF543F30E509541FFEE4939C
:100C6D00A360010ECF54C025E060A840B8E493A363
:100C7D00FAE493A3F8E493A3C8C582C8CAC583CA8E
:100C8D00F0A3C8C582C8CAC583CADFE9DEE780BE46
:0111A5000049
:00000001FF
