:1011B300013B00053500000000CD053000000000B4
:1011C300AB18615E6CA774FDE3DFBCF7DA4A4F65C9
:0B11D3002D6EF0FFA6E65A8482664FE6
:1007E200E4F514120F261211851215B0120D7F12A4
:1007F2000C487F007E0312170830840630860302FD
:1008020008917F647E001214E7208424208621123E
:100812000FA3120DE0EF60071211DFE4FF80027FE9
:100822000112149012134312108212104C0208B1DA
:10083200208426121082E47BB87A0BF9F8C31200E6
:10084200E8500EE51470047F0180027F008F14804F
:100852005E7B057D037F01802F20865312104CE4BE
:100862007BB87A0BF9F8C31200E8500EE53B70042E
:100872007F0180027F008F3B80357F0A120D18EFC7
:10088200602D7B017D027F021211227F1480177F6F
:100892000A120D18EF60187B017D02E4FF1211228B
:1008A200E514600B7F0A7E007D007C001214471263
:0808B20016D412165C0207FBCC
:101447008F188E178D168C157F01121490AE17AF5B
:09145700181214E7E4FF021490DE
:10159000E53B6005A282B38003A283B3E433FF225C
:10149000E53B6009EF24FFB39282D28322EF24FF61
:0614A000B39283D2822208
:101122008D158B16E53B702B7B017A007920AD077C
:101132001213BD751A01751B00751C207B017A0004
:101142007910120A197B017A00791085161BAD15E8
:04115200120EE42273
:100EE4008D1AE53B703B7D101216ECAF1A12139F5E
:100EF400E4FF121363E51A64036003D38001C39211
:100F0400947F01121381AF1B151BEF600DD2E8759E
:100F14003A01E53A70FCC2E880ECE4FF121381D296
:020F2400942215
:100DE000E53B60037F00227F011213817F01121314
:100DF00063D2E8E4F53CE53C702120841E20861B8C
:100E0000121590EF70047F0180027F00121490127F
:100E100016D47F647E001214E780DBC2E8E4FF1280
:100E200013817D10E4FF1216E5E53C600C90003460
:0C0E3000E064AB70047F0180027F0022B0
:020D18008F1535
:100D1A00E4F519F518F517F516E53B60037F00228F
:100D2A007F011213817F01121363D2E8E4F53CE5D7
:100D3A003C7031AF15FCFDFEAB19AA18A917A8160D
:100D4A00C31200E8501E7F017E001214E7E5192441
:100D5A0001F519E43518F518E43517F517E43516D1
:100D6A00F51680CBC2E8E4FF1213817D10E4FF126E
:040D7A0016E5AF3C8F
:010D7E002252
:100FA3007E007F047D007B007A0079351200F97E94
:100FB300007F047D007B007A0079301200F97B000A
:100FC3007A0079357F06120F667B007A007930E468
:0B0FD300FF120F667D15E4FF0216E51B
:10134300120D7F7B007A0079357F06120F667B00D2
:101353007A007930E4FF120F667D10E4FF0216E590
:1013BD008B178A188919ED75F008A42461F9E4FAE0
:0D13CD00FBA819AC18AD17FE7F080201E166
:0610B8008B4F8A508951A4
:1010BE007E087F01121646AF061EEF601D12155CEC
:1010CE00EF60FA121731AB4F0551E551AA5070027D
:0F10DE00055014F9EF1200B480DDE4FF0216464E
:10104C00E4F518F517F516F5152086211216D47F40
:10105C00327E001214E7E5182432F518E43517F542
:10106C0017E43516F516E43515F51580DCAF18AE1A
:05107C0017AD16AC15D4
:01108100224C
:10108200E4F518F517F516F5152084211216D47F0C
:10109200327E001214E7E5182432F518E43517F50C
:1010A20017E43516F516E43515F51580DCAF18AEE4
:0510B20017AD16AC159E
:0110B7002216
:1011DF007F201214FB7B017A007930751A00751B82
:1011EF00047F007EFA120E967B017A007920751A21
:0B11FF0000751B107F047EFA020E96A4
:100D7F007515047B007A007916751F008515207F85
:100D8F00007EFA1212FD7A007979751F0075201016
:100D9F007F047EFA1212FDAF157E0078357C007D40
:100DAF00007A0079161201E1AF157E0078307C00D1
:100DBF007D007B007A0079161201E1751F00752006
:100DCF00007521007B007A0079797D04E4FF02161B
:010DDF00FA19
:100F2600E4FFEFFD3395E0FCC3ED9408EC64809498
:100F360080500AEF2470F59EF59F0F80E57593505B
:100F4600E4F594759E03759E02759E56759E5475BE
:0F0F56009F047580FFF590F5CFD294D282D2839D
:010F65002269
:100C48007F0212120A7F011211567F05121479E4ED
:100C5800FDFCFF1213217F6E1214D27B007A0079FB
:100C6800357F06120F667D10E4FF1216E57D01E45C
:100C7800FF120E3C7B007A007930E4FF120F667D8C
:100C8800017F04120CB07D017F05120CB07D017F3D
:100C980006120CB07F011212B17F0412156E7F0587
:080CA80012156E7F0602156EA5
:10118500E4FF12163B0F12160E7F031215DC7FFFCC
:101195007E7F12154A7F0112163BE5AD54806480AF
:0E11A50060F8E5AD5480648070F875B82822BB
:0F15B000121625EF640270F8D2EAD2B9D2AF2238
:0A165C0075A40475A407E4F5A422A8
:03006B0002005A36
:01005A003273
:03005B0002006A36
:01006A003263
:03004B00020BD3D2
:100BD300C0E0C0F0C083C082C085C084C086758673
:100BE30000C0D075D000C000C001C002C003C00463
:060BF300C005C006C007AA
:100BF90012004EEF24F0600A24D0600E2420701EEB
:100C090080031216C0753A00801412167AEF700B21
:0E0C19007B017A00792012172580EF753C01CF
:100C2700D007D006D005D004D003D002D001D00021
:100C3700D0D0D086D084D085D082D083D0F0D0E0F9
:010C4700327A
:0A1666008FE7E5E630E1FBAFE72275
:021363008F1CDD
:10136500E4FF1214138F1DE51C64017005431D0174
:0C1375008003531DFEAD1DE4FF0213DADF
:021381008F1CBF
:10138300E4FF1214138F1DE51C64017005431D0255
:0C1393008003531DFDAD1DE4FF0213DAC2
:021156008F15F3
:10115800E4FF1214138F16E51514600C14601124A3
:101168000270135316F7800E4316085316FB8006B9
:0D117800431608431604AD16E4FF0213DA17
:040CB0008F158D16F9
:100CB400E4FF1214138F17E51524FB601E14603330
:100CC40024027049E51660047F0080027F01EF541E
:100CD40001C454F0FFE51754EF802FE51660047F3C
:100CE4000080027F01EF5401C43354E0FFE5175440
:100CF400DF8017E51660047F0080027F01EF540156
:100D0400C4333354C0FFE51754BF4FF517AD17E490
:040D1400FF0213DAED
:0B004E007D707F071213DAEF5470FF83
:010059002284
:101460007D707F071213DAEF5470F55D7F07121459
:0814700013EF540F425DAF5D64
:011478002251
:10156E00A8077401088002C333D8FCFD7F0702135D
:01157E00DA92
:0816DD001216CAEF5470FF223F
:040E3C008F158D166B
:100E40007F021214138F177F011214138F18E515E8
:100E500024FA500624076021802EAF15A8077401DC
:100E6000088002C333D8FCFF4217E5166005EF4245
:100E7000188015EFF45218800F75173FE5166005BE
:100E800075183F8003E4F518AD177F021213DAAD31
:060E9000187F010213DAD5
:020003008F521A
:100005007F021214138F537F011214138F54E5527C
:1000150024FA5006240760168019AF52A807740108
:10002500088002C333D8FCF4525352548005E4F5DA
:1000350053F554AD537F021213DAAD547F01021309
:01004500DAE0
:100F66008F158B168A178918E51514600A24FB500D
:100F7600196004240670251216708F20E515242AA0
:100F8600FFAB16AA17A918020970E515240AFFABCC
:0D0F960016AA17A91812006EFD1213DA2218
:1010ED008F478B488A49894AE54714600824FB607D
:1010FD00042406700BAB48AA49A94AAF4702038ED8
:10110D00E547240AFF121413AB48AA49A94AEF1266
:05111D0000B47F012277
:02132100AB0718
:10132300EC540FC454F0FFE515540F4FF515EB546F
:101333000FFFE51554F04FF515AD157F040213DAD1
:10147900E4F515EF24FE5403FFE51554FC4FF5156B
:07148900AD157F030213DA29
:0A1670007F03121413EF2402FF227F
:0716E500EF2411FF0213DAEC
:020AB7008F3D71
:100AB9007F021214138F3E7F011214138F3FE53DFD
:100AC90014601A14602714603414604314604E24AF
:100AD90005705EE53E5401F540E53F804EAF3EEFBF
:100AE900C3135401F540AF3FEFC313803EAF3EEF50
:100AF90013135401F540AF3FEF1313802EAF3EEFB0
:100B09001313135401F540AF3FEF131313801CAFB8
:100B19003EEFC45401F540AF3FEFC4800EAF3EEF46
:100B2900C4135401F540AF3FEFC4135401F541809C
:0D0B390005E4F540F541E54125E02540FFCC
:010B4600228C
:050046007F0802141305
:1014A6007F08121413EF54F0FFE4C4F854F0C8EFA9
:0614B600C4540F48FF22A0
:100FDE00EF14601414601514601614601714601862
:100FEE002405701D7F1180127F12800E7F13800AE0
:100FFE007F1480067F1580027F161214138F5E8079
:06100E0003E4F55EAF5E95
:0110140022B9
:1014D200E4F515EF547FFFE51554804FF515AD1572
:0514E2007F050213DA92
:02139F008F1CA1
:1013A1007F061214138F1DE51C540325E0FFE51D74
:0C13B10054F94FF51DAD1D7F060213DA44
:02120A008F153E
:10120C007F061214138F16E515600924FE700D432A
:10121C00162080035316DF5316F780065316DF4350
:09122C001608AD167F060213DA64
:0A167A007F17121413EF5401FF2232
:0C005E007F17121413EFC3135401FF228C
:0B161A007F17121413EFC45401FF22CD
:0C15EA007F17121413EFC4135401FF22EA
:1014BC007F17121413EF5430FFE4C4F854F0C8EF44
:0614CC00C4540F48FF228A
:0A1684007F17121413EF5403FF2226
:05171B007F170214130A
:0A168E007F08121413EF540FFF221F
:0A1698007F09121413EF5401FF2222
:011734002292
:0C15F600EF543FF55FAD5F7F1C0213DA7D
:021260008F55A8
:101262007F1D1214138F56E55560047F0180027FA3
:1012720000EF540125E025E0FFE55654FB4FF556FB
:07128200AD567F1D0213DAD7
:0212B1008F1597
:1012B3007F1D1214138F16E51560047F0180027FD2
:1012C30000EF540125E0FFE51654FD4FF516AD166A
:0512D3007F1D0213DA8B
:0212D8008F572E
:1012DA007F1D1214138F58E55760047F0180027F27
:1012EA0000EF5401FFE55854FE4FF558AD587F1DE5
:0312FA000213DA02
:0716EC008D207FA0020970B0
:0716F3008D207FB002097099
:0A16A200EF44A8FF854620020970FE
:051720007F60021413BC
:051725007F0802038EA5
:0E15CE001216CAEF540EFFE4C313EF13FF22F0
:0A16AC00C2E97FE3121666D2E922BC
:1015370012171B7E00EF54407806CEC313CE13D884
:03154700F9FF2287
:0A16B600C2E97FE2121666D2E922B3
:0A16C000C2E97FE1121666D2E922AA
:0916CA00C2E97FFF121666D2E9A5
:0116D30022F4
:021289008F597B
:10128B007F061214138F5AE55960047F0180027F89
:10129B0000EF5401C454F0FFE55A54EF4FF55AAD2B
:0612AB005A7F060213DA6F
:021235008F5BCD
:101237007F061214138F5CE55B60047F0180027FD9
:1012470000EF5401C43333335480FFE55C547F4FC0
:09125700F55CAD5C7F060213DAC0
:10141300C2E98FE7E5E6540260FAAFE7E4F5E7E5F2
:09142300E6540260FAAFE7D2E9D9
:01142C00229D
:1013DA00C2E9EF2420F5E7E5E6540260FAAFE78DAB
:0C13EA00E7E5E6540260FA85E760D2E90E
:0113F60022D4
:08038E008F088B098A0A890B14
:1003960075100185090EE50814600C24FB6008241D
:1003A600FE60142408702E1216708F0C8F0DC2E991
:1003B600E508240AFF80191215CE8F08C3EF9407AB
:1003C600E4940050101217208F0C8F0DC2E97F6144
:1003D6001216668005E4F50DF50CAF0E7E00EF7083
:0103E60028EE
:1003E700850B11E4F5E7E5107008A811A60F0511B4
:1003F7008003E4F510E5E6540260FA85E70FD50CB3
:05040700E2A811A60FA0
:09040C000204C0EF64014E703AD5
:10041500850A11850B12E4F5E7E510701385128244
:10042500851183E50FF00512E512700705118003AC
:10043500E4F510E5E6540260FA85E70FD50CD7859B
:080445001282851183E50FF01E
:08044D008071E50E64FE7029C8
:10045500850B11E4F5E7E5107009A811E50FF20524
:10046500118003E4F510E5E6540260FA85E70FD53F
:070475000CE1A811E50FF2F4
:02047C008042BC
:10047E00850911850A12850B13E4F5E7E51070184E
:10048E00AB11AA12A913E50F1200B474012513F5CE
:10049E0013E43512F5128003E4F510E5E65402601C
:1004AE00FA85E70FD50CD2AB11AA12A913E50F12DC
:0204BE0000B488
:0804C000D2E9E508FEE50DFF9D
:0104C8002211
:060970008B1D8A1E891F89
:09097600AD1DC2E98FE7ED701917
:10097F00851F22A822E6FE0522E5E6540260FA85CD
:07098F00E7218EE7D520EC03
:070996008075ED640170267D
:10099D00851E22851F23852382852283E0FE052364
:1009AD00E52370020522E5E6540260FA85E7218E03
:0409BD00E7D520E278
:0709C100804AED64FE70198D
:1009C800851F22A822E2FE0522E5E6540260FA8588
:0709D800E7218EE7D520ECBA
:0209DF00802C6A
:1009E100851D22851E23851F24AB22AA23A924123B
:1009F100006EFE74012524F524E43523F523E5E694
:0C0A0100540260FA85E7218EE7D520DD65
:0B0A0D00E5E6540260FA85E721D2E91B
:010A180022BB
:1015A000EF6009E5A3448054F7F5A32253A3772203
:10157F00EF5401C4333354C0FFE5A354B74FF5A361
:01158F002239
:0F15BF00EF5403C454F0FFE5A354C74FF5A32224
:0A162500E5AD30E3037F02227F01F0
:01162F002298
:0C160200EF5407FFE5A354F04FF5A322BE
:06170F00E5AD5480FF224D
:06171500E5AD5440FF2287
:0C160E00EF5407FFE5AD54F84FF5AD2296
:0B142D007FFA7E001214387FFA7E0068
:0F1438000000000000EF1F70011E144E70F22222
:1014E700AD07AC0612142D12142DED1D70011C143E
:0414F7004C70F12222
:1005E900637C777BF26B6FC53001672BFED7AB76E7
:1005F900CA82C97DFA5947F0ADD4A2AF9CA472C092
:10060900B7FD9326363FF7CC34A5E5F171D83115FE
:1006190004C723C31896059A071280E2EB27B2751F
:1006290009832C1A1B6E5AA0523BD6B329E32F8497
:1006390053D100ED20FCB15B6ACBBE394A4C58CF8F
:10064900D0EFAAFB434D338545F9027F503C9FA863
:1006590051A3408F929D38F5BCB6DA2110FFF3D231
:10066900CD0C13EC5F974417C4A77E3D645D1973E5
:1006790060814FDC222A908846EEB814DE5E0BDBDF
:10068900E0323A0A4906245CC2D3AC629195E47916
:10069900E7C8376D8DD54EA96C56F4EA657AAE0870
:1006A900BA78252E1CA6B4C6E8DD741F4BBD8B8A0B
:1006B900703EB5664803F60E613557B986C11D9E71
:1006C900E1F8981169D98E949B1E87E9CE5528DFE8
:1006D9008CA1890DBFE6426841992D0FB054BB1614
:0B06E9008D01020408102040801B3629
:0716FA008F1A8D1B02101571
:060A19008B178A188919F1
:100A1F00E4F52DC3E52D941074809480501BAB1A10
:100A2F00AA1BA91C852D82758300120087FF741DD8
:100A3F00252DF8A607052D80DA75DE02E4F52DC306
:100A4F00E52D94097480948050137F1D1204C97F83
:100A5F001D120207AF2D1208BA052D80E27F1D125D
:100A6F0004C97F091208BA7F1D1206F4E4F52DC3DD
:100A7F00E52D941074809480502D7435252DF582BA
:100A8F00E43400F583E0FF7400252DF8EFF2741DB8
:100A9F00252DF8E6AB17AA18A919852D82758300A5
:070AAF001200C6052D80C8EE
:010AB600221D
:061015008B228A238924CE
:10101B00E4FFEFC39410748094805024AB22AA2376
:10102B00A9248F82758300120087FE74002FF8EEBF
:10103B00F274352FF582E43400F583EEF00F80D295
:01104B002282
:1006F400A807C000E6FE7800E26ED000F6EF04F82A
:10070400C000E6FE7801E26ED000F6EF2402F8C0E5
:1007140000E6FE7802E26ED000F6EF2403F8C00093
:10072400E6FE7803E26ED000F6EF2404F8C000E69B
:10073400FE7804E26ED000F6EF2405F8C000E6FE71
:100744007805E26ED000F6EF2406F8C000E6FE78E5
:1007540006E26ED000F6EF2407F8C000E6FE780744
:10076400E26ED000F6EF2408F8C000E6FE7808E256
:100774006ED000F6EF2409F8C000E6FE7809E26EB8
:10078400D000F6EF240AF8C000E6FE780AE26ED044
:1007940000F6EF240BF8C000E6FE780BE26ED00002
:1007A400F6EF240CF8C000E6FE780CE26ED000F6FA
:1007B400EF240DF8C000E6FE780DE26ED000F6EFEF
:1007C400240EF8C000E6FE780EE26ED000F6EF24A8
:0E07D4000FF8C000E6FF780FE26FD000F622AB
:1008BA00780DE29005E993FE7800E2FDEE6DFEEF19
:1008CA009006EA936EF2780EE29005E993FF7801BA
:1008DA00E2FEEF6EF2780FE293FF7802E2FEEF6E2D
:1008EA00F2780CE293FF7803E2FEEF6EF208E2FF81
:1008FA007800E26F7804F208E2FF7801E26F780587
:10090A00F208E2FF7802E26F7806F208E2FF780363
:10091A00E26F7807F208E2FF7804E26F7808F208DB
:10092A00E2FF7805E26F7809F208E2FF7806E26FE3
:10093A00780AF208E2FF7807E26F780BF208E2FF22
:10094A007808E26F780CF208E2FF7809E26F780D16
:10095A00F208E2FF780AE26F780EF208E2FF780BFB
:06096A00E26F780FF2229B
:1004C900A807E6FE7800E26E9005E993A807F6E82A
:1004D9002404F8E6FE7804E26E93FEEF2404F8A6FD
:1004E90006EF2408F8E6FE7808E26E93FEEF24088A
:1004F900F8A606EF240CF8E6FE780CE26E93FEEF00
:10050900240CF8A606EF04F8E6FE7801E26E93F5EE
:100519002EEF2405F8E6FE7805E26E93FEEF04F867
:10052900A606EF2409F8E6FE7809E26E93FEEF24A9
:1005390005F8A606EF240DF8E6FE780DE26E93FEA7
:10054900EF2409F8A606EF240DF8A62EEF2402F8E9
:10055900E6FE7802E26E93F52EEF2406F8E6FE78C1
:1005690006E26E93F52FEF240AF8E6FE780AE26EAA
:1005790093FEEF2402F8A606EF240EF8E6FE780EA5
:10058900E26E93FEEF2406F8A606EF240AF8A62EDB
:10059900EF240EF8A62FEF240FF8E6FE780FE26E8F
:1005A90093F52EEF240BF8E6FE780BE26E93FEEF3F
:1005B900240FF8A606EF2407F8E6FE7807E26E9303
:1005C900FEEF240BF8A606EF2403F8E6FE7803E213
:0F05D9006E93FEEF2407F8A606EF2403F8A62E74
:0105E80022F0
:10020700EF2402F8E6FEEF2403F8E66EFEEF04F8AB
:10021700E6FD6EFEA807E6FC6EFEAB04EC6DF5DDB1
:10022700ADDFED6EFDE66DF6E82402F8E6FDEF04BE
:10023700F8E6FC6DF5DDADDFED6E6CF6EF2403F847
:10024700E6FDEF2402F8E6FC6DF5DDADDFED6E6C43
:10025700F6EF2403F8E6FC6BF5DDADDFED6E6CF62B
:10026700EF2406F8E6FEEF2407F8E66EFEEF240516
:10027700F8E6FD6EFEEF2404F8E6FC6EFEAB04EC38
:100287006DF5DDADDFED6E6CF6EF2406F8E6FDEFFC
:100297002405F8E6FC6DF5DDADDFED6E6CF6EF24B9
:1002A70007F8E6FDEF2406F8E6FC6DF5DDADDFEDBA
:1002B7006E6CF6EF2407F8E6FC6BF5DDADDFED6E4F
:1002C7006CF6EF240AF8E6FEEF240BF8E66EFEEF75
:1002D7002409F8E6FD6EFEEF2408F8E6FC6EFEAB97
:1002E70004EC6DF5DDADDFED6E6CF6EF240AF8E694
:1002F700FDEF2409F8E6FC6DF5DDADDFED6E6CF67C
:10030700EF240BF8E6FDEF240AF8E6FC6DF5DDAD0A
:10031700DFED6E6CF6EF240BF8E6FC6BF5DDADDF79
:10032700ED6E6CF6EF240EF8E6FEEF240FF8E66E9E
:10033700FEEF240DF8E6FD6EFEEF240CF8E66EFEE8
:10034700E6FB6DF5DDADDFED6EFDE66DF6EF240E38
:10035700F8E6FDEF240DF8E6FC6DF5DDADDFED6E9B
:100367006CF6EF240FF8E6FDEF240EF8E6FC6DF5CA
:10037700DDADDFED6E6CF6EF240FF8E6FC6BF5DD17
:06038700ADDFED6E6CF627
:01038D00224D
:1014FB00A2AF92D5C2AFD2FD8FFA20FCFDC2FDA2E6
:04150B00D592AF22A4
:1013F700A2AF92D5C2AFD2FD8E4B8F4C8F828E8318
:0B140700EDF020FCFDC2FDA2D592AF6D
:0114120022B7
:060E96008B178A18891970
:100E9C00A2AF92D5C2AFD2FD8E4D8F4EE51B151B66
:100EAC00AE1A7002151A4E6028AB170519E519AA6F
:100EBC00187002051814F912006EFF054EE54EACC1
:100ECC004D7002054D14F5828C83EFF030FCCD8013
:070EDC00FBC2FDA2D592AF9D
:010EE30022EC
:061701008F828E83E0FFE1
:0117070022BF
:1012FD00E5201520AC1F7002151F4C60168F828ED5
:10130D0083E01200B40FBF00010E740129F9E43A15
:03131D00FA80DD76
:0113200022AA
:07170800EFF5AFEEF5AF2293
:0816D400AFAFAEAF8FAF8EAFD8
:0116DC0022EB
:04172A0043B3102293
:0B163000EF600443B3082253B3F7221D
:0E15DC00EF25E05406FFE5B354F94FF5B322B6
:0B163B00EF600443B3012253B3FE2212
:10154A00E5B35406FD53B3F9EFF5B4EEF5B5ED4244
:01155A00B3DD
:01155B00226D
:10150F00E5B35406FD53B3F9AFB5EFFEACB4ECFF42
:03151F00ED42B3E7
:0115220022A6
:10152300E5B35408FD53B3F7AFABEFFEACB6ECFF36
:03153300ED42B3D3
:011536002292
:03172E00AFAC223B
:0B164600EF600443D6802253D67F22C1
:0B165100EF600443D6402253D6BF22B6
:03173100AFD7220D
:10155C00E5D65420D39400E4940040037F01227F0D
:02156C0000225B
:03000000020B47A9
:0C0B4700787FE4F6D8FD758188020B8EE3
:10006E00BB010689828A83E0225002E722BBFE0290
:09007E00E32289828A83E49322C3
:10008700BB010CE58229F582E5833AF583E022502E
:1000970006E92582F8E622BBFE06E92582F8E22278
:0D00A700E58229F582E5833AF583E4932292
:1000B400BB010689828A83F0225002F722BBFE012B
:0200C400F32225
:1000C600F8BB010DE58229F582E5833AF583E8F070
:1000D600225006E92582C8F622BBFE05E92582C81C
:0200E600F22204
:1000E800EB9FF5F0EA9E42F0E99D42F0E89C45F06E
:0100F80022E5
:1000F900EF4E6012EF60010EEDBB010B89828A831E
:10010900F0A3DFFCDEFA2289F05007F709DFFCA92A
:0C011900F022BBFEFCF309DFFCA9F02281
:10012500E709F608DFFA8046E709F208DFFA803EBC
:1001350088828C83E709F0A3DFFA8032E309F608A9
:10014500DFFA806EE309F208DFFA806688828C8325
:10015500E309F0A3DFFA805A89828A83E0A3F608CF
:10016500DFFA804E89828A83E0A3F208DFFA8042B3
:1001750080D280FA80C680D4805580F28029801094
:1001850080A680EA809A80A880DA80E280CA8029E9
:1001950088848C8589828A83E493A30586F0A305E8
:1001A50086DFF5DEF3800B89828A83E493A3F60864
:1001B500DFF9ECFAA9F0EDFB2288848C8589828A27
:1001C50083E0A30586F0A30586DFF6DEF480E389E8
:1001D500828A83E493A3F208DFF980D688F0EF6082
:1001E500010E4E60CD88F0ED2402B4040050C3F535
:1001F50082EB2402B4040050B923234582239001E5
:0202050075730F
:100B53000207E2E493A3F8E493A34003F68001F2CF
:100B630008DFF48029E493A3F85407240CC8C333A3
:100B7300C4540F4420C8834004F456800146F6DF72
:100B8300E4800B01020408102040809011B3E47E3E
:100B9300019360BCA3FF543F30E509541FFEE49367
:100BA300A360010ECF54C025E060A840B8E493A32E
:100BB300FAE493A3F8E493A3C8C582C8CAC583CA59
:100BC300F0A3C8C582C8CAC583CADFE9DEE780BE11
:0111DE000010
:00000001FF
