:1011F200053900000000CD053400000000AB186185
:101202005E6CA774FDE3DFBCF7DA4A4F652D6EF022
:08121200FFA6E65A8482664F34
:1005E900120F0B12116E12152D7B007A00791475FA
:1005F90020007521047F007EFA1212DD7A007979D4
:100609007520007521107F047EFA1212DD78397C7D
:10061900007D007A0079147E007F041201E17834AC
:100629007C007D007B007A0079147E007F04120132
:10063900E1120D337523007524007525007B007ABE
:100649000079797D04E4FF12167E7F007E0312167D
:100659008C2083033081697F647E00121474308397
:1006690025308122E4F518120FC2120FFD7B007AA2
:100679000079181209A9E5186006C291C293803B56
:10068900D291D2938035751E00751F0075201A7B93
:10069900007A00791912110E7B017A00792812105B
:1006A900A4121293751E01751F007520207B017A13
:1006B900007910120B04120F86B2931213EA8028E4
:1006C900121662120E05EF601FE4F519F51A1212DF
:1006D90093751E01751F007520207B017A00791022
:1006E900120B04120F86B2911216511215D9020675
:0106F9005AA6
:1013EA0020830330810C1216517F327E001214744E
:0913FA0080EE7F647E0002147491
:1009A9008B1B8A1C891DE53F7003020A5A9000348B
:1009B900E064AB6003020A5A78797C00FD7B017A16
:1009C900007920FE7F101201E178397C007D007BDF
:1009D900017A0079307E007F041201E178347C00CD
:1009E9007D007B017A0079307E007F041201E17F6E
:1009F900211214887B017A0079307523007524044B
:100A09007F007EFA120EBD7B017A007920752300E2
:100A19007524107F047EFA120EBD7523007524001B
:100A29007525007B007A0079797D04E4FF12167E32
:100A39007B007A0079397F06120F497B007A0079A9
:100A490034E4FF120F49AB1BAA1CA91D7401120043
:020A5900B422C5
:100FFD007F011213417F01121323D2E8E4F53FE57F
:10100D003F7018308315308112B291A291B3929333
:10101D001216517F64FE12147480E4C2E8E4FF12CC
:09102D0013417D10E4FF02166975
:100E0500E4F51EF51DF51CF51B7F011213417F014D
:100E1500121323D2E8E4F53FE53F70317F32FEFD42
:100E2500FCAB1EAA1DA91CA81BC31200E8501E7FFF
:100E3500017E00121474E51E2401F51EE4351DF52E
:100E45001DE4351CF51CE4351BF51B80CBC2E8E41D
:0D0E5500FF1213417D10E4FF121669AF3F3C
:010E6200226D
:100FC2007E007F047D007B007A0079391200F97E71
:100FD200007F047D007B007A0079341200F97B00E7
:100FE2007A0079397F06120F497B007A007934E45E
:0B0FF200FF120F497D15E4FF02166995
:071662007D10E4FF02166990
:080F86007B017A007910AD1A1D
:100F8E008D1B7D10121670AF1B12135FE51B6403D1
:100F9E006003D38001C392907F01121341E4FF12CC
:100FAE001323D2E8753E01E53E70FCC2E8FF121332
:040FBE0041D290226A
:081293007B017A007920AD19FE
:10129B008B1B8A1C891DED75F008A42461F9E4FAF7
:0D12AB00FBA81DAC1CAD1BFE7F080201E17D
:10110E008B1B8A1C891D30810E74021200B4AB1E1B
:10111E00AA1FA920E48016308316AB1BAA1CA91D9A
:10112E0074011200B4AB1EAA1FA92074031200B4DE
:01113E00228E
:0610A4008B1B8A1C891D54
:1010AA007E087F011215C3AF061EEF601D1214E9F8
:1010BA00EF60FA1216B5AB1B051DE51DAA1C7002DE
:0F10CA00051C14F9EF1200B480DDE4FF0215C31A
:100F0B00E4FFEFFD3395E0FCC3ED9408EC648094B3
:100F1B0080500AEF2470F59EF59F0F80E575930BBB
:100F2B00E4F594759F03F59F759E11759E13F580DF
:0D0F3B00F59075CF0BF5AED290C291C29328
:010F48002286
:100D33007F0212119C7F0112113F7F0512141C7D4B
:100D43000F7C007F0F1213017F6E12145F7B007AFA
:100D53000079397F06120F497D10E4FF1216697D71
:100D630001E4FF120E637B007A007934E4FF120F73
:100D7300497D017F04120D9D7D017F05120D9D7D2F
:100D8300017F06120D9D7F0112126C7F041214FB6A
:0A0D93007F051214FB7F060214FB1B
:10116E00E4FF1215B80F12158B7F0312155974FF79
:10117E00FFFE1214D77F011215B8E5AD54806480BE
:0E118E0060F8E5AD5480648070F875B82822D2
:0F152D001215A2EF640270F8D2EAD2B9D2AF223F
:0A15D90075A40475A407E4F5A4222C
:03006B0002005A36
:01005A003273
:03005B0002006A36
:01006A003263
:03004B00020CBEE6
:100CBE00C0E0C0F0C083C082C085C084C086758687
:100CCE0000C0D075D000C000C001C002C003C00477
:060CDE00C005C006C007BE
:100CE40012004EEF24F0600A24D0600E2420701EFF
:100CF400800312163D753E0080141215F7EF700B39
:0E0D04007B017A0079201216A980EF753F015D
:100D1200D007D006D005D004D003D002D001D00035
:100D2200D0D0D086D084D085D082D083D0F0D0E00D
:010D3200328E
:0A15E3008FE7E5E630E1FBAFE722F9
:021323008F1F1A
:10132500E4FF1213B68F20E51F6401700543200109
:0C13350080035320FEAD20E4FF02137D76
:021341008F1FFC
:10134300E4FF1213B68F20E51F64017005432002EA
:0C13530080035320FDAD20E4FF02137D59
:02113F008F1B04
:10114100E4FF1213B68F1CE51B14600C146011240C
:10115100027013531CF7800E431C08531CFB8006BE
:0D116100431C08431C04AD1CE4FF02137D79
:040D9D008F1B8D1CFF
:100DA100E4FF1213B68F1DE51B24FB601E14603394
:100DB10024027049E51C60047F0080027F01EF542A
:100DC10001C454F0FFE51D54EF802FE51C60047F42
:100DD1000080027F01EF5401C43354E0FFE51D544C
:100DE100DF8017E51C60047F0080027F01EF540162
:100DF100C4333354C0FFE51D54BF4FF51DAD1DE491
:040E0100FF02137D5C
:0B004E007D707F0712137DEF5470FFE0
:010059002284
:101403007D707F0712137DEF5470F55D7F07121314
:08141300B6EF540F425DAF5D1E
:01141B0022AE
:1014FB00A8077401088002C333D8FCFD7F070213D1
:01150B007D62
:08165A00121647EF5470FF2245
:040E63008F1B8D1C38
:100E67007F021213B68F1D7F011213B68F1EE51B6B
:100E770024FA500624076021802EAF1BA8077401AF
:100E8700088002C333D8FCFF421DE51C6005EF4212
:100E97001E8015EFF4521E800F751D3FE51C60057F
:100EA700751E3F8003E4F51EAD1D7F0212137DAD55
:060EB7001E7F0102137D05
:020003008F521A
:100005007F021213B68F537F011213B68F54E55238
:1000150024FA5006240760168019AF52A807740108
:10002500088002C333D8FCF4525352548005E4F5DA
:1000350053F554AD537F0212137DAD547F01021366
:010045007D3D
:100F49008F1E8B1F8A208921E51E14600A24FB50FD
:100F5900196004240670251215ED8F26E51E242A32
:100F6900FFAB1FAA20A921020A5BE51E240AFFABD9
:0D0F79001FAA20A92112006EFD12137D2277
:1010D9008F4A8B4B8A4C894DE54A14600824FB6082
:1010E900042406700BAB4BAA4CA94DAF4A02038EE0
:1010F900E54A240AFF1213B6AB4BAA4CA94DEF12CD
:0511090000B47F01228B
:02130100AB0738
:10130300EC540FC454F0FFE51B540F4FF51BEB5483
:101313000FFFE51B54F04FF51BAD1B7F0402137D3C
:10141C00E4F51BEF24FE5403FFE51B54FC4FF51BB6
:07142C00AD1B7F0302137DDD
:0A15ED007F031213B6EF2402FF2261
:07166900EF2411FF02137DC5
:020BA2008F4082
:100BA4007F021213B68F417F011213B68F42E540C4
:100BB40014601A14602714603414604314604E24C3
:100BC40005705EE5415401F543E542804EAF41EFC7
:100BD400C3135401F543AF42EFC313803EAF41EF5B
:100BE40013135401F543AF42EF1313802EAF41EFBB
:100BF4001313135401F543AF42EF131313801CAFC7
:100C040041EFC45401F543AF42EFC4800EAF41EF4E
:100C1400C4135401F543AF42EFC4135401F54480A7
:0D0C240005E4F543F544E54425E02543FFD4
:010C310022A0
:050046007F080213B663
:101433007F081213B6EF54F0FFE4C4F854F0C8EF7A
:06144300C4540F48FF2213
:10103600EF14601414601514601614601714601809
:101046002405701D7F1180127F12800E7F13800A87
:101056007F1480067F1580027F161213B68F5E807E
:0610660003E4F55EAF5E3D
:01106C002261
:10145F00E4F51BEF547FFFE51B54804FF51BAD1BCD
:05146F007F0502137D62
:02135F008F1CE1
:101361007F061213B68F1DE51C540325E0FFE51D12
:0C13710054F94FF51DAD1D7F0602137DE1
:02119C008F1BA7
:10119E007F061213B68F1CE51B600924FE700D43EB
:1011AE001C208003531CDF531CF78006531CDF43A7
:0911BE001C08AD1C7F0602137D24
:0A15F7007F171213B6EF5401FF2214
:0C005E007F171213B6EFC3135401FF22EA
:0B1597007F171213B6EFC45401FF22AF
:0C1567007F171213B6EFC4135401FF22CB
:101449007F171213B6EF5430FFE4C4F854F0C8EF15
:06145900C4540F48FF22FD
:0A1601007F171213B6EF5403FF2207
:05169F007F170213B6E5
:0A160B007F081213B6EF540FFF2200
:0A1615007F091213B6EF5401FF2203
:0116B800220F
:0C157300EF543FF55FAD5F7F1C02137D5D
:02121B008F55ED
:10121D007F1D1213B68F56E55560047F0180027F46
:10122D0000EF540125E025E0FFE55654FB4FF55640
:07123D00AD567F1D02137D79
:02126C008F1BD6
:10126E007F1D1213B68F1CE51B60047F0180027F69
:10127E0000EF540125E0FFE51C54FD4FF51CAD1C9D
:05128E007F1D02137D2D
:0212B8008F574E
:1012BA007F1D1213B68F58E55760047F0180027FA5
:1012CA0000EF5401FFE55854FE4FF558AD587F1D05
:0312DA0002137D7F
:071670008D267FA0020A5B3A
:071677008D267FB0020A5B23
:0A161F00EF44A8FF854926020A5B8C
:0516A4007F600213B697
:0516A9007F0802038E22
:0E154B00121647EF540EFFE4C313EF13FF22F6
:0A162900C2E97FE31215E3D2E922C3
:1014C40012169F7E00EF54407806CEC313CE13D875
:0314D400F9FF22FB
:0A163300C2E97FE21215E3D2E922BA
:0A163D00C2E97FE11215E3D2E922B1
:09164700C2E97FFF1215E3D2E9AC
:011650002277
:021244008F59C0
:101246007F061213B68F5AE55960047F0180027F2C
:1012560000EF5401C454F0FFE55A54EF4FF55AAD70
:061266005A7F0602137D11
:0211C7008F5B3C
:1011C9007F061213B68F5CE55B60047F0180027FA6
:1011D90000EF5401C43333335480FFE55C547F4F2F
:0911E900F55CAD5C7F0602137D8C
:1013B600C2E98FE7E5E6540260FAAFE7E4F5E7E550
:0913C600E6540260FAAFE7D2E937
:0113CF0022FB
:10137D00C2E9EF2420F5E7E5E6540260FAAFE78D08
:0C138D00E7E5E6540260FA85E760D2E96B
:011399002231
:08038E008F088B098A0A890B14
:1003960075100185090EE50814600C24FB6008241D
:1003A600FE60142408702E1215ED8F0C8F0DC2E915
:1003B600E508240AFF801912154B8F08C3EF94072E
:1003C600E4940050101216A48F0C8F0DC2E97F61C1
:1003D6001215E38005E4F50DF50CAF0E7E00EF7007
:0103E60028EE
:1003E700850B11E4F5E7E5107008A811A60F0511B4
:1003F7008003E4F510E5E6540260FA85E70FD50CB3
:05040700E2A811A60FA0
:09040C000204C0EF64014E703AD5
:10041500850A11850B12E4F5E7E510701385128244
:10042500851183E50FF00512E512700705118003AC
:10043500E4F510E5E6540260FA85E70FD50CD7859B
:080445001282851183E50FF01E
:08044D008071E50E64FE7029C8
:10045500850B11E4F5E7E5107009A811E50FF20524
:10046500118003E4F510E5E6540260FA85E70FD53F
:070475000CE1A811E50FF2F4
:02047C008042BC
:10047E00850911850A12850B13E4F5E7E51070184E
:10048E00AB11AA12A913E50F1200B474012513F5CE
:10049E0013E43512F5128003E4F510E5E65402601C
:1004AE00FA85E70FD50CD2AB11AA12A913E50F12DC
:0204BE0000B488
:0804C000D2E9E508FEE50DFF9D
:0104C8002211
:060A5B008B238A2489258B
:090A6100AD23C2E98FE7ED701925
:100A6A00852528A828E6FE0528E5E6540260FA85C9
:070A7A00E7278EE7D526EC0B
:070A81008075ED6401702691
:100A8800852428852529852982852883E0FE05294E
:100A9800E52970020528E5E6540260FA85E7278E05
:040AA800E7D526E286
:070AAC00804AED64FE7019A1
:100AB300852528A828E2FE0528E5E6540260FA8584
:070AC300E7278EE7D526ECC2
:020ACA00802C7E
:100ACC0085232885242985252AAB28AA29A92A1219
:100ADC00006EFE7401252AF52AE43529F529E5E690
:0C0AEC00540260FA85E7278EE7D526DD6E
:0B0AF800E5E6540260FA85E727D2E92A
:010B030022CF
:10151D00EF6009E5A3448054F7F5A32253A3772286
:10150C00EF5401C4333354C0FFE5A354B74FF5A3D4
:01151C0022AC
:0F153C00EF5403C454F0FFE5A354C74FF5A322A7
:0A15A200E5AD30E3037F02227F0174
:0115AC00221C
:0C157F00EF5407FFE5A354F04FF5A32242
:06169300E5AD5480FF22CA
:06169900E5AD5440FF2204
:0C158B00EF5407FFE5AD54F84FF5AD221A
:0B13D0007FFA7E001213DB7FFA7E0024
:0F13DB000000000000EF1F70011E144E70F22280
:10147400AD07AC061213D01213D0ED1D70011C146D
:041484004C70F12295
:1006FA00637C777BF26B6FC53001672BFED7AB76D5
:10070A00CA82C97DFA5947F0ADD4A2AF9CA472C07F
:10071A00B7FD9326363FF7CC34A5E5F171D83115EC
:10072A0004C723C31896059A071280E2EB27B2750D
:10073A0009832C1A1B6E5AA0523BD6B329E32F8485
:10074A0053D100ED20FCB15B6ACBBE394A4C58CF7D
:10075A00D0EFAAFB434D338545F9027F503C9FA851
:10076A0051A3408F929D38F5BCB6DA2110FFF3D21F
:10077A00CD0C13EC5F974417C4A77E3D645D1973D3
:10078A0060814FDC222A908846EEB814DE5E0BDBCD
:10079A00E0323A0A4906245CC2D3AC629195E47904
:1007AA00E7C8376D8DD54EA96C56F4EA657AAE085E
:1007BA00BA78252E1CA6B4C6E8DD741F4BBD8B8AF9
:1007CA00703EB5664803F60E613557B986C11D9E5F
:1007DA00E1F8981169D98E949B1E87E9CE5528DFD6
:1007EA008CA1890DBFE6426841992D0FB054BB1602
:0B07FA008D01020408102040801B3617
:07167E008F1E8D1F02106D8D
:060B04008B1B8A1C891DF9
:100B0A00E4F531C3E531941074809480501BAB1E18
:100B1A00AA1FA920853182758300120087FF7421DC
:100B2A002531F8A607053180DA75DE02E4F531C30E
:100B3A00E53194097480948050137F211204C97F8F
:100B4A0021120207AF311208F3053180E27F211228
:100B5A0004C97F091208F37F21120805E4F531C39D
:100B6A00E531941074809480502D74352531F582C6
:100B7A00E43400F583E0FF74002531F8EFF27421C4
:100B8A002531F8E6AB1BAA1CA91D853182758300A5
:070B9A001200C6053180C8FE
:010BA1002231
:06106D008B268A2789286A
:10107300E4FFEFC39410748094805024AB26AA2716
:10108300A9288F82758300120087FE74002FF8EE63
:10109300F274352FF582E43400F583EEF00F80D23D
:0110A300222A
:10080500A807C000E6FE7800E26ED000F6EF04F817
:10081500C000E6FE7801E26ED000F6EF2402F8C0D3
:1008250000E6FE7802E26ED000F6EF2403F8C00081
:10083500E6FE7803E26ED000F6EF2404F8C000E689
:10084500FE7804E26ED000F6EF2405F8C000E6FE5F
:100855007805E26ED000F6EF2406F8C000E6FE78D3
:1008650006E26ED000F6EF2407F8C000E6FE780732
:10087500E26ED000F6EF2408F8C000E6FE7808E244
:100885006ED000F6EF2409F8C000E6FE7809E26EA6
:10089500D000F6EF240AF8C000E6FE780AE26ED032
:1008A50000F6EF240BF8C000E6FE780BE26ED000F0
:1008B500F6EF240CF8C000E6FE780CE26ED000F6E8
:1008C500EF240DF8C000E6FE780DE26ED000F6EFDD
:1008D500240EF8C000E6FE780EE26ED000F6EF2496
:0E08E5000FF8C000E6FF780FE26FD000F62299
:1008F300780DE29006FA93FE7800E2FDEE6DFEEFCE
:100903009007FB936EF2780EE29006FA93FF78015C
:10091300E2FEEF6EF2780FE293FF7802E2FEEF6EF3
:10092300F2780CE293FF7803E2FEEF6EF208E2FF47
:100933007800E26F7804F208E2FF7801E26F78054D
:10094300F208E2FF7802E26F7806F208E2FF78032A
:10095300E26F7807F208E2FF7804E26F7808F208A2
:10096300E2FF7805E26F7809F208E2FF7806E26FAA
:10097300780AF208E2FF7807E26F780BF208E2FFE9
:100983007808E26F780CF208E2FF7809E26F780DDD
:10099300F208E2FF780AE26F780EF208E2FF780BC2
:0609A300E26F780FF22262
:1004C900A807E6FE7800E26E9006FA93A807F6E818
:1004D9002404F8E6FE7804E26E93FEEF2404F8A6FD
:1004E90006EF2408F8E6FE7808E26E93FEEF24088A
:1004F900F8A606EF240CF8E6FE780CE26E93FEEF00
:10050900240CF8A606EF04F8E6FE7801E26E93F5EE
:1005190032EF2405F8E6FE7805E26E93FEEF04F863
:10052900A606EF2409F8E6FE7809E26E93FEEF24A9
:1005390005F8A606EF240DF8E6FE780DE26E93FEA7
:10054900EF2409F8A606EF240DF8A632EF2402F8E5
:10055900E6FE7802E26E93F532EF2406F8E6FE78BD
:1005690006E26E93F533EF240AF8E6FE780AE26EA6
:1005790093FEEF2402F8A606EF240EF8E6FE780EA5
:10058900E26E93FEEF2406F8A606EF240AF8A632D7
:10059900EF240EF8A633EF240FF8E6FE780FE26E8B
:1005A90093F532EF240BF8E6FE780BE26E93FEEF3B
:1005B900240FF8A606EF2407F8E6FE7807E26E9303
:1005C900FEEF240BF8A606EF2403F8E6FE7803E213
:0F05D9006E93FEEF2407F8A606EF2403F8A63270
:0105E80022F0
:10020700EF2402F8E6FEEF2403F8E66EFEEF04F8AB
:10021700E6FD6EFEA807E6FC6EFEAB04EC6DF5DDB1
:10022700ADDFED6EFDE66DF6E82402F8E6FDEF04BE
:10023700F8E6FC6DF5DDADDFED6E6CF6EF2403F847
:10024700E6FDEF2402F8E6FC6DF5DDADDFED6E6C43
:10025700F6EF2403F8E6FC6BF5DDADDFED6E6CF62B
:10026700EF2406F8E6FEEF2407F8E66EFEEF240516
:10027700F8E6FD6EFEEF2404F8E6FC6EFEAB04EC38
:100287006DF5DDADDFED6E6CF6EF2406F8E6FDEFFC
:100297002405F8E6FC6DF5DDADDFED6E6CF6EF24B9
:1002A70007F8E6FDEF2406F8E6FC6DF5DDADDFEDBA
:1002B7006E6CF6EF2407F8E6FC6BF5DDADDFED6E4F
:1002C7006CF6EF240AF8E6FEEF240BF8E66EFEEF75
:1002D7002409F8E6FD6EFEEF2408F8E6FC6EFEAB97
:1002E70004EC6DF5DDADDFED6E6CF6EF240AF8E694
:1002F700FDEF2409F8E6FC6DF5DDADDFED6E6CF67C
:10030700EF240BF8E6FDEF240AF8E6FC6DF5DDAD0A
:10031700DFED6E6CF6EF240BF8E6FC6BF5DDADDF79
:10032700ED6E6CF6EF240EF8E6FEEF240FF8E66E9E
:10033700FEEF240DF8E6FD6EFEEF240CF8E66EFEE8
:10034700E6FB6DF5DDADDFED6EFDE66DF6EF240E38
:10035700F8E6FDEF240DF8E6FC6DF5DDADDFED6E9B
:100367006CF6EF240FF8E6FDEF240EF8E6FC6DF5CA
:10037700DDADDFED6E6CF6EF240FF8E6FC6BF5DD17
:06038700ADDFED6E6CF627
:01038D00224D
:10148800A2AF92D5C2AFD2FD8FFA20FCFDC2FDA259
:04149800D592AF2218
:10139A00A2AF92D5C2AFD2FD8E4E8F4F8F828E836F
:0B13AA00EDF020FCFDC2FDA2D592AFCB
:0113B5002215
:060EBD008B208A2189222E
:100EC300A2AF92D5C2AFD2FD8E508F51E524152427
:100ED300AE23700215234E6028AB200522E522AA1B
:100EE300217002052114F912006EFF0551E551AC82
:100EF300507002055014F5828C83EFF030FCCD80E6
:070F0300FBC2FDA2D592AF75
:010F0A0022C4
:061685008F828E83E0FF5E
:01168B00223C
:1012DD00E5211521AC20700215204C60168F828EF1
:1012ED0083E01200B40FBF00010E740129F9E43A36
:0312FD00FA80DD97
:0113000022CA
:07168C00EFF5AFEEF5AF2210
:08165100AFAFAEAF8FAF8EAF5B
:01165900226E
:0416AE0043B3102210
:0B15AD00EF600443B3082253B3F722A1
:0E155900EF25E05406FFE5B354F94FF5B32239
:0B15B800EF600443B3012253B3FE2296
:1014D700E5B35406FD53B3F9EFF5B4EEF5B5ED42B8
:0114E700B351
:0114E80022E1
:10149C00E5B35406FD53B3F9AFB5EFFEACB4ECFFB6
:0314AC00ED42B35B
:0114AF00221A
:1014B000E5B35408FD53B3F7AFABEFFEACB6ECFFAA
:0314C000ED42B347
:0114C3002206
:0316B200AFAC22B8
:0B15C300EF600443D6802253D67F2245
:0B15CE00EF600443D6402253D6BF223A
:0316B500AFD7228A
:1014E900E5D65420D39400E4940040037F01227F81
:0214F9000022CF
:03000000020C32BD
:0C0C3200787FE4F6D8FD758188020C790B
:10006E00BB010689828A83E0225002E722BBFE0290
:09007E00E32289828A83E49322C3
:10008700BB010CE58229F582E5833AF583E022502E
:1000970006E92582F8E622BBFE06E92582F8E22278
:0D00A700E58229F582E5833AF583E4932292
:1000B400BB010689828A83F0225002F722BBFE012B
:0200C400F32225
:1000C600F8BB010DE58229F582E5833AF583E8F070
:1000D600225006E92582C8F622BBFE05E92582C81C
:0200E600F22204
:1000E800EB9FF5F0EA9E42F0E99D42F0E89C45F06E
:0100F80022E5
:1000F900EF4E6012EF60010EEDBB010B89828A831E
:10010900F0A3DFFCDEFA2289F05007F709DFFCA92A
:0C011900F022BBFEFCF309DFFCA9F02281
:10012500E709F608DFFA8046E709F208DFFA803EBC
:1001350088828C83E709F0A3DFFA8032E309F608A9
:10014500DFFA806EE309F208DFFA806688828C8325
:10015500E309F0A3DFFA805A89828A83E0A3F608CF
:10016500DFFA804E89828A83E0A3F208DFFA8042B3
:1001750080D280FA80C680D4805580F28029801094
:1001850080A680EA809A80A880DA80E280CA8029E9
:1001950088848C8589828A83E493A30586F0A305E8
:1001A50086DFF5DEF3800B89828A83E493A3F60864
:1001B500DFF9ECFAA9F0EDFB2288848C8589828A27
:1001C50083E0A30586F0A30586DFF6DEF480E389E8
:1001D500828A83E493A3F208DFF980D688F0EF6082
:1001E500010E4E60CD88F0ED2402B4040050C3F535
:1001F50082EB2402B4040050B923234582239001E5
:0202050075730F
:100C3E000205E9E493A3F8E493A34003F68001F2DE
:100C4E0008DFF48029E493A3F85407240CC8C333B7
:100C5E00C4540F4420C8834004F456800146F6DF86
:100C6E00E4800B01020408102040809011F2E47E13
:100C7E00019360BCA3FF543F30E509541FFEE4937B
:100C8E00A360010ECF54C025E060A840B8E493A342
:100C9E00FAE493A3F8E493A3C8C582C8CAC583CA6D
:100CAE00F0A3C8C582C8CAC583CADFE9DEE780BE25
:01121A0000D3
:00000001FF
