:10118000013C00053600000000CD053100000000E4
:10119000AB18625E6CA774FDE3DFBCF7DA4A4F65FB
:0B11A0002D6EF0FFA6E65A8482664F19
:1007E200E4F514120F271211521215A2120D7C12E7
:1007F2000C457F007E031216FA308406308603020F
:10080200088E7F647E001214D92084232086201251
:100812000FA4120E37EF60071211ACE4FF80027FC3
:100822000112148212133512108312104D807D2092
:100832008426121083E47B887A13F9F8C31200E845
:10084200500EE51470047F0180027F008F14805CDB
:100852007B057D037F01802F20865112104DE47BA2
:10086200887A13F9F8C31200E8500EE53C70047F51
:100872000180027F008F3C80337F0F120D15EF60E5
:100882002B7B017D037F02120EDD80157F0F120D7F
:1008920015EF60187B017D03E4FF120EDDE51460A5
:1008A2000B7F0A7E007D007C001214391216C612DC
:0508B200164E0207FBD9
:101439008F188E178D168C157F01121482AE17AF77
:09144900181214D9E4FF02148208
:10158200E53C6005A282B38003A283B3E433FF2269
:10148200E53C6009EF24FFB39282D28322EF24FF6E
:06149200B39283D2822216
:100EDD008F158D168B17E53C703F7B017A007920BD
:100EED00AD151213AF751B01751C00751D207B010F
:100EFD007A007910120A16E51564016003D380019A
:100F0D00C39294AF171517EF600D7B017A0079101E
:0A0F1D00AD161212A580ECD294224A
:1012A5008D187D101216DEAF181213917F011213DF
:1012B50073E4FF121355D2E8753B01E53B70FCC2A0
:0512C500E8FF021373B5
:100E3700E53C60037F00227F011213737F011213C9
:100E470055D2E8E4F53DE53D702120841E20861B40
:100E5700121582EF70047F0180027F001214821244
:100E670016C67F647E001214D980DBC2E8E4FF1245
:100E770013737D10E4FF1216D7900034E064AB7053
:080E8700047F0180027F0022BC
:020D15008F1538
:100D1700E4F519F518F517F516E53C60037F002291
:100D27007F011213737F01121355D2E8E4F53DE5F5
:100D37003D7031AF15FCFDFEAB19AA18A917A8160F
:100D4700C31200E8501E7F017E001214D9E5192452
:100D570001F519E43518F518E43517F517E43516D4
:100D6700F51680CBC2E8E4FF1213737D10E4FF127F
:040D770016D7AF3D9F
:010D7B002255
:100FA4007E007F047D007B007A0079361200F97E92
:100FB400007F047D007B007A0079311200F97B0008
:100FC4007A0079367F06120F677B007A007931E464
:0B0FD400FF120F677D15E4FF0216D727
:10133500120D7C7B007A0079367F06120F677B00E1
:101345007A007931E4FF120F677D10E4FF0216D7AA
:1013AF008B188A19891AED75F008A42462F9E4FAEA
:0D13BF00FBA81AAC19AD18FE7F080201E171
:0610B9008B508A518952A0
:1010BF007E087F01121638AF061EEF601D12154E07
:1010CF00EF60FA121723AB500552E552AA51700286
:0F10DF00055114F9EF1200B480DDE4FF0216385A
:10104D00E4F518F517F516F5152086211216C67F4D
:10105D00327E001214D9E5182432F518E43517F54F
:10106D0017E43516F516E43515F51580DCAF18AE19
:05107D0017AD16AC15D3
:01108200224B
:10108300E4F518F517F516F5152084211216C67F19
:10109300327E001214D9E5182432F518E43517F519
:1010A30017E43516F516E43515F51580DCAF18AEE3
:0510B30017AD16AC159D
:0110B8002215
:1011AC007F201214ED7B017A007930751A00751BC3
:1011BC00047F007EFA120E8F7B017A007920751A5B
:0B11CC0000751B107F047EFA020E8FDE
:100D7C007515047B007A007916751F008515207F88
:100D8C00007EFA1212EF7A00797A751F0075201026
:100D9C007F047EFA1212EFAF157E0078367C007D50
:100DAC00007A0079161201E1AF157E0078317C00D3
:100DBC007D007B007A0079161201E1751F00752009
:100DCC00007521007B007A00797A7D04E4FF02161D
:010DDC00EC2A
:100F2700E4FFEFFD3395E0FCC3ED9408EC64809497
:100F370080500AEF2470F59EF59F0F80E57593505A
:100F4700E4F594759E03759E02759E56759E5475BD
:0F0F57009F047580FFF590F5CFD294D282D2839C
:010F66002268
:100C45007F021211D77F011211237F0512146BE465
:100C5500FDFCFF1213137F6E1214C47B007A00791A
:100C6500367F06120F677D10E4FF1216D77D01E46B
:100C7500FF120DDD7B007A007931E4FF120F677DED
:100C8500017F04120CAD7D017F05120CAD7D017F46
:100C950006120CAD7F0112127E7F041215607F05CE
:080CA5001215607F06021560C4
:10115200E4FF12162D0F1216007F031215CE7FFF29
:101162007E7F12153C7F0112162DE5AD54806480FE
:0E11720060F8E5AD5480648070F875B82822EE
:0F15A200121617EF640270F8D2EAD2B9D2AF2254
:0A164E0075A40475A407E4F5A422B6
:03006B0002005A36
:01005A003273
:03005B0002006A36
:01006A003263
:03004B00020BD0D5
:100BD000C0E0C0F0C083C082C085C084C086758676
:100BE00000C0D075D000C000C001C002C003C00466
:060BF000C005C006C007AD
:100BF60012004EEF24F0600A24D0600E2420701EEE
:100C060080031216B2753B00801412166CEF700B3F
:0E0C16007B017A00792012171780EF753D01DF
:100C2400D007D006D005D004D003D002D001D00024
:100C3400D0D0D086D084D085D082D083D0F0D0E0FC
:010C4400327D
:0A1658008FE7E5E630E1FBAFE72283
:021355008F1AED
:10135700E4FF1214058F1BE51A64017005431B0196
:0C1367008003531BFEAD1BE4FF0213CCFF
:021373008F1ACF
:10137500E4FF1214058F1BE51A64017005431B0277
:0C1385008003531BFDAD1BE4FF0213CCE2
:021123008F1526
:10112500E4FF1214058F16E51514600C14601124E4
:101135000270135316F7800E4316085316FB8006EC
:0D114500431608431604AD16E4FF0213CC58
:040CAD008F158D16FC
:100CB100E4FF1214058F17E51524FB601E14603341
:100CC10024027049E51660047F0080027F01EF5421
:100CD10001C454F0FFE51754EF802FE51660047F3F
:100CE1000080027F01EF5401C43354E0FFE5175443
:100CF100DF8017E51660047F0080027F01EF540159
:100D0100C4333354C0FFE51754BF4FF517AD17E493
:040D1100FF0213CCFE
:0B004E007D707F071213CCEF5470FF91
:010059002284
:101452007D707F071213CCEF5470F55E7F07121474
:0814620005EF540F425EAF5E7E
:01146A00225F
:10156000A8077401088002C333D8FCFD7F0702136B
:01157000CCAE
:0816CF001216BCEF5470FF225B
:040DDD008F158D16CB
:100DE1007F021214058F177F011214058F18E51564
:100DF10024FA500624076021802EAF15A80774013C
:100E0100088002C333D8FCFF4217E5166005EF42A4
:100E1100188015EFF45218800F75173FE51660051D
:100E210075183F8003E4F518AD177F021213CCAD9E
:060E3100187F010213CC42
:020003008F5319
:100005007F021214058F547F011214058F55E55395
:1000150024FA5006240760168019AF53A807740107
:10002500088002C333D8FCF4525452558005E4F5D8
:1000350054F555AD547F021213CCAD557F01021313
:01004500CCEE
:100F67008F158B168A178918E51514600A24FB500C
:100F7700196004240670251216628F1DE515242AB0
:100F8700FFAB16AA17A91802096DE515240AFFABCE
:0D0F970016AA17A91812006EFD1213CC2225
:1010EE008F488B498A4A894BE54814600824FB6077
:1010FE00042406700BAB49AA4AA94BAF4802038ED3
:10110E00E548240AFF121405AB49AA4AA94BEF126F
:05111E0000B47F012276
:02131300AB0726
:10131500EC540FC454F0FFE515540F4FF515EB547D
:101325000FFFE51554F04FF515AD157F040213CCED
:10146B00E4F515EF24FE5403FFE51554FC4FF51579
:07147B00AD157F030213CC45
:0A1662007F03121405EF2402FF229B
:0716D700EF2411FF0213CC08
:020AB4008F3E73
:100AB6007F021214058F3F7F011214058F40E53E19
:100AC60014601A14602714603414604314604E24B2
:100AD60005705EE53F5401F541E540804EAF3FEFBE
:100AE600C3135401F541AF40EFC313803EAF3FEF50
:100AF60013135401F541AF40EF1313802EAF3FEFB0
:100B06001313135401F541AF40EF131313801CAFB9
:100B16003FEFC45401F541AF40EFC4800EAF3FEF45
:100B2600C4135401F541AF40EFC4135401F542809C
:0D0B360005E4F541F542E54225E02541FFCB
:010B4300228F
:050046007F0802140513
:101498007F08121405EF54F0FFE4C4F854F0C8EFC5
:0614A800C4540F48FF22AE
:100FDF00EF14601414601514601614601714601861
:100FEF002405701D7F1180127F12800E7F13800ADF
:100FFF007F1480067F1580027F161214058F5F8085
:06100F0003E4F55FAF5F92
:0110150022B8
:1014C400E4F515EF547FFFE51554804FF515AD1580
:0514D4007F050213CCAE
:021391008F19B2
:101393007F061214058F1AE519540325E0FFE51A99
:0C13A30054F94FF51AAD1A7F060213CC66
:0211D7008F1572
:1011D9007F061214058F16E515600924FE700D436C
:1011E900162080035316DF5316F780065316DF4384
:0911F9001608AD167F060213CCA6
:0A166C007F17121405EF5401FF224E
:0C005E007F17121405EFC3135401FF229A
:0B160C007F17121405EFC45401FF22E9
:0C15DC007F17121405EFC4135401FF2206
:1014AE007F17121405EF5430FFE4C4F854F0C8EF60
:0614BE00C4540F48FF2298
:0A1676007F17121405EF5403FF2242
:05170D007F1702140526
:0A1680007F08121405EF540FFF223B
:0A168A007F09121405EF5401FF223E
:0117260022A0
:0C15E800EF543FF560AD607F1C0213CC97
:02122D008F56DA
:10122F007F1D1214058F57E55660047F0180027FE2
:10123F0000EF540125E025E0FFE55754FB4FF5572C
:07124F00AD577F1D0213CC17
:02127E008F15CA
:101280007F1D1214058F16E51560047F0180027F13
:1012900000EF540125E0FFE51654FD4FF516AD169D
:0512A0007F1D0213CCCC
:0212CA008F583B
:1012CC007F1D1214058F59E55860047F0180027F41
:1012DC0000EF5401FFE55954FE4FF559AD597F1DF0
:0312EC000213CC1E
:0716DE008D1D7FA002096DC4
:0716E5008D1D7FB002096DAD
:0A169400EF44A8FF85471D02096D11
:051712007F60021405D8
:051717007F0802038EB3
:0E15C0001216BCEF540EFFE4C313EF13FF220C
:0A169E00C2E97FE3121658D2E922D8
:1015290012170D7E00EF54407806CEC313CE13D8A0
:03153900F9FF2295
:0A16A800C2E97FE2121658D2E922CF
:0A16B200C2E97FE1121658D2E922C6
:0916BC00C2E97FFF121658D2E9C1
:0116C5002202
:021256008F5AAD
:101258007F061214058F5BE55A60047F0180027FC8
:1012680000EF5401C454F0FFE55B54EF4FF55BAD5C
:061278005B7F060213CCAF
:021202008F5CFF
:101204007F061214058F5DE55C60047F0180027F18
:1012140000EF5401C43333335480FFE55D547F4FF2
:09122400F55DAD5D7F060213CCFF
:10140500C2E98FE7E5E6540260FAAFE7E4F5E7E500
:09141500E6540260FAAFE7D2E9E7
:01141E0022AB
:1013CC00C2E9EF2420F5E7E5E6540260FAAFE78DB9
:0C13DC00E7E5E6540260FA85E761D2E91B
:0113E80022E2
:08038E008F088B098A0A890B14
:1003960075100185090EE50814600C24FB6008241D
:1003A600FE60142408702E1216628F0C8F0DC2E99F
:1003B600E508240AFF80191215C08F08C3EF9407B9
:1003C600E4940050101217128F0C8F0DC2E97F6152
:1003D6001216588005E4F50DF50CAF0E7E00EF7091
:0103E60028EE
:1003E700850B11E4F5E7E5107008A811A60F0511B4
:1003F7008003E4F510E5E6540260FA85E70FD50CB3
:05040700E2A811A60FA0
:09040C000204C0EF64014E703AD5
:10041500850A11850B12E4F5E7E510701385128244
:10042500851183E50FF00512E512700705118003AC
:10043500E4F510E5E6540260FA85E70FD50CD7859B
:080445001282851183E50FF01E
:08044D008071E50E64FE7029C8
:10045500850B11E4F5E7E5107009A811E50FF20524
:10046500118003E4F510E5E6540260FA85E70FD53F
:070475000CE1A811E50FF2F4
:02047C008042BC
:10047E00850911850A12850B13E4F5E7E51070184E
:10048E00AB11AA12A913E50F1200B474012513F5CE
:10049E0013E43512F5128003E4F510E5E65402601C
:1004AE00FA85E70FD50CD2AB11AA12A913E50F12DC
:0204BE0000B488
:0804C000D2E9E508FEE50DFF9D
:0104C8002211
:06096D008B1A8A1B891C95
:09097300AD1AC2E98FE7ED70191D
:10097C00851C1FA81FE6FE051FE5E6540260FA85DC
:07098C00E71E8EE7D51DEC0C
:070993008075ED6401702680
:10099A00851B1F851C20852082851F83E0FE05207C
:1009AA00E5207002051FE5E6540260FA85E71E8E0F
:0409BA00E7D51DE27E
:0709BE00804AED64FE701990
:1009C500851C1FA81FE2FE051FE5E6540260FA8597
:0709D500E71E8EE7D51DECC3
:0209DC00802C6D
:1009DE00851A1F851B20851C21AB1FAA20A9211259
:1009EE00006EFE74012521F521E43520F520E5E6A3
:0C09FE00540260FA85E71E8EE7D51DDD6F
:0B0A0A00E5E6540260FA85E71ED2E921
:010A150022BE
:10159200EF6009E5A3448054F7F5A32253A3772211
:10157100EF5401C4333354C0FFE5A354B74FF5A36F
:011581002247
:0F15B100EF5403C454F0FFE5A354C74FF5A32232
:0A161700E5AD30E3037F02227F01FE
:0116210022A6
:0C15F400EF5407FFE5A354F04FF5A322CD
:06170100E5AD5480FF225B
:06170700E5AD5440FF2295
:0C160000EF5407FFE5AD54F84FF5AD22A4
:0B141F007FFA7E0012142A7FFA7E0084
:0F142A000000000000EF1F70011E144E70F22230
:1014D900AD07AC0612141F12141FED1D70011C1468
:0414E9004C70F12230
:1005E900637C777BF26B6FC53001672BFED7AB76E7
:1005F900CA82C97DFA5947F0ADD4A2AF9CA472C092
:10060900B7FD9326363FF7CC34A5E5F171D83115FE
:1006190004C723C31896059A071280E2EB27B2751F
:1006290009832C1A1B6E5AA0523BD6B329E32F8497
:1006390053D100ED20FCB15B6ACBBE394A4C58CF8F
:10064900D0EFAAFB434D338545F9027F503C9FA863
:1006590051A3408F929D38F5BCB6DA2110FFF3D231
:10066900CD0C13EC5F974417C4A77E3D645D1973E5
:1006790060814FDC222A908846EEB814DE5E0BDBDF
:10068900E0323A0A4906245CC2D3AC629195E47916
:10069900E7C8376D8DD54EA96C56F4EA657AAE0870
:1006A900BA78252E1CA6B4C6E8DD741F4BBD8B8A0B
:1006B900703EB5664803F60E613557B986C11D9E71
:1006C900E1F8981169D98E949B1E87E9CE5528DFE8
:1006D9008CA1890DBFE6426841992D0FB054BB1614
:0B06E9008D01020408102040801B3629
:0716EC008F1A8D1B0210167E
:060A16008B188A19891AF1
:100A1C00E4F52EC3E52E941074809480501BAB1B10
:100A2C00AA1CA91D852E82758300120087FF741ED7
:100A3C00252EF8A607052E80DA75DE02E4F52EC306
:100A4C00E52E94097480948050137F1E1204C97F84
:100A5C001E120207AF2E1208B7052E80E27F1E125F
:100A6C0004C97F091208B77F1E1206F4E4F52EC3E1
:100A7C00E52E941074809480502D7435252EF582BB
:100A8C00E43400F583E0FF7400252EF8EFF2741EB9
:100A9C00252EF8E6AB18AA19A91A852E82758300A3
:070AAC001200C6052E80C8F0
:010AB3002220
:061016008B228A238924CD
:10101C00E4FFEFC39410748094805024AB22AA2375
:10102C00A9248F82758300120087FE74002FF8EEBE
:10103C00F274352FF582E43400F583EEF00F80D294
:01104C002281
:1006F400A807C000E6FE7800E26ED000F6EF04F82A
:10070400C000E6FE7801E26ED000F6EF2402F8C0E5
:1007140000E6FE7802E26ED000F6EF2403F8C00093
:10072400E6FE7803E26ED000F6EF2404F8C000E69B
:10073400FE7804E26ED000F6EF2405F8C000E6FE71
:100744007805E26ED000F6EF2406F8C000E6FE78E5
:1007540006E26ED000F6EF2407F8C000E6FE780744
:10076400E26ED000F6EF2408F8C000E6FE7808E256
:100774006ED000F6EF2409F8C000E6FE7809E26EB8
:10078400D000F6EF240AF8C000E6FE780AE26ED044
:1007940000F6EF240BF8C000E6FE780BE26ED00002
:1007A400F6EF240CF8C000E6FE780CE26ED000F6FA
:1007B400EF240DF8C000E6FE780DE26ED000F6EFEF
:1007C400240EF8C000E6FE780EE26ED000F6EF24A8
:0E07D4000FF8C000E6FF780FE26FD000F622AB
:1008B700780DE29005E993FE7800E2FDEE6DFEEF1C
:1008C7009006EA936EF2780EE29005E993FF7801BD
:1008D700E2FEEF6EF2780FE293FF7802E2FEEF6E30
:1008E700F2780CE293FF7803E2FEEF6EF208E2FF84
:1008F7007800E26F7804F208E2FF7801E26F78058A
:10090700F208E2FF7802E26F7806F208E2FF780366
:10091700E26F7807F208E2FF7804E26F7808F208DE
:10092700E2FF7805E26F7809F208E2FF7806E26FE6
:10093700780AF208E2FF7807E26F780BF208E2FF25
:100947007808E26F780CF208E2FF7809E26F780D19
:10095700F208E2FF780AE26F780EF208E2FF780BFE
:06096700E26F780FF2229E
:1004C900A807E6FE7800E26E9005E993A807F6E82A
:1004D9002404F8E6FE7804E26E93FEEF2404F8A6FD
:1004E90006EF2408F8E6FE7808E26E93FEEF24088A
:1004F900F8A606EF240CF8E6FE780CE26E93FEEF00
:10050900240CF8A606EF04F8E6FE7801E26E93F5EE
:100519002FEF2405F8E6FE7805E26E93FEEF04F866
:10052900A606EF2409F8E6FE7809E26E93FEEF24A9
:1005390005F8A606EF240DF8E6FE780DE26E93FEA7
:10054900EF2409F8A606EF240DF8A62FEF2402F8E8
:10055900E6FE7802E26E93F52FEF2406F8E6FE78C0
:1005690006E26E93F530EF240AF8E6FE780AE26EA9
:1005790093FEEF2402F8A606EF240EF8E6FE780EA5
:10058900E26E93FEEF2406F8A606EF240AF8A62FDA
:10059900EF240EF8A630EF240FF8E6FE780FE26E8E
:1005A90093F52FEF240BF8E6FE780BE26E93FEEF3E
:1005B900240FF8A606EF2407F8E6FE7807E26E9303
:1005C900FEEF240BF8A606EF2403F8E6FE7803E213
:0F05D9006E93FEEF2407F8A606EF2403F8A62F73
:0105E80022F0
:10020700EF2402F8E6FEEF2403F8E66EFEEF04F8AB
:10021700E6FD6EFEA807E6FC6EFEAB04EC6DF5DDB1
:10022700ADDFED6EFDE66DF6E82402F8E6FDEF04BE
:10023700F8E6FC6DF5DDADDFED6E6CF6EF2403F847
:10024700E6FDEF2402F8E6FC6DF5DDADDFED6E6C43
:10025700F6EF2403F8E6FC6BF5DDADDFED6E6CF62B
:10026700EF2406F8E6FEEF2407F8E66EFEEF240516
:10027700F8E6FD6EFEEF2404F8E6FC6EFEAB04EC38
:100287006DF5DDADDFED6E6CF6EF2406F8E6FDEFFC
:100297002405F8E6FC6DF5DDADDFED6E6CF6EF24B9
:1002A70007F8E6FDEF2406F8E6FC6DF5DDADDFEDBA
:1002B7006E6CF6EF2407F8E6FC6BF5DDADDFED6E4F
:1002C7006CF6EF240AF8E6FEEF240BF8E66EFEEF75
:1002D7002409F8E6FD6EFEEF2408F8E6FC6EFEAB97
:1002E70004EC6DF5DDADDFED6E6CF6EF240AF8E694
:1002F700FDEF2409F8E6FC6DF5DDADDFED6E6CF67C
:10030700EF240BF8E6FDEF240AF8E6FC6DF5DDAD0A
:10031700DFED6E6CF6EF240BF8E6FC6BF5DDADDF79
:10032700ED6E6CF6EF240EF8E6FEEF240FF8E66E9E
:10033700FEEF240DF8E6FD6EFEEF240CF8E66EFEE8
:10034700E6FB6DF5DDADDFED6EFDE66DF6EF240E38
:10035700F8E6FDEF240DF8E6FC6DF5DDADDFED6E9B
:100367006CF6EF240FF8E6FDEF240EF8E6FC6DF5CA
:10037700DDADDFED6E6CF6EF240FF8E6FC6BF5DD17
:06038700ADDFED6E6CF627
:01038D00224D
:1014ED00A2AF92D5C2AFD2FD8FFA20FCFDC2FDA2F4
:0414FD00D592AF22B3
:1013E900A2AF92D5C2AFD2FD8E4C8F4D8F828E8324
:0B13F900EDF020FCFDC2FDA2D592AF7C
:0114040022C5
:060E8F008B178A18891977
:100E9500A2AF92D5C2AFD2FD8E4E8F4FE51B151B6B
:100EA500AE1A7002151A4E6028AB170519E519AA76
:100EB500187002051814F912006EFF054FE54FACC6
:100EC5004E7002054E14F5828C83EFF030FCCD8018
:070ED500FBC2FDA2D592AFA4
:010EDC0022F3
:0616F3008F828E83E0FFF0
:0116F90022CE
:1012EF00E5201520AC1F7002151F4C60168F828EE3
:1012FF0083E01200B40FBF00010E740129F9E43A24
:03130F00FA80DD84
:0113120022B8
:0716FA00EFF5AFEEF5AF22A2
:0816C600AFAFAEAF8FAF8EAFE6
:0116CE0022F9
:04171C0043B31022A1
:0B162200EF600443B3082253B3F7222B
:0E15CE00EF25E05406FFE5B354F94FF5B322C4
:0B162D00EF600443B3012253B3FE2220
:10153C00E5B35406FD53B3F9EFF5B4EEF5B5ED4252
:01154C00B3EB
:01154D00227B
:10150100E5B35406FD53B3F9AFB5EFFEACB4ECFF50
:03151100ED42B3F5
:0115140022B4
:10151500E5B35408FD53B3F7AFABEFFEACB6ECFF44
:03152500ED42B3E1
:0115280022A0
:03172000AFAC2249
:0B163800EF600443D6802253D67F22CF
:0B164300EF600443D6402253D6BF22C4
:03172300AFD7221B
:10154E00E5D65420D39400E4940040037F01227F1B
:02155E00002269
:03000000020B44AC
:0C0B4400787FE4F6D8FD758189020B8BE8
:10006E00BB010689828A83E0225002E722BBFE0290
:09007E00E32289828A83E49322C3
:10008700BB010CE58229F582E5833AF583E022502E
:1000970006E92582F8E622BBFE06E92582F8E22278
:0D00A700E58229F582E5833AF583E4932292
:1000B400BB010689828A83F0225002F722BBFE012B
:0200C400F32225
:1000C600F8BB010DE58229F582E5833AF583E8F070
:1000D600225006E92582C8F622BBFE05E92582C81C
:0200E600F22204
:1000E800EB9FF5F0EA9E42F0E99D42F0E89C45F06E
:0100F80022E5
:1000F900EF4E6012EF60010EEDBB010B89828A831E
:10010900F0A3DFFCDEFA2289F05007F709DFFCA92A
:0C011900F022BBFEFCF309DFFCA9F02281
:10012500E709F608DFFA8046E709F208DFFA803EBC
:1001350088828C83E709F0A3DFFA8032E309F608A9
:10014500DFFA806EE309F208DFFA806688828C8325
:10015500E309F0A3DFFA805A89828A83E0A3F608CF
:10016500DFFA804E89828A83E0A3F208DFFA8042B3
:1001750080D280FA80C680D4805580F28029801094
:1001850080A680EA809A80A880DA80E280CA8029E9
:1001950088848C8589828A83E493A30586F0A305E8
:1001A50086DFF5DEF3800B89828A83E493A3F60864
:1001B500DFF9ECFAA9F0EDFB2288848C8589828A27
:1001C50083E0A30586F0A30586DFF6DEF480E389E8
:1001D500828A83E493A3F208DFF980D688F0EF6082
:1001E500010E4E60CD88F0ED2402B4040050C3F535
:1001F50082EB2402B4040050B923234582239001E5
:0202050075730F
:100B50000207E2E493A3F8E493A34003F68001F2D2
:100B600008DFF48029E493A3F85407240CC8C333A6
:100B7000C4540F4420C8834004F456800146F6DF75
:100B8000E4800B0102040810204080901180E47E74
:100B9000019360BCA3FF543F30E509541FFEE4936A
:100BA000A360010ECF54C025E060A840B8E493A331
:100BB000FAE493A3F8E493A3C8C582C8CAC583CA5C
:100BC000F0A3C8C582C8CAC583CADFE9DEE780BE14
:0111AB000043
:00000001FF
