:1011AD00053500000000CD053000000000AB1860D3
:1011BD005E6CA774FDE3DFBCF7DA4A4F652D6EF068
:0811CD00FFA6E65A8482664F7A
:100B7000120E571210FE1214DA120D13120BE17F2F
:100B8000007E0312163920830330813D7F647E008E
:100B900012140E30832B308128E4F514120F0F123B
:100BA0000FBE7B007A007914120F4AE5146006C26A
:100BB00091C2938004D291D29312160F12145E80C8
:100BC00008308305120E95B2937F14120CB3EF60B8
:100BD00008208305120E95B2911215FE121586801B
:010BE000A56F
:100E9500751A00751B00751C167B007A00791512F2
:100EA5000F847B017A007920AD15121313751A0191
:100EB500751B00751C207B017A0079101209417B96
:0D0EC500017A007910751B01AD16020E199F
:10145E0020830330810C1215FE7F327E0012140E93
:03146E0080EE22EB
:100D13007B007A0079187521007522047F007EFA22
:100D23001212737A0079787521007522107F047E80
:100D3300FA12127378357C007D007A0079187E00F0
:100D43007F041201E178307C007D007B007A00791A
:100D5300187E007F041201E17521007522007523BE
:0E0D6300007B007A0079787D04E4FF02162BF5
:100F4A008B158A168917E53B602F900034E064AB55
:100F5A00702712112C120D137B007A0079357F0647
:100F6A00120ED27B007A007930E4FF120ED2AB1552
:0A0F7A00AA16A91774011200B42290
:10112C007F201214227B017A007930751D00751E08
:10113C00047F007EFA120DCB7B017A007920751D9D
:0B114C0000751E107F047EFA020DCB20
:100FBE007F011212D77F011212B9D2E8E4F53BE598
:100FCE003B7018308315308112B291A291B3929377
:100FDE001215FE7F64FE12140E80E4C2E8E4FF12C6
:090FEE0012D77D10E4FF02161673
:020CB3008F159B
:100CB500E4F519F518F517F5167F011212D77F011E
:100CC5001212B9D2E8E4F53BE53B7031AF15FCFDF6
:100CD500FEAB19AA18A917A816C31200E8501E7F63
:100CE500017E0012140EE5192401F519E43518F5F5
:100CF50018E43517F517E43516F51680CBC2E8E488
:0D0D0500FF1212D77D10E4FF121616AF3B4F
:010D120022BE
:100F0F007E007F047D007B007A0079351200F97E28
:100F1F00007F047D007B007A0079301200F97B009E
:100F2F007A0079357F06120ED27B007A007930E491
:0B0F3F00FF120ED27D15E4FF02161613
:07160F007D10E4FF02161636
:100E19008D1A7D1012161DAF1A1212F5E51A640308
:100E29006003D38001C392907F011212D7E4FF12AD
:100E390012B9AF1B151BEF600DD2E8753A01E53AFF
:0E0E490070FCC2E880ECE4FF1212D7D29022B7
:101313008B178A188919ED75F008A42460F9E4FA8B
:0D132300FBA819AC18AD17FE7F080201E110
:100F84008B178A188919AB1AAA1BA91CE41200B47E
:100F940030810AAB17AA18A91974028019AB17AAD1
:100FA40018A91930830F74011200B4AB1AAA1BA933
:0A0FB4001C74038001E41200B42253
:061065008B4E8A4F8950FA
:10106B007E087F01121570AF061EEF601D121496DD
:10107B00EF60FA121662AB4E0550E550AA4F7002A4
:0F108B00054F14F9EF1200B480DDE4FF02157079
:100E5700E4FFEFFD3395E0FCC3ED9408EC64809468
:100E670080500AEF2470F59EF59F0F80E575930B70
:100E7700E4F594759F03F59F759E11759E13F58094
:0D0E8700F59075CF0BF5AED290C291C293DD
:010E9400223B
:100BE100E4FF1211577F011210CF7F051213B67D5A
:100BF1000F7C007F0F1212977F6E1213F97B007A20
:100C01000079357F06120ED27D10E4FF1216167D93
:100C110001E4FF120D717B007A007930E4FF120EBE
:100C2100D27D017F04120C4B7D017F05120C4B7D9F
:100C3100017F06120C4B7F011212277F041214A8A8
:0A0C41007F051214A87F060214A814
:1010FE00E4FF1215650F1215387F031215067FFFD8
:10110E007E7F1214847F01121565E5AD54806480D4
:0E111E0060F8E5AD5480648070F875B8282242
:0F14DA0012154FEF640270F8D2EAD2B9D2AF22E6
:0A15860075A40475A407E4F5A4227F
:03006B0002005A36
:01005A003273
:03005B0002006A36
:01006A003263
:03004B00020AFBAB
:100AFB00C0E0C0F0C083C082C085C084C08675864C
:100B0B0000C0D075D000C000C001C002C003C0043B
:060B1B00C005C006C00782
:100B210012004EEF24F0600A24D0600E2420701EC3
:100B310080031215EA753A0080141215A4EF700BA8
:0E0B41007B017A00792012165680EF753B0179
:100B4F00D007D006D005D004D003D002D001D000FA
:100B5F00D0D0D086D084D085D082D083D0F0D0E0D2
:010B6F003253
:0A1590008FE7E5E630E1FBAFE7224C
:0212B9008F1C88
:1012BB00E4FF1213698F1DE51C64017005431D01CA
:0C12CB008003531DFEAD1DE4FF02133034
:0212D7008F1C6A
:1012D900E4FF1213698F1DE51C64017005431D02AB
:0C12E9008003531DFDAD1DE4FF02133017
:0210CF008F157B
:1010D100E4FF1213698F16E51514600C14601124D6
:1010E1000270135316F7800E4316085316FB800641
:0D10F100431608431604AD16E4FF02133049
:040C4B008F158D165E
:100C4F00E4FF1213698F17E51524FB601E14603340
:100C5F0024027049E51660047F0080027F01EF5483
:100C6F0001C454F0FFE51754EF802FE51660047FA1
:100C7F000080027F01EF5401C43354E0FFE51754A5
:100C8F00DF8017E51660047F0080027F01EF5401BB
:100C9F00C4333354C0FFE51754BF4FF517AD17E4F6
:040CAF00FF021330FD
:0B004E007D707F07121330EF5470FF2D
:010059002284
:10139D007D707F07121330EF5470F55C7F071213C9
:0813AD0069EF540F425CAF5CD4
:0113B5002215
:1014A800A8077401088002C333D8FCFD7F07021324
:0114B8003003
:081607001215F4EF5470FF22EC
:040D71008F158D1637
:100D75007F021213698F177F011213698F18E5150A
:100D850024FA500624076021802EAF15A8077401A8
:100D9500088002C333D8FCFF4217E5166005EF4211
:100DA500188015EFF45218800F75173FE51660058A
:100DB50075183F8003E4F518AD177F02121330ADA7
:060DC500187F010213304B
:020003008F511B
:100005007F021213698F527F011213698F53E551D5
:1000150024FA5006240760168019AF51A807740109
:10002500088002C333D8FCF4525252538005E4F5DC
:1000350052F553AD527F02121330AD537F010213B7
:01004500308A
:100ED2008F188B198A1A891BE51814600A24FB5093
:100EE2001960042406702512159A8F20E518242A09
:100EF200FFAB19AA1AA91B020898E518240AFFAB2E
:0D0F020019AA1AA91B12006EFD121330224D
:10109A008F468B478A488949E54614600824FB60D5
:1010AA00042406700BAB47AA48A949AF4602038E2F
:1010BA00E546240AFF121369AB47AA48A949EF1269
:0510CA0000B47F0122CB
:02129700AB07A3
:10129900EC540FC454F0FFE515540F4FF515EB54FA
:1012A9000FFFE51554F04FF515AD157F0402133006
:1013B600E4F515EF24FE5403FFE51554FC4FF5152F
:0713C600AD157F0302133097
:0A159A007F03121369EF2402FF2201
:07161600EF2411FF02133065
:0209DF008F3C4B
:1009E1007F021213698F3D7F011213698F3EE53C2F
:1009F10014601A14602714603414604314604E2488
:100A010005705EE53D5401F53FE53E804EAF3DEF9B
:100A1100C3135401F53FAF3EEFC313803EAF3DEF2B
:100A210013135401F53FAF3EEF1313802EAF3DEF8B
:100A31001313135401F53FAF3EEF131313801CAF93
:100A41003DEFC45401F53FAF3EEFC4800EAF3DEF23
:100A5100C4135401F53FAF3EEFC4135401F5408078
:0D0A610005E4F53FF540E54025E0253FFFA9
:010A6E002265
:050046007F08021369B0
:1013CD007F08121369EF54F0FFE4C4F854F0C8EF2E
:0613DD00C4540F48FF227A
:100FF700EF14601414601514601614601714601849
:101007002405701D7F1180127F12800E7F13800AC6
:101017007F1480067F1580027F161213698F5D800B
:0610270003E4F55DAF5D7E
:01102D0022A0
:1013F900E4F515EF547FFFE51554804FF515AD154C
:051409007F0502133015
:0212F5008F1C4C
:1012F7007F061213698F1DE51C540325E0FFE51DCA
:0C13070054F94FF51DAD1D7F0602133098
:021157008F15F2
:101159007F061213698F16E515600924FE700D4389
:10116900162080035316DF5316F780065316DF4304
:091179001608AD167F06021330C2
:0A15A4007F17121369EF5401FF22B4
:0C005E007F17121369EFC3135401FF2237
:0B1544007F17121369EFC45401FF224F
:0C1514007F17121369EFC4135401FF226B
:1013E3007F17121369EF5430FFE4C4F854F0C8EFC9
:0613F300C4540F48FF2264
:0A15AE007F17121369EF5403FF22A8
:05164C007F1702136985
:0A15B8007F08121369EF540FFF22A1
:0A15C2007F09121369EF5401FF22A4
:011665002262
:0C152000EF543FF55EAD5E7F1C021330FF
:0211D6008F5434
:1011D8007F1D1213698F55E55460047F0180027FDB
:1011E80000EF540125E025E0FFE55554FB4FF55588
:0711F800AD557F1D0213300D
:021227008F1521
:101229007F1D1213698F16E51560047F0180027F07
:1012390000EF540125E0FFE51654FD4FF516AD16F4
:051249007F1D021330BF
:02124E008F56B9
:101250007F1D1213698F57E55660047F0180027F5E
:1012600000EF5401FFE55754FE4FF557AD577F1D72
:0312700002133036
:07161D008D207FA002089858
:071624008D207FB002089841
:0A15CC00EF44A8FF854520020898AF
:051651007F6002136937
:051656007F0802038E75
:0E14F8001215F4EF540EFFE4C313EF13FF229E
:0A15D600C2E97FE3121590D2E9226A
:1014710012164C7E00EF54407806CEC313CE13D81B
:03148100F9FF224E
:0A15E000C2E97FE2121590D2E92261
:0A15EA00C2E97FE1121590D2E92258
:0915F400C2E97FFF121590D2E953
:0115FD0022CB
:0211FF008F5807
:101201007F061213698F59E55860047F0180027FC0
:1012110000EF5401C454F0FFE55954EF4FF559ADB7
:06122100597F06021330A4
:021182008F5A82
:101184007F061213698F5BE55A60047F0180027F3A
:1011940000EF5401C43333335480FFE55B547F4F75
:0911A400F55BAD5B7F0602133020
:10136900C2E98FE7E5E6540260FAAFE7E4F5E7E59D
:09137900E6540260FAAFE7D2E984
:011382002248
:10133000C2E9EF2420F5E7E5E6540260FAAFE78D55
:0C134000E7E5E6540260FA85E75FD2E9B9
:01134C00227E
:08038E008F088B098A0A890B14
:1003960075100185090EE50814600C24FB6008241D
:1003A600FE60142408702E12159A8F0C8F0DC2E968
:1003B600E508240AFF80191214F88F08C3EF940782
:1003C600E4940050101216518F0C8F0DC2E97F6114
:1003D6001215908005E4F50DF50CAF0E7E00EF705A
:0103E60028EE
:1003E700850B11E4F5E7E5107008A811A60F0511B4
:1003F7008003E4F510E5E6540260FA85E70FD50CB3
:05040700E2A811A60FA0
:09040C000204C0EF64014E703AD5
:10041500850A11850B12E4F5E7E510701385128244
:10042500851183E50FF00512E512700705118003AC
:10043500E4F510E5E6540260FA85E70FD50CD7859B
:080445001282851183E50FF01E
:08044D008071E50E64FE7029C8
:10045500850B11E4F5E7E5107009A811E50FF20524
:10046500118003E4F510E5E6540260FA85E70FD53F
:070475000CE1A811E50FF2F4
:02047C008042BC
:10047E00850911850A12850B13E4F5E7E51070184E
:10048E00AB11AA12A913E50F1200B474012513F5CE
:10049E0013E43512F5128003E4F510E5E65402601C
:1004AE00FA85E70FD50CD2AB11AA12A913E50F12DC
:0204BE0000B488
:0804C000D2E9E508FEE50DFF9D
:0104C8002211
:060898008B1D8A1E891F62
:09089E00AD1DC2E98FE7ED7019F0
:1008A700851F22A822E6FE0522E5E6540260FA85A6
:0708B700E7218EE7D520ECDC
:0708BE008075ED6401702656
:1008C500851E22851F23852382852283E0FE05233D
:1008D500E52370020522E5E6540260FA85E7218EDC
:0408E500E7D520E251
:0708E900804AED64FE701966
:1008F000851F22A822E2FE0522E5E6540260FA8561
:07090000E7218EE7D520EC92
:02090700802C42
:10090900851D22851E23851F24AB22AA23A9241213
:10091900006EFE74012524F524E43523F523E5E66C
:0C092900540260FA85E7218EE7D520DD3E
:0B093500E5E6540260FA85E721D2E9F4
:010940002294
:1014CA00EF6009E5A3448054F7F5A32253A37722DA
:1014B900EF5401C4333354C0FFE5A354B74FF5A328
:0114C9002200
:0F14E900EF5403C454F0FFE5A354C74FF5A322FB
:0A154F00E5AD30E3037F02227F01C7
:01155900226F
:0C152C00EF5407FFE5A354F04FF5A32295
:06164000E5AD5480FF221D
:06164600E5AD5440FF2257
:0C153800EF5407FFE5AD54F84FF5AD226D
:0B1383007FFA7E0012138E7FFA7E00BE
:0F138E000000000000EF1F70011E144E70F222CD
:10140E00AD07AC06121383121383ED1D70011C146D
:04141E004C70F122FB
:1005E900637C777BF26B6FC53001672BFED7AB76E7
:1005F900CA82C97DFA5947F0ADD4A2AF9CA472C092
:10060900B7FD9326363FF7CC34A5E5F171D83115FE
:1006190004C723C31896059A071280E2EB27B2751F
:1006290009832C1A1B6E5AA0523BD6B329E32F8497
:1006390053D100ED20FCB15B6ACBBE394A4C58CF8F
:10064900D0EFAAFB434D338545F9027F503C9FA863
:1006590051A3408F929D38F5BCB6DA2110FFF3D231
:10066900CD0C13EC5F974417C4A77E3D645D1973E5
:1006790060814FDC222A908846EEB814DE5E0BDBDF
:10068900E0323A0A4906245CC2D3AC629195E47916
:10069900E7C8376D8DD54EA96C56F4EA657AAE0870
:1006A900BA78252E1CA6B4C6E8DD741F4BBD8B8A0B
:1006B900703EB5664803F60E613557B986C11D9E71
:1006C900E1F8981169D98E949B1E87E9CE5528DFE8
:1006D9008CA1890DBFE6426841992D0FB054BB1614
:0B06E9008D01020408102040801B3629
:07162B008F1C8D1D02102E23
:060941008B178A188919CA
:10094700E4F52DC3E52D941074809480501BAB1AE9
:10095700AA1BA91C852D82758300120087FF741DB1
:10096700252DF8A607052D80DA75DE02E4F52DC3DF
:10097700E52D94097480948050137F1D1204C97F5C
:100987001D120207AF2D1207E2052D80E27F1D120F
:1009970004C97F091207E27F1D1206F4E4F52DC38F
:1009A700E52D941074809480502D7435252DF58293
:1009B700E43400F583E0FF7400252DF8EFF2741D91
:1009C700252DF8E6AB17AA18A919852D827583007E
:0709D7001200C6052D80C8C7
:0109DE0022F6
:06102E008B248A258926AF
:10103400E4FFEFC39410748094805024AB24AA2559
:10104400A9268F82758300120087FE74002FF8EEA4
:10105400F274352FF582E43400F583EEF00F80D27C
:011064002269
:1006F400A807C000E6FE7800E26ED000F6EF04F82A
:10070400C000E6FE7801E26ED000F6EF2402F8C0E5
:1007140000E6FE7802E26ED000F6EF2403F8C00093
:10072400E6FE7803E26ED000F6EF2404F8C000E69B
:10073400FE7804E26ED000F6EF2405F8C000E6FE71
:100744007805E26ED000F6EF2406F8C000E6FE78E5
:1007540006E26ED000F6EF2407F8C000E6FE780744
:10076400E26ED000F6EF2408F8C000E6FE7808E256
:100774006ED000F6EF2409F8C000E6FE7809E26EB8
:10078400D000F6EF240AF8C000E6FE780AE26ED044
:1007940000F6EF240BF8C000E6FE780BE26ED00002
:1007A400F6EF240CF8C000E6FE780CE26ED000F6FA
:1007B400EF240DF8C000E6FE780DE26ED000F6EFEF
:1007C400240EF8C000E6FE780EE26ED000F6EF24A8
:0E07D4000FF8C000E6FF780FE26FD000F622AB
:1007E200780DE29005E993FE7800E2FDEE6DFEEFF2
:1007F2009006EA936EF2780EE29005E993FF780193
:10080200E2FEEF6EF2780FE293FF7802E2FEEF6E05
:10081200F2780CE293FF7803E2FEEF6EF208E2FF59
:100822007800E26F7804F208E2FF7801E26F78055F
:10083200F208E2FF7802E26F7806F208E2FF78033C
:10084200E26F7807F208E2FF7804E26F7808F208B4
:10085200E2FF7805E26F7809F208E2FF7806E26FBC
:10086200780AF208E2FF7807E26F780BF208E2FFFB
:100872007808E26F780CF208E2FF7809E26F780DEF
:10088200F208E2FF780AE26F780EF208E2FF780BD4
:06089200E26F780FF22274
:1004C900A807E6FE7800E26E9005E993A807F6E82A
:1004D9002404F8E6FE7804E26E93FEEF2404F8A6FD
:1004E90006EF2408F8E6FE7808E26E93FEEF24088A
:1004F900F8A606EF240CF8E6FE780CE26E93FEEF00
:10050900240CF8A606EF04F8E6FE7801E26E93F5EE
:100519002EEF2405F8E6FE7805E26E93FEEF04F867
:10052900A606EF2409F8E6FE7809E26E93FEEF24A9
:1005390005F8A606EF240DF8E6FE780DE26E93FEA7
:10054900EF2409F8A606EF240DF8A62EEF2402F8E9
:10055900E6FE7802E26E93F52EEF2406F8E6FE78C1
:1005690006E26E93F52FEF240AF8E6FE780AE26EAA
:1005790093FEEF2402F8A606EF240EF8E6FE780EA5
:10058900E26E93FEEF2406F8A606EF240AF8A62EDB
:10059900EF240EF8A62FEF240FF8E6FE780FE26E8F
:1005A90093F52EEF240BF8E6FE780BE26E93FEEF3F
:1005B900240FF8A606EF2407F8E6FE7807E26E9303
:1005C900FEEF240BF8A606EF2403F8E6FE7803E213
:0F05D9006E93FEEF2407F8A606EF2403F8A62E74
:0105E80022F0
:10020700EF2402F8E6FEEF2403F8E66EFEEF04F8AB
:10021700E6FD6EFEA807E6FC6EFEAB04EC6DF5DDB1
:10022700ADDFED6EFDE66DF6E82402F8E6FDEF04BE
:10023700F8E6FC6DF5DDADDFED6E6CF6EF2403F847
:10024700E6FDEF2402F8E6FC6DF5DDADDFED6E6C43
:10025700F6EF2403F8E6FC6BF5DDADDFED6E6CF62B
:10026700EF2406F8E6FEEF2407F8E66EFEEF240516
:10027700F8E6FD6EFEEF2404F8E6FC6EFEAB04EC38
:100287006DF5DDADDFED6E6CF6EF2406F8E6FDEFFC
:100297002405F8E6FC6DF5DDADDFED6E6CF6EF24B9
:1002A70007F8E6FDEF2406F8E6FC6DF5DDADDFEDBA
:1002B7006E6CF6EF2407F8E6FC6BF5DDADDFED6E4F
:1002C7006CF6EF240AF8E6FEEF240BF8E66EFEEF75
:1002D7002409F8E6FD6EFEEF2408F8E6FC6EFEAB97
:1002E70004EC6DF5DDADDFED6E6CF6EF240AF8E694
:1002F700FDEF2409F8E6FC6DF5DDADDFED6E6CF67C
:10030700EF240BF8E6FDEF240AF8E6FC6DF5DDAD0A
:10031700DFED6E6CF6EF240BF8E6FC6BF5DDADDF79
:10032700ED6E6CF6EF240EF8E6FEEF240FF8E66E9E
:10033700FEEF240DF8E6FD6EFEEF240CF8E66EFEE8
:10034700E6FB6DF5DDADDFED6EFDE66DF6EF240E38
:10035700F8E6FDEF240DF8E6FC6DF5DDADDFED6E9B
:100367006CF6EF240FF8E6FDEF240EF8E6FC6DF5CA
:10037700DDADDFED6E6CF6EF240FF8E6FC6BF5DD17
:06038700ADDFED6E6CF627
:01038D00224D
:10142200A2AF92D5C2AFD2FD8FFA20FCFDC2FDA2BF
:04143200D592AF227E
:10134D00A2AF92D5C2AFD2FD8E4A8F4B8F828E83C4
:0B135D00EDF020FCFDC2FDA2D592AF18
:011368002262
:060DCB008B1A8A1B891C33
:100DD100A2AF92D5C2AFD2FD8E4C8F4DE51E151E2E
:100DE100AE1D7002151D4E6028AB1A051CE51CAA2C
:100DF1001B7002051B14F912006EFF054DE54DAC89
:100E01004C7002054C14F5828C83EFF030FCCD80E0
:070E1100FBC2FDA2D592AF68
:010E180022B7
:061632008F828E83E0FFB1
:01163800228F
:10127300E5221522AC21700215214C60168F828E57
:1012830083E01200B40FBF00010E740129F9E43AA0
:03129300FA80DD01
:011296002235
:07163900EFF5AFEEF5AF2263
:0815FE00AFAFAEAF8FAF8EAFAF
:0116060022C1
:04165B0043B3102263
:0B155A00EF600443B3082253B3F722F4
:0E150600EF25E05406FFE5B354F94FF5B3228C
:0B156500EF600443B3012253B3FE22E9
:10148400E5B35406FD53B3F9EFF5B4EEF5B5ED420B
:01149400B3A4
:011495002234
:10143600E5B35406FD53B3F9AFB5EFFEACB4ECFF1C
:03144600ED42B3C1
:011449002280
:10144A00E5B35408FD53B3F7AFABEFFEACB6ECFF10
:03145A00ED42B3AD
:01145D00226C
:03165F00AFAC220B
:0B157000EF600443D6802253D67F2298
:0B157B00EF600443D6402253D6BF228D
:03166200AFD722DD
:10149600E5D65420D39400E4940040037F01227FD4
:0214A600002222
:03000000020A6F82
:0C0A6F00787FE4F6D8FD758187020AB696
:10006E00BB010689828A83E0225002E722BBFE0290
:09007E00E32289828A83E49322C3
:10008700BB010CE58229F582E5833AF583E022502E
:1000970006E92582F8E622BBFE06E92582F8E22278
:0D00A700E58229F582E5833AF583E4932292
:1000B400BB010689828A83F0225002F722BBFE012B
:0200C400F32225
:1000C600F8BB010DE58229F582E5833AF583E8F070
:1000D600225006E92582C8F622BBFE05E92582C81C
:0200E600F22204
:1000E800EB9FF5F0EA9E42F0E99D42F0E89C45F06E
:0100F80022E5
:1000F900EF4E6012EF60010EEDBB010B89828A831E
:10010900F0A3DFFCDEFA2289F05007F709DFFCA92A
:0C011900F022BBFEFCF309DFFCA9F02281
:10012500E709F608DFFA8046E709F208DFFA803EBC
:1001350088828C83E709F0A3DFFA8032E309F608A9
:10014500DFFA806EE309F208DFFA806688828C8325
:10015500E309F0A3DFFA805A89828A83E0A3F608CF
:10016500DFFA804E89828A83E0A3F208DFFA8042B3
:1001750080D280FA80C680D4805580F28029801094
:1001850080A680EA809A80A880DA80E280CA8029E9
:1001950088848C8589828A83E493A30586F0A305E8
:1001A50086DFF5DEF3800B89828A83E493A3F60864
:1001B500DFF9ECFAA9F0EDFB2288848C8589828A27
:1001C50083E0A30586F0A30586DFF6DEF480E389E8
:1001D500828A83E493A3F208DFF980D688F0EF6082
:1001E500010E4E60CD88F0ED2402B4040050C3F535
:1001F50082EB2402B4040050B923234582239001E5
:0202050075730F
:100A7B00020B70E493A3F8E493A34003F68001F216
:100A8B0008DFF48029E493A3F85407240CC8C3337C
:100A9B00C4540F4420C8834004F456800146F6DF4B
:100AAB00E4800B01020408102040809011ADE47E1D
:100ABB00019360BCA3FF543F30E509541FFEE49340
:100ACB00A360010ECF54C025E060A840B8E493A307
:100ADB00FAE493A3F8E493A3C8C582C8CAC583CA32
:100AEB00F0A3C8C582C8CAC583CADFE9DEE780BEEA
:0111D5000019
:00000001FF
