:10110600053600000000CD053100000000AB2020B0
:10111600615E6CA774FDE3DFBCF7DA4A4F652D6E9E
:10112600F0FFA6E65A8482664FABF583C4E9270A28
:01113600B206
:1007E200E4F514120F0A121167121565120D0E129A
:1007F2000C3E7F007E031216CF3084063086030241
:1008020008877F647E001214AC2084232086201285
:100812000F87120E29EF6007121195E4FF80027F05
:100822000112169212131E121066121030807620D8
:10083200841F121066E47BB87A0BF9F8C31200E841
:100842007B057D0350047F0380027F011200038039
:1008520049208651121030E47BB87A0BF9F8C312A2
:1008620000E8500EE51470047F0180027F008F14AF
:1008720080337F0F120D6FEF602B7B017D037F02B0
:1008820012000380157F0F120D6FEF60187B017D40
:1008920003E4FF120003E514600B7F0A7E007D0073
:0E08A2007C0012142212169B1216110207FB84
:101422008F188E178D168C157F01121692AE17AF7C
:09143200181214ACE4FF0216923A
:091689002083037F01227F00226F
:09169200EF24FFB39283D28222FF
:100003008F158D168B177B017A007920AD1512138E
:1000130098751B01751C00751D207B017A007910F2
:10002300120A0FE51564016003D38001C39294AFF4
:10003300171517EF600D7B017A007910AD161212B8
:060043008E80ECD2942235
:10128E008D187D101216B3AF1812137A7F01121338
:10129E005CE4FF12133ED2E8753B01E53B70FCC2E5
:0512AE00E8FF02135CE3
:100E29007F0112135C7F0112133ED2E8E4F53CE521
:100E39003C702120841E20861B121689EF70047FC6
:100E49000180027F0012169212169B7F647E0012A7
:100E590014AC80DBC2E8E4FF12135C7D10E4FF12DE
:100E690016AC900034E064AB70037F01227F00224E
:020D6F008F15DE
:100D7100E4F519F518F517F5167F0112135C7F01DB
:100D810012133ED2E8E4F53CE53C7031AF15FCFDB1
:100D9100FEAB19AA18A917A816C31200E8501E7FA6
:100DA100017E001214ACE5192401F519E43518F59A
:100DB10018E43517F517E43516F51680CBC2E8E4CB
:0D0DC100FF12135C7D10E4FF1216ACAF3C76
:010DCE002202
:100F87007E007F047D007B007A0079361200F97EAF
:100F9700007F047D007B007A0079311200F97B0025
:100FA7007A0079367F06120F4A7B007A007931E49E
:0B0FB700FF120F4A7D15E4FF0216AC8C
:10131E00120D0E7B007A0079367F06120F4A7B0083
:10132E007A007931E4FF120F4A7D10E4FF0216AC09
:101398008B188A19891AED75F008A42461F9E4FA02
:0D13A800FBA81AAC19AD18FE7F080201E188
:06109C008B4F8A508951C0
:1010A2007E087F011215FBAF061EEF601D1215218F
:1010B200EF60FA1216FDAB4F0551E551AA507002CE
:0F10C200055014F9EF1200B480DDE4FF0215FBB6
:10103000E4F518F517F516F51520862112169B7F95
:10104000327E001214ACE5182432F518E43517F599
:1010500017E43516F516E43515F51580DCAF18AE36
:0510600017AD16AC15F0
:011065002268
:10106600E4F518F517F516F51520842112169B7F61
:10107600327E001214ACE5182432F518E43517F563
:1010860017E43516F516E43515F51580DCAF18AE00
:0510960017AD16AC15BA
:01109B002232
:101195007F201214C07B017A007930751A00751B07
:1011A500047F007EFA120E797B017A007920751A88
:0B11B50000751B107F047EFA020E790B
:100D0E007515047B007A007916751F008515207FF6
:100D1E00007EFA1212D87A007981751F00752010A4
:100D2E007F047EFA1212D8AF157E0078367C007DD5
:100D3E00007A0079161201E1AF157E0078317C0041
:100D4E007D007B007A0079161201E1751F00752077
:100D5E00007521007B007A0079817D04E4FF021684
:010D6E00C1C3
:100F0A00E4FFEFFD3395E0FCC3ED9408EC648094B4
:100F1A0080500AEF2470F59EF59F0F80E575935077
:100F2A00E4F594759E03759E02759E56759E5475DA
:0F0F3A009F047580FFF590F5CFD294D282D283B9
:010F49002285
:100C3E007F021211C07F011211387F05121454E485
:100C4E00FDFCFF1212FC7F6E1214977B007A007966
:100C5E00367F06120F4A7D10E4FF1216AC7D01E4BA
:100C6E00FF120DCF7B007A007931E4FF120F4A7D1F
:100C7E00017F04120CA67D017F05120CA67D017F5B
:100C8E0006120CA67F011212677F041215337F0520
:080C9E001215337F0602153325
:10116700E4FF1215F00F1215C37F031215917FFFCD
:101177007E7F12150F7F011215F0E5AD5480648054
:0E11870060F8E5AD5480648070F875B82822D9
:0F1565001215DAEF640270F8D2EAD2B9D2AF22CF
:0A16110075A40475A407E4F5A422F3
:03006B0002004947
:010049003284
:03005B0002004A56
:01004A003283
:03004B00020BC9DC
:100BC900C0E0C0F0C083C082C085C084C08675867D
:100BD90000C0D075D000C000C001C002C003C0046D
:060BE900C005C006C007B4
:100BEF0012004EEF24F0600A24D0600E2420701EF5
:100BFF008003121675753B00801412162FEF700BC1
:0E0C0F007B017A0079201216F180EF753C010E
:100C1D00D007D006D005D004D003D002D001D0002B
:100C2D00D0D0D086D084D085D082D083D0F0D0E003
:010C3D003284
:0A161B008FE7E5E630E1FBAFE722C0
:02133E008F1A04
:10134000E4FF1213EE8F1BE51A64017005431B01C5
:0C1350008003531BFEAD1BE4FF0213B52D
:02135C008F1AE6
:10135E00E4FF1213EE8F1BE51A64017005431B02A6
:0C136E008003531BFDAD1BE4FF0213B510
:021138008F1511
:10113A00E4FF1213EE8F16E51514600C14601124E7
:10114A000270135316F7800E4316085316FB8006D7
:0D115A00431608431604AD16E4FF0213B55A
:040CA6008F158D1603
:100CAA00E4FF1213EE8F17E51524FB601E14603360
:100CBA0024027049E51660047F0080027F01EF5428
:100CCA0001C454F0FFE51754EF802FE51660047F46
:100CDA000080027F01EF5401C43354E0FFE517544A
:100CEA00DF8017E51660047F0080027F01EF540160
:100CFA00C4333354C0FFE51754BF4FF517AD17E49B
:040D0A00FF0213B51C
:0B004E007D707F071213B5EF5470FFA8
:010059002284
:10143B007D707F071213B5EF5470F55D7F071213A4
:08144B00EEEF540F425DAF5DAE
:011453002276
:10153300A8077401088002C333D8FCFD7F07021398
:01154300B5F2
:0816A40012167FEF5470FF22C3
:040DCF008F158D16D9
:100DD3007F021213EE8F177F011213EE8F18E515A2
:100DE30024FA500624076021802EAF15A80774014A
:100DF300088002C333D8FCFF4217E5166005EF42B3
:100E0300188015EFF45218800F75173FE51660052B
:100E130075183F8003E4F518AD177F021213B5ADC3
:060E2300187F010213B567
:020EC7008F5248
:100EC9007F021213EE8F537F011213EE8F54E552F6
:100ED90024FA5006240760168019AF52A807740136
:100EE900088002C333D8FCF4525352548005E4F508
:100EF90053F554AD537F021213B5AD547F0102135C
:010F0900B532
:100F4A008F158B168A178918E51514600A24FB5029
:100F5A00196004240670251216258F1DE515242A0A
:100F6A00FFAB16AA17A918020966E515240AFFABF2
:0D0F7A0016AA17A91812006EFD1213B52259
:1010D1008F478B488A49894AE54714600824FB6099
:1010E100042406700BAB48AA49A94AAF4702038EF4
:1010F100E547240AFF1213EEAB48AA49A94AEF12A9
:0511010000B47F012293
:0212FC00AB073E
:1012FE00EC540FC454F0FFE515540F4FF515EB5495
:10130E000FFFE51554F04FF515AD157F040213B51B
:10145400E4F515EF24FE5403FFE51554FC4FF51590
:07146400AD157F030213B573
:0A1625007F031213EEEF2402FF22F0
:0716AC00EF2411FF0213B54A
:020AAD008F3D7B
:100AAF007F021213EE8F3E7F011213EE8F3FE53D53
:100ABF0014601A14602714603414604314604E24B9
:100ACF0005705EE53E5401F540E53F804EAF3EEFC9
:100ADF00C3135401F540AF3FEFC313803EAF3EEF5A
:100AEF0013135401F540AF3FEF1313802EAF3EEFBA
:100AFF001313135401F540AF3FEF131313801CAFC3
:100B0F003EEFC45401F540AF3FEFC4800EAF3EEF50
:100B1F00C4135401F540AF3FEFC4135401F54180A6
:0D0B2F0005E4F540F541E54125E02540FFD6
:010B3C002296
:0516E2007F080213EE79
:10146B007F081213EEEF54F0FFE4C4F854F0C8EF0A
:06147B00C4540F48FF22DB
:100FC200EF1460141460151460161460171460187E
:100FD2002405701D7F1180127F12800E7F13800AFC
:100FE2007F1480067F1580027F161213EE8F5E80BB
:060FF20003E4F55EAF5EB2
:010FF80022D6
:10149700E4F515EF547FFFE51554804FF515AD15AD
:0514A7007F050213B5F2
:02137A008F19C9
:10137C007F061213EE8F1AE519540325E0FFE51AC8
:0C138C0054F94FF51AAD1A7F060213B594
:0211C0008F1589
:1011C2007F061213EE8F16E515600924FE700D439B
:1011D200162080035316DF5316F780065316DF439B
:0911E2001608AD167F060213B5D4
:0A162F007F171213EEEF5401FF22A3
:0C005E007F171213EEEFC3135401FF22B2
:0B15CF007F171213EEEFC45401FF223F
:0C159F007F171213EEEFC4135401FF225B
:101481007F171213EEEF5430FFE4C4F854F0C8EFA5
:06149100C4540F48FF22C5
:0A1639007F171213EEEF5403FF2297
:0516E7007F170213EE65
:0A1643007F081213EEEF540FFF2290
:0A164D007F091213EEEF5401FF2293
:01005A002283
:0C15AB00EF543FF55FAD5F7F1C0213B5ED
:021216008F55F2
:101218007F1D1213EE8F56E55560047F0180027F13
:1012280000EF540125E025E0FFE55654FB4FF55645
:07123800AD567F1D0213B546
:021267008F15E1
:101269007F1D1213EE8F16E51560047F0180027F42
:1012790000EF540125E0FFE51654FD4FF516AD16B4
:051289007F1D0213B5FA
:0212B3008F5753
:1012B5007F1D1213EE8F58E55760047F0180027F72
:1012C50000EF5401FFE55854FE4FF558AD587F1D0A
:0312D5000213B54C
:0716B3008D1D7FA0020966F6
:0716BA008D1D7FB0020966DF
:0A165700EF44A8FF85461D02096656
:0516EC007F600213EE17
:0516F1007F0802038EDA
:0E15830012167FEF540EFFE4C313EF13FF2286
:0A166100C2E97FE312161BD2E92252
:1014FC001216E77E00EF54407806CEC313CE13D8F5
:03150C00F9FF22C2
:0A166B00C2E97FE212161BD2E92249
:0A167500C2E97FE112161BD2E92240
:09167F00C2E97FFF12161BD2E93B
:01168800223F
:02123F008F59C5
:101241007F061213EE8F5AE55960047F0180027FF9
:1012510000EF5401C454F0FFE55A54EF4FF55AAD75
:061261005A7F060213B5DE
:0211EB008F5B18
:1011ED007F061213EE8F5CE55B60047F0180027F4A
:1011FD0000EF5401C43333335480FFE55C547F4F0B
:09120D00F55CAD5C7F060213B52F
:1013EE00C2E98FE7E5E6540260FAAFE7E4F5E7E518
:0913FE00E6540260FAAFE7D2E9FF
:0114070022C2
:1013B500C2E9EF2420F5E7E5E6540260FAAFE78DD0
:0C13C500E7E5E6540260FA85E760D2E933
:0113D10022F9
:08038E008F088B098A0A890B14
:1003960075100185090EE50814600C24FB6008241D
:1003A600FE60142408702E1216258F0C8F0DC2E9DC
:1003B600E508240AFF80191215838F08C3EF9407F6
:1003C600E4940050101216EC8F0C8F0DC2E97F6179
:1003D60012161B8005E4F50DF50CAF0E7E00EF70CE
:0103E60028EE
:1003E700850B11E4F5E7E5107008A811A60F0511B4
:1003F7008003E4F510E5E6540260FA85E70FD50CB3
:05040700E2A811A60FA0
:09040C000204C0EF64014E703AD5
:10041500850A11850B12E4F5E7E510701385128244
:10042500851183E50FF00512E512700705118003AC
:10043500E4F510E5E6540260FA85E70FD50CD7859B
:080445001282851183E50FF01E
:08044D008071E50E64FE7029C8
:10045500850B11E4F5E7E5107009A811E50FF20524
:10046500118003E4F510E5E6540260FA85E70FD53F
:070475000CE1A811E50FF2F4
:02047C008042BC
:10047E00850911850A12850B13E4F5E7E51070184E
:10048E00AB11AA12A913E50F1200B474012513F5CE
:10049E0013E43512F5128003E4F510E5E65402601C
:1004AE00FA85E70FD50CD2AB11AA12A913E50F12DC
:0204BE0000B488
:0804C000D2E9E508FEE50DFF9D
:0104C8002211
:060966008B1A8A1B891C9C
:09096C00AD1AC2E98FE7ED701924
:10097500851C1FA81FE6FE051FE5E6540260FA85E3
:07098500E71E8EE7D51DEC13
:07098C008075ED6401702687
:10099300851B1F851C20852082851F83E0FE052083
:1009A300E5207002051FE5E6540260FA85E71E8E16
:0409B300E7D51DE285
:0709B700804AED64FE701997
:1009BE00851C1FA81FE2FE051FE5E6540260FA859E
:0709CE00E71E8EE7D51DECCA
:0209D500802C74
:1009D700851A1F851B20851C21AB1FAA20A9211260
:1009E700006EFE74012521F521E43520F520E5E6AA
:0C09F700540260FA85E71E8EE7D51DDD76
:0B0A0300E5E6540260FA85E71ED2E928
:010A0E0022C5
:10155500EF6009E5A3448054F7F5A32253A377224E
:10154400EF5401C4333354C0FFE5A354B74FF5A39C
:011554002274
:0F157400EF5403C454F0FFE5A354C74FF5A3226F
:0A15DA00E5AD30E3037F02227F013C
:0115E40022E4
:0C15B700EF5407FFE5A354F04FF5A3220A
:0616D600E5AD5480FF2287
:0616DC00E5AD5440FF22C1
:0C15C300EF5407FFE5AD54F84FF5AD22E2
:0B1408007FFA7E001214137FFA7E00B2
:0F1413000000000000EF1F70011E144E70F22247
:1014AC00AD07AC06121408121408ED1D70011C14C3
:0414BC004C70F1225D
:1005E900637C777BF26B6FC53001672BFED7AB76E7
:1005F900CA82C97DFA5947F0ADD4A2AF9CA472C092
:10060900B7FD9326363FF7CC34A5E5F171D83115FE
:1006190004C723C31896059A071280E2EB27B2751F
:1006290009832C1A1B6E5AA0523BD6B329E32F8497
:1006390053D100ED20FCB15B6ACBBE394A4C58CF8F
:10064900D0EFAAFB434D338545F9027F503C9FA863
:1006590051A3408F929D38F5BCB6DA2110FFF3D231
:10066900CD0C13EC5F974417C4A77E3D645D1973E5
:1006790060814FDC222A908846EEB814DE5E0BDBDF
:10068900E0323A0A4906245CC2D3AC629195E47916
:10069900E7C8376D8DD54EA96C56F4EA657AAE0870
:1006A900BA78252E1CA6B4C6E8DD741F4BBD8B8A0B
:1006B900703EB5664803F60E613557B986C11D9E71
:1006C900E1F8981169D98E949B1E87E9CE5528DFE8
:1006D9008CA1890DBFE6426841992D0FB054BB1614
:0B06E9008D01020408102040801B3629
:0716C1008F1A8D1B020FF9C7
:060A0F008B188A19891AF8
:100A1500E4F52EC3E52E941074809480501BAB1B17
:100A2500AA1CA91D852E82758300120087FF741EDE
:100A3500252EF8A607052E80DA75DE02E4F52EC30D
:100A4500E52E94097480948050137F1E1204C97F8B
:100A55001E120207AF2E1208B0052E80E27F1E126D
:100A650004C97F091208B07F1E1206F4E4F52EC3EF
:100A7500E52E941074809480502D7435252EF582C2
:100A8500E43400F583E0FF7400252EF8EFF2741EC0
:100A9500252EF8E6AB18AA19A91A852E82758300AA
:070AA5001200C6052E80C8F7
:010AAC002227
:060FF9008B228A238924EB
:100FFF00E4FFEFC39410748094805024AB22AA2393
:10100F00A9248F82758300120087FE74002FF8EEDB
:10101F00F274352FF582E43400F583EEF00F80D2B1
:01102F00229E
:1006F400A807C000E6FE7800E26ED000F6EF04F82A
:10070400C000E6FE7801E26ED000F6EF2402F8C0E5
:1007140000E6FE7802E26ED000F6EF2403F8C00093
:10072400E6FE7803E26ED000F6EF2404F8C000E69B
:10073400FE7804E26ED000F6EF2405F8C000E6FE71
:100744007805E26ED000F6EF2406F8C000E6FE78E5
:1007540006E26ED000F6EF2407F8C000E6FE780744
:10076400E26ED000F6EF2408F8C000E6FE7808E256
:100774006ED000F6EF2409F8C000E6FE7809E26EB8
:10078400D000F6EF240AF8C000E6FE780AE26ED044
:1007940000F6EF240BF8C000E6FE780BE26ED00002
:1007A400F6EF240CF8C000E6FE780CE26ED000F6FA
:1007B400EF240DF8C000E6FE780DE26ED000F6EFEF
:1007C400240EF8C000E6FE780EE26ED000F6EF24A8
:0E07D4000FF8C000E6FF780FE26FD000F622AB
:1008B000780DE29005E993FE7800E2FDEE6DFEEF23
:1008C0009006EA936EF2780EE29005E993FF7801C4
:1008D000E2FEEF6EF2780FE293FF7802E2FEEF6E37
:1008E000F2780CE293FF7803E2FEEF6EF208E2FF8B
:1008F0007800E26F7804F208E2FF7801E26F780591
:10090000F208E2FF7802E26F7806F208E2FF78036D
:10091000E26F7807F208E2FF7804E26F7808F208E5
:10092000E2FF7805E26F7809F208E2FF7806E26FED
:10093000780AF208E2FF7807E26F780BF208E2FF2C
:100940007808E26F780CF208E2FF7809E26F780D20
:10095000F208E2FF780AE26F780EF208E2FF780B05
:06096000E26F780FF222A5
:1004C900A807E6FE7800E26E9005E993A807F6E82A
:1004D9002404F8E6FE7804E26E93FEEF2404F8A6FD
:1004E90006EF2408F8E6FE7808E26E93FEEF24088A
:1004F900F8A606EF240CF8E6FE780CE26E93FEEF00
:10050900240CF8A606EF04F8E6FE7801E26E93F5EE
:100519002FEF2405F8E6FE7805E26E93FEEF04F866
:10052900A606EF2409F8E6FE7809E26E93FEEF24A9
:1005390005F8A606EF240DF8E6FE780DE26E93FEA7
:10054900EF2409F8A606EF240DF8A62FEF2402F8E8
:10055900E6FE7802E26E93F52FEF2406F8E6FE78C0
:1005690006E26E93F530EF240AF8E6FE780AE26EA9
:1005790093FEEF2402F8A606EF240EF8E6FE780EA5
:10058900E26E93FEEF2406F8A606EF240AF8A62FDA
:10059900EF240EF8A630EF240FF8E6FE780FE26E8E
:1005A90093F52FEF240BF8E6FE780BE26E93FEEF3E
:1005B900240FF8A606EF2407F8E6FE7807E26E9303
:1005C900FEEF240BF8A606EF2403F8E6FE7803E213
:0F05D9006E93FEEF2407F8A606EF2403F8A62F73
:0105E80022F0
:10020700EF2402F8E6FEEF2403F8E66EFEEF04F8AB
:10021700E6FD6EFEA807E6FC6EFEAB04EC6DF5DDB1
:10022700ADDFED6EFDE66DF6E82402F8E6FDEF04BE
:10023700F8E6FC6DF5DDADDFED6E6CF6EF2403F847
:10024700E6FDEF2402F8E6FC6DF5DDADDFED6E6C43
:10025700F6EF2403F8E6FC6BF5DDADDFED6E6CF62B
:10026700EF2406F8E6FEEF2407F8E66EFEEF240516
:10027700F8E6FD6EFEEF2404F8E6FC6EFEAB04EC38
:100287006DF5DDADDFED6E6CF6EF2406F8E6FDEFFC
:100297002405F8E6FC6DF5DDADDFED6E6CF6EF24B9
:1002A70007F8E6FDEF2406F8E6FC6DF5DDADDFEDBA
:1002B7006E6CF6EF2407F8E6FC6BF5DDADDFED6E4F
:1002C7006CF6EF240AF8E6FEEF240BF8E66EFEEF75
:1002D7002409F8E6FD6EFEEF2408F8E6FC6EFEAB97
:1002E70004EC6DF5DDADDFED6E6CF6EF240AF8E694
:1002F700FDEF2409F8E6FC6DF5DDADDFED6E6CF67C
:10030700EF240BF8E6FDEF240AF8E6FC6DF5DDAD0A
:10031700DFED6E6CF6EF240BF8E6FC6BF5DDADDF79
:10032700ED6E6CF6EF240EF8E6FEEF240FF8E66E9E
:10033700FEEF240DF8E6FD6EFEEF240CF8E66EFEE8
:10034700E6FB6DF5DDADDFED6EFDE66DF6EF240E38
:10035700F8E6FDEF240DF8E6FC6DF5DDADDFED6E9B
:100367006CF6EF240FF8E6FDEF240EF8E6FC6DF5CA
:10037700DDADDFED6E6CF6EF240FF8E6FC6BF5DD17
:06038700ADDFED6E6CF627
:01038D00224D
:1014C000A2AF92D5C2AFD2FD8FFA20FCFDC2FDA221
:0414D000D592AF22E0
:1013D200A2AF92D5C2AFD2FD8E4B8F4C8F828E833D
:0B13E200EDF020FCFDC2FDA2D592AF93
:0113ED0022DD
:060E79008B178A1889198D
:100E7F00A2AF92D5C2AFD2FD8E4D8F4EE51B151B83
:100E8F00AE1A7002151A4E6028AB170519E519AA8C
:100E9F00187002051814F912006EFF054EE54EACDE
:100EAF004D7002054D14F5828C83EFF030FCCD8030
:070EBF00FBC2FDA2D592AFBA
:010EC6002209
:0616C8008F828E83E0FF1B
:0116CE0022F9
:1012D800E5201520AC1F7002151F4C60168F828EFA
:1012E80083E01200B40FBF00010E740129F9E43A3B
:0312F800FA80DD9C
:0112FB0022D0
:0716CF00EFF5AFEEF5AF22CD
:08169B00AFAFAEAF8FAF8EAF11
:0116A3002224
:0416F60043B31022C8
:0B15E500EF600443B3082253B3F72269
:0E159100EF25E05406FFE5B354F94FF5B32201
:0B15F000EF600443B3012253B3FE225E
:10150F00E5B35406FD53B3F9EFF5B4EEF5B5ED427F
:01151F00B318
:0115200022A8
:1014D400E5B35406FD53B3F9AFB5EFFEACB4ECFF7E
:0314E400ED42B323
:0114E70022E2
:1014E800E5B35408FD53B3F7AFABEFFEACB6ECFF72
:0314F800ED42B30F
:0114FB0022CE
:0316FA00AFAC2270
:0B15FB00EF600443D6802253D67F220D
:0B160600EF600443D6402253D6BF2201
:0316FD00AFD72242
:10152100E5D65420D39400E4940040037F01227F48
:02153100002296
:03000000020B3DB3
:0C0B3D00787FE4F6D8FD758190020B84EF
:10006E00BB010689828A83E0225002E722BBFE0290
:09007E00E32289828A83E49322C3
:10008700BB010CE58229F582E5833AF583E022502E
:1000970006E92582F8E622BBFE06E92582F8E22278
:0D00A700E58229F582E5833AF583E4932292
:1000B400BB010689828A83F0225002F722BBFE012B
:0200C400F32225
:1000C600F8BB010DE58229F582E5833AF583E8F070
:1000D600225006E92582C8F622BBFE05E92582C81C
:0200E600F22204
:1000E800EB9FF5F0EA9E42F0E99D42F0E89C45F06E
:0100F80022E5
:1000F900EF4E6012EF60010EEDBB010B89828A831E
:10010900F0A3DFFCDEFA2289F05007F709DFFCA92A
:0C011900F022BBFEFCF309DFFCA9F02281
:10012500E709F608DFFA8046E709F208DFFA803EBC
:1001350088828C83E709F0A3DFFA8032E309F608A9
:10014500DFFA806EE309F208DFFA806688828C8325
:10015500E309F0A3DFFA805A89828A83E0A3F608CF
:10016500DFFA804E89828A83E0A3F208DFFA8042B3
:1001750080D280FA80C680D4805580F28029801094
:1001850080A680EA809A80A880DA80E280CA8029E9
:1001950088848C8589828A83E493A30586F0A305E8
:1001A50086DFF5DEF3800B89828A83E493A3F60864
:1001B500DFF9ECFAA9F0EDFB2288848C8589828A27
:1001C50083E0A30586F0A30586DFF6DEF480E389E8
:1001D500828A83E493A3F208DFF980D688F0EF6082
:1001E500010E4E60CD88F0ED2402B4040050C3F535
:1001F50082EB2402B4040050B923234582239001E5
:0202050075730F
:100B49000207E2E493A3F8E493A34003F68001F2D9
:100B590008DFF48029E493A3F85407240CC8C333AD
:100B6900C4540F4420C8834004F456800146F6DF7C
:100B7900E4800B0102040810204080901106E47EF5
:100B8900019360BCA3FF543F30E509541FFEE49371
:100B9900A360010ECF54C025E060A840B8E493A338
:100BA900FAE493A3F8E493A3C8C582C8CAC583CA63
:100BB900F0A3C8C582C8CAC583CADFE9DEE780BE1B
:0111370000B7
:00000001FF
