:10116D00053900000000CD053400000000AB18610A
:10117D005E6CA774FDE3DFBCF7DA4A4F652D6EF0A8
:08118D00FFA6E65A8482664FBA
:1006E300120EBF1210E91214A07B007A0079147560
:1006F30020007521047F007EFA1212337A00797983
:100703007520007521107F047EFA12123378397C2C
:10071300007D007A0079147E007F041201D07834C2
:100723007C007D007B007A0079147E007F04120137
:10073300D0120D027523007524007525007B007A05
:100743000079797D04E4FF1215EA7F007E03121518
:10075300F830832E30812BE4F5187F64FE1213E703
:10076300120F3A120F757B007A007918120978E597
:10077300186006C291C2938004D291D29312135D82
:100783008047751E00751F0075201A7B007A00795B
:10079300191200037B017A00792812101C7B017A5D
:1007A300007920AD191212D3751E01751F00752033
:1007B300207B017A007910120AD37B017A00791029
:1007C300AD1A121086B291B2931215C412154C8051
:0107D30080A5
:10135D0020830330810C1215C47F327E001213E7F7
:09136D0080EE7F647E000213E7AC
:100978008B1B8A1C891DE53F7003020A29900034ED
:10098800E064AB6003020A2978797C00FD7B017A78
:10099800007920FE7F101201D078397C007D007B21
:1009A800017A0079307E007F041201D078347C000F
:1009B8007D007B017A0079307E007F041201D07FB0
:1009C800211213FB7B017A0079307523007524040A
:1009D8007F007EFA120E2E7B017A007920752300A3
:1009E8007524107F047EFA120E2E752300752400DC
:1009F8007525007B007A0079797D04E4FF1215EAF9
:100A08007B007A0079397F06120EFD7B007A007927
:100A180034E4FF120EFDAB1BAA1CA91D74011200C1
:020A2800B422F6
:100F75007F011212977F01121279D2E8E4F53FE55D
:100F85003F7018308315308112B291A291B39293BC
:100F95001215C47FFAFE1213E780E4C2E8E4FF12DB
:090FA50012977D10E4FF0215D53E
:100F3A007E007F047D007B007A0079391200E87E0A
:100F4A00007F047D007B007A0079341200E87B0080
:100F5A007A0079397F06120EFD7B007A007934E433
:0B0F6A00FF120EFD7D15E4FF0215D5FF
:101086008D1B7D101215DCAF1B1212B5E51B640318
:101096006003D38001C392907F01121297E4FF127E
:1010A6001279D2E8753E01E53E70FCC2E8FF1212E5
:0410B60097D290221B
:1012D3008B1B8A1C891DED75F008A42461F9E4FABF
:0D12E300FBA81DAC1CAD1BFE7F080201D056
:100003008B1B8A1C891DE41200B4AB1EAA1FA920F6
:100013001200B420830330812D7F0A7E001213E780
:1000230030810AAB1BAA1CA91D74028016308316EB
:10003300AB1BAA1CA91D74011200B4AB1EAA1FA9F5
:070043002074031200B42237
:06101C008B1B8A1C891DDC
:101022007E087F01121536AF061EEF601D12145C9A
:10103200EF60FA121626AB1B051DE51DAA1C7002F5
:0F104200051C14F9EF1200B480DDE4FF0215362F
:100EBF00E4FFEFFD3395E0FCC3ED9408EC64809400
:100ECF0080500AEF2470F59EF59F0F80E575930B08
:100EDF00E4F594759F03F59F759E11759E13F5802C
:0D0EEF00F59075CF0BF5AED290C291C29375
:010EFC0022D3
:100D02007F021211177F011210BA7F0512138F7D15
:100D12000F7C007F0F1212577F6E1213D27B007A64
:100D22000079397F06120EFD7D10E4FF1215D57D84
:100D320001E4FF120DD47B007A007934E4FF120E35
:100D4200FD7D017F04120D6C7D017F05120D6C7D0E
:100D5200017F06120D6C7F011211E77F0412146EDF
:0A0D62007F0512146E7F0602146E66
:1010E900E4FF12152B0F1214FE7F031214CC74FFA8
:1010F900FFFE12144A7F0112152BE5AD548064805E
:0E11090060F8E5AD5480648070F875B8282257
:0F14A000121515EF640270F8D2EAD2B9D2AF225A
:0A154C0075A40475A407E4F5A422B9
:03006B0002004A46
:01004A003283
:03005B0002005A46
:01005A003273
:03004B00020C8D17
:100C8D00C0E0C0F0C083C082C085C084C0867586B8
:100C9D0000C0D075D000C000C001C002C003C004A8
:060CAD00C005C006C007EF
:100CB30012004EEF24F0600A24D0600E2420701E30
:100CC30080031215B0753E00801412156AEF700B85
:0E0CD3007B017A00792012161A80EF753F011E
:100CE100D007D006D005D004D003D002D001D00067
:100CF100D0D0D086D084D085D082D083D0F0D0E03F
:010D010032BF
:0A1556008FE7E5E630E1FBAFE72286
:021279008F1CC8
:10127B00E4FF1213298F1DE51C64017005431D014A
:0C128B008003531DFEAD1DE4FF0212F0B5
:021297008F1CAA
:10129900E4FF1213298F1DE51C64017005431D022B
:0C12A9008003531DFDAD1DE4FF0212F098
:0210BA008F1B8A
:1010BC00E4FF1213298F1CE51B14600C146011241F
:1010CC00027013531CF7800E431C08531CFB800644
:0D10DC00431C08431C04AD1CE4FF0212F08D
:040D6C008F1B8D1C30
:100D7000E4FF1213298F1DE51B24FB601E14603352
:100D800024027049E51C60047F0080027F01EF545B
:100D900001C454F0FFE51D54EF802FE51C60047F73
:100DA0000080027F01EF5401C43354E0FFE51D547D
:100DB000DF8017E51C60047F0080027F01EF540193
:100DC000C4333354C0FFE51D54BF4FF51DAD1DE4C2
:040DD000FF0212F01C
:0B004E007D707F071212F0EF5470FF6E
:010059002284
:101376007D707F071212F0EF5470F55D7F07121330
:0813860029EF540F425DAF5D39
:01138E00223C
:10146E00A8077401088002C333D8FCFD7F0702125F
:01147E00F07D
:0815CD001215BAEF5470FF2261
:040DD4008F1B8D1CC8
:100DD8007F021213298F1D7F011213298F1EE51B15
:100DE80024FA500624076021802EAF1BA80774013F
:100DF800088002C333D8FCFF421DE51C6005EF42A2
:100E08001E8015EFF4521E800F751D3FE51C60050E
:100E1800751E3F8003E4F51EAD1D7F021212F0AD72
:060E28001E7F010212F022
:020E7C008F5293
:100E7E007F021213298F537F011213298F54E552CB
:100E8E0024FA5006240760168019AF52A807740181
:100E9E00088002C333D8FCF4525352548005E4F553
:100EAE0053F554AD537F021212F0AD547F0102126E
:010EBE00F043
:100EFD008F1E8B1F8A208921E51E14600A24FB504A
:100F0D00196004240670251215608F26E51E242A0B
:100F1D00FFAB1FAA20A921020A2AE51E240AFFAB56
:0D0F2D001FAA20A92112006EFD1212F02251
:101051008F4A8B4B8A4C894DE54A14600824FB600A
:10106100042406700BAB4BAA4CA94DAF4A02037D79
:10107100E54A240AFF121329AB4BAA4CA94DEF12E2
:0510810000B47F012214
:02125700AB07E3
:10125900EC540FC454F0FFE51B540F4FF51BEB542E
:101269000FFFE51B54F04FF51BAD1B7F040212F075
:10138F00E4F51BEF24FE5403FFE51B54FC4FF51B44
:07139F00AD1B7F030212F0F9
:0A1560007F03121329EF2402FF227B
:0715D500EF2411FF0212F0E8
:020B71008F40B3
:100B73007F021213298F417F011213298F42E5400F
:100B830014601A14602714603414604314604E24F4
:100B930005705EE5415401F543E542804EAF41EFF8
:100BA300C3135401F543AF42EFC313803EAF41EF8C
:100BB30013135401F543AF42EF1313802EAF41EFEC
:100BC3001313135401F543AF42EF131313801CAFF8
:100BD30041EFC45401F543AF42EFC4800EAF41EF80
:100BE300C4135401F543AF42EFC4135401F54480D9
:0D0BF30005E4F543F544E54425E02543FF06
:010C000022D1
:05160B007F0802132915
:1013A6007F08121329EF54F0FFE4C4F854F0C8EF95
:0613B600C4540F48FF22A1
:100FAE00EF14601414601514601614601714601892
:100FBE002405701D7F1180127F12800E7F13800A10
:100FCE007F1480067F1580027F161213298F5E8094
:060FDE0003E4F55EAF5EC6
:010FE40022EA
:1013D200E4F51BEF547FFFE51B54804FF51BAD1B5B
:0513E2007F050212F07E
:0212B5008F1C8C
:1012B7007F061213298F1DE51C540325E0FFE51D4A
:0C12C70054F94FF51DAD1D7F060212F01A
:021117008F1B2C
:101119007F061213298F1CE51B600924FE700D43FD
:101129001C208003531CDF531CF78006531CDF432C
:091139001C08AD1C7F060212F037
:0A156A007F17121329EF5401FF222E
:0C005E007F17121329EFC3135401FF2277
:0B150A007F17121329EFC45401FF22C9
:0C14DA007F17121329EFC4135401FF22E6
:1013BC007F17121329EF5430FFE4C4F854F0C8EF30
:0613CC00C4540F48FF228B
:0A1574007F17121329EF5403FF2222
:051610007F1702132901
:0A157E007F08121329EF540FFF221B
:0A1588007F09121329EF5401FF221E
:01006A002273
:0C14E600EF543FF55FAD5F7F1C0212F079
:021196008F5573
:101198007F1D1213298F56E55560047F0180027F59
:1011A80000EF540125E025E0FFE55654FB4FF556C6
:0711B800AD567F1D0212F08D
:0211E7008F1B5C
:1011E9007F1D1213298F1CE51B60047F0180027F7C
:1011F90000EF540125E0FFE51C54FD4FF51CAD1C23
:051209007F1D0212F040
:02120E008F57F8
:101210007F1D1213298F58E55760047F0180027FDC
:1012200000EF5401FFE55854FE4FF558AD587F1DAF
:031230000212F0B7
:0715DC008D267FA0020A2A00
:0715E3008D267FB0020A2AE9
:0A159200EF44A8FF854926020A2A4B
:051615007F60021329B3
:05161A007F0802037DC2
:0E14BE001215BAEF540EFFE4C313EF13FF2212
:0A159C00C2E97FE3121556D2E922DE
:101437001216107E00EF54407806CEC313CE13D891
:03144700F9FF2288
:0A15A600C2E97FE2121556D2E922D5
:0A15B000C2E97FE1121556D2E922CC
:0915BA00C2E97FFF121556D2E9C7
:0115C3002205
:0211BF008F5946
:1011C1007F061213298F5AE55960047F0180027F3F
:1011D10000EF5401C454F0FFE55A54EF4FF55AADF6
:0611E1005A7F060212F025
:021142008F5BC1
:101144007F061213298F5CE55B60047F0180027FB8
:1011540000EF5401C43333335480FFE55C547F4FB4
:09116400F55CAD5C7F060212F09F
:10132900C2E98FE7E5E6540260FAAFE7E4F5E7E5DD
:09133900E6540260FAAFE7D2E9C4
:011342002288
:1012F000C2E9EF2420F5E7E5E6540260FAAFE78D96
:0C130000E7E5E6540260FA85E760D2E9F8
:01130C0022BE
:08037D008F088B098A0A890B25
:1003850075100185090EE50814600C24FB6008242E
:10039500FE60142408702E1215608F0C8F0DC2E9B3
:1003A500E508240AFF80191214BE8F08C3EF9407CD
:1003B500E4940050101216158F0C8F0DC2E97F6161
:1003C5001215568005E4F50DF50CAF0E7E00EF70A5
:0103D50028FF
:1003D600850B11E4F5E7E5107008A811A60F0511C5
:1003E6008003E4F510E5E6540260FA85E70FD50CC4
:0503F600E2A811A60FB2
:0903FB000204AFEF64014E703AF8
:10040400850A11850B12E4F5E7E510701385128255
:10041400851183E50FF00512E512700705118003BD
:10042400E4F510E5E6540260FA85E70FD50CD785AC
:080434001282851183E50FF02F
:08043C008071E50E64FE7029D9
:10044400850B11E4F5E7E5107009A811E50FF20535
:10045400118003E4F510E5E6540260FA85E70FD550
:070464000CE1A811E50FF205
:02046B008042CD
:10046D00850911850A12850B13E4F5E7E51070185F
:10047D00AB11AA12A913E50F1200B474012513F5DF
:10048D0013E43512F5128003E4F510E5E65402602D
:10049D00FA85E70FD50CD2AB11AA12A913E50F12ED
:0204AD0000B499
:0804AF00D2E9E508FEE50DFFAE
:0104B7002222
:060A2A008B238A248925BC
:090A3000AD23C2E98FE7ED701956
:100A3900852528A828E6FE0528E5E6540260FA85FA
:070A4900E7278EE7D526EC3C
:070A50008075ED64017026C2
:100A5700852428852529852982852883E0FE05297F
:100A6700E52970020528E5E6540260FA85E7278E36
:040A7700E7D526E2B7
:070A7B00804AED64FE7019D2
:100A8200852528A828E2FE0528E5E6540260FA85B5
:070A9200E7278EE7D526ECF3
:020A9900802CAF
:100A9B0085232885242985252AAB28AA29A92A124A
:100AAB00006EFE7401252AF52AE43529F529E5E6C1
:0C0ABB00540260FA85E7278EE7D526DD9F
:0B0AC700E5E6540260FA85E727D2E95B
:010AD2002201
:10149000EF6009E5A3448054F7F5A32253A3772214
:10147F00EF5401C4333354C0FFE5A354B74FF5A362
:01148F00223A
:0F14AF00EF5403C454F0FFE5A354C74FF5A32235
:0A151500E5AD30E3037F02227F0101
:01151F0022A9
:0C14F200EF5407FFE5A354F04FF5A322D0
:0615FF00E5AD5480FF225F
:06160500E5AD5440FF2298
:0C14FE00EF5407FFE5AD54F84FF5AD22A8
:0B1343007FFA7E0012134E7FFA7E003E
:0F134E000000000000EF1F70011E144E70F2220D
:1013E700AD07AC06121343121343ED1D70011C1415
:0413F7004C70F12223
:1005D800637C777BF26B6FC53001672BFED7AB76F8
:1005E800CA82C97DFA5947F0ADD4A2AF9CA472C0A3
:1005F800B7FD9326363FF7CC34A5E5F171D8311510
:1006080004C723C31896059A071280E2EB27B27530
:1006180009832C1A1B6E5AA0523BD6B329E32F84A8
:1006280053D100ED20FCB15B6ACBBE394A4C58CFA0
:10063800D0EFAAFB434D338545F9027F503C9FA874
:1006480051A3408F929D38F5BCB6DA2110FFF3D242
:10065800CD0C13EC5F974417C4A77E3D645D1973F6
:1006680060814FDC222A908846EEB814DE5E0BDBF0
:10067800E0323A0A4906245CC2D3AC629195E47927
:10068800E7C8376D8DD54EA96C56F4EA657AAE0881
:10069800BA78252E1CA6B4C6E8DD741F4BBD8B8A1C
:1006A800703EB5664803F60E613557B986C11D9E82
:1006B800E1F8981169D98E949B1E87E9CE5528DFF9
:1006C8008CA1890DBFE6426841992D0FB054BB1625
:0B06D8008D01020408102040801B363A
:0715EA008F1E8D1F020FE5AB
:060AD3008B1B8A1C891D2B
:100AD900E4F531C3E531941074809480501BAB1E4A
:100AE900AA1FA920853182758300120087FF74210E
:100AF9002531F8A607053180DA75DE02E4F531C340
:100B0900E53194097480948050137F211204B87FD1
:100B1900211201F6AF311208C2053180E27F21129C
:100B290004B87F091208C27F211207D4E4F531C342
:100B3900E531941074809480502D74352531F582F7
:100B4900E43400F583E0FF74002531F8EFF27421F5
:100B59002531F8E6AB1BAA1CA91D853182758300D6
:070B69001200C6053180C82F
:010B70002262
:060FE5008B268A278928F3
:100FEB00E4FFEFC39410748094805024AB26AA279F
:100FFB00A9288F82758300120087FE74002FF8EEEC
:10100B00F274352FF582E43400F583EEF00F80D2C5
:01101B0022B2
:1007D400A807C000E6FE7800E26ED000F6EF04F849
:1007E400C000E6FE7801E26ED000F6EF2402F8C005
:1007F40000E6FE7802E26ED000F6EF2403F8C000B3
:10080400E6FE7803E26ED000F6EF2404F8C000E6BA
:10081400FE7804E26ED000F6EF2405F8C000E6FE90
:100824007805E26ED000F6EF2406F8C000E6FE7804
:1008340006E26ED000F6EF2407F8C000E6FE780763
:10084400E26ED000F6EF2408F8C000E6FE7808E275
:100854006ED000F6EF2409F8C000E6FE7809E26ED7
:10086400D000F6EF240AF8C000E6FE780AE26ED063
:1008740000F6EF240BF8C000E6FE780BE26ED00021
:10088400F6EF240CF8C000E6FE780CE26ED000F619
:10089400EF240DF8C000E6FE780DE26ED000F6EF0E
:1008A400240EF8C000E6FE780EE26ED000F6EF24C7
:0E08B4000FF8C000E6FF780FE26FD000F622CA
:1008C200780DE29005D893FE7800E2FDEE6DFEEF22
:1008D2009006D9936EF2780EE29005D893FF7801D4
:1008E200E2FEEF6EF2780FE293FF7802E2FEEF6E25
:1008F200F2780CE293FF7803E2FEEF6EF208E2FF79
:100902007800E26F7804F208E2FF7801E26F78057E
:10091200F208E2FF7802E26F7806F208E2FF78035B
:10092200E26F7807F208E2FF7804E26F7808F208D3
:10093200E2FF7805E26F7809F208E2FF7806E26FDB
:10094200780AF208E2FF7807E26F780BF208E2FF1A
:100952007808E26F780CF208E2FF7809E26F780D0E
:10096200F208E2FF780AE26F780EF208E2FF780BF3
:06097200E26F780FF22293
:1004B800A807E6FE7800E26E9005D893A807F6E84C
:1004C8002404F8E6FE7804E26E93FEEF2404F8A60E
:1004D80006EF2408F8E6FE7808E26E93FEEF24089B
:1004E800F8A606EF240CF8E6FE780CE26E93FEEF11
:1004F800240CF8A606EF04F8E6FE7801E26E93F500
:1005080032EF2405F8E6FE7805E26E93FEEF04F874
:10051800A606EF2409F8E6FE7809E26E93FEEF24BA
:1005280005F8A606EF240DF8E6FE780DE26E93FEB8
:10053800EF2409F8A606EF240DF8A632EF2402F8F6
:10054800E6FE7802E26E93F532EF2406F8E6FE78CE
:1005580006E26E93F533EF240AF8E6FE780AE26EB7
:1005680093FEEF2402F8A606EF240EF8E6FE780EB6
:10057800E26E93FEEF2406F8A606EF240AF8A632E8
:10058800EF240EF8A633EF240FF8E6FE780FE26E9C
:1005980093F532EF240BF8E6FE780BE26E93FEEF4C
:1005A800240FF8A606EF2407F8E6FE7807E26E9314
:1005B800FEEF240BF8A606EF2403F8E6FE7803E224
:0F05C8006E93FEEF2407F8A606EF2403F8A63281
:0105D7002201
:1001F600EF2402F8E6FEEF2403F8E66EFEEF04F8BD
:10020600E6FD6EFEA807E6FC6EFEAB04EC6DF5DDC2
:10021600ADDFED6EFDE66DF6E82402F8E6FDEF04CF
:10022600F8E6FC6DF5DDADDFED6E6CF6EF2403F858
:10023600E6FDEF2402F8E6FC6DF5DDADDFED6E6C54
:10024600F6EF2403F8E6FC6BF5DDADDFED6E6CF63C
:10025600EF2406F8E6FEEF2407F8E66EFEEF240527
:10026600F8E6FD6EFEEF2404F8E6FC6EFEAB04EC49
:100276006DF5DDADDFED6E6CF6EF2406F8E6FDEF0D
:100286002405F8E6FC6DF5DDADDFED6E6CF6EF24CA
:1002960007F8E6FDEF2406F8E6FC6DF5DDADDFEDCB
:1002A6006E6CF6EF2407F8E6FC6BF5DDADDFED6E60
:1002B6006CF6EF240AF8E6FEEF240BF8E66EFEEF86
:1002C6002409F8E6FD6EFEEF2408F8E6FC6EFEABA8
:1002D60004EC6DF5DDADDFED6E6CF6EF240AF8E6A5
:1002E600FDEF2409F8E6FC6DF5DDADDFED6E6CF68D
:1002F600EF240BF8E6FDEF240AF8E6FC6DF5DDAD1C
:10030600DFED6E6CF6EF240BF8E6FC6BF5DDADDF8A
:10031600ED6E6CF6EF240EF8E6FEEF240FF8E66EAF
:10032600FEEF240DF8E6FD6EFEEF240CF8E66EFEF9
:10033600E6FB6DF5DDADDFED6EFDE66DF6EF240E49
:10034600F8E6FDEF240DF8E6FC6DF5DDADDFED6EAC
:100356006CF6EF240FF8E6FDEF240EF8E6FC6DF5DB
:10036600DDADDFED6E6CF6EF240FF8E6FC6BF5DD28
:06037600ADDFED6E6CF638
:01037C00225E
:1013FB00A2AF92D5C2AFD2FD8FFA20FCFDC2FDA2E7
:04140B00D592AF22A5
:10130D00A2AF92D5C2AFD2FD8E4E8F4F8F828E83FC
:0B131D00EDF020FCFDC2FDA2D592AF58
:0113280022A2
:060E2E008B208A218922BD
:100E3400A2AF92D5C2AFD2FD8E508F51E5241524B6
:100E4400AE23700215234E6028AB200522E522AAAA
:100E5400217002052114F912006EFF0551E551AC11
:100E6400507002055014F5828C83EFF030FCCD8075
:070E7400FBC2FDA2D592AF05
:010E7B002254
:0615F1008F828E83E0FFF3
:0115F70022D1
:10123300E5211521AC20700215204C60168F828E9B
:1012430083E01200B40FBF00010E740129F9E43AE0
:03125300FA80DD41
:011256002275
:0715F800EFF5AFEEF5AF22A5
:0815C400AFAFAEAF8FAF8EAFE9
:0115CC0022FC
:04161F0043B310229F
:0B152000EF600443B3082253B3F7222E
:0E14CC00EF25E05406FFE5B354F94FF5B322C7
:0B152B00EF600443B3012253B3FE2223
:10144A00E5B35406FD53B3F9EFF5B4EEF5B5ED4245
:01145A00B3DE
:01145B00226E
:10140F00E5B35406FD53B3F9AFB5EFFEACB4ECFF43
:03141F00ED42B3E8
:0114220022A7
:10142300E5B35408FD53B3F7AFABEFFEACB6ECFF37
:03143300ED42B3D4
:011436002293
:03162300AFAC2247
:0B153600EF600443D6802253D67F22D2
:0B154100EF600443D6402253D6BF22C7
:03162600AFD72219
:10145C00E5D65420D39400E4940040037F01227F0E
:02146C0000225C
:03000000020C01EE
:0C0C0100787FE4F6D8FD758188020C486D
:10006E00BB010689828A83E0225002E722BBFE0290
:09007E00E32289828A83E49322C3
:10008700BB010CE58229F582E5833AF583E022502E
:1000970006E92582F8E622BBFE06E92582F8E22278
:0D00A700E58229F582E5833AF583E4932292
:1000B400BB010689828A83F0225002F722BBFE012B
:0200C400F32225
:1000C600F8BB010DE58229F582E5833AF583E8F070
:1000D600225006E92582C8F622BBFE05E92582C81C
:0200E600F22204
:1000E800EF4E6012EF60010EEDBB010B89828A832F
:1000F800F0A3DFFCDEFA2289F05007F709DFFCA93C
:0C010800F022BBFEFCF309DFFCA9F02292
:10011400E709F608DFFA8046E709F208DFFA803ECD
:1001240088828C83E709F0A3DFFA8032E309F608BA
:10013400DFFA806EE309F208DFFA806688828C8336
:10014400E309F0A3DFFA805A89828A83E0A3F608E0
:10015400DFFA804E89828A83E0A3F208DFFA8042C4
:1001640080D280FA80C680D4805580F280298010A5
:1001740080A680EA809A80A880DA80E280CA8029FA
:1001840088848C8589828A83E493A30586F0A305F9
:1001940086DFF5DEF3800B89828A83E493A3F60875
:1001A400DFF9ECFAA9F0EDFB2288848C8589828A38
:1001B40083E0A30586F0A30586DFF6DEF480E389F9
:1001C400828A83E493A3F208DFF980D688F0EF6093
:1001D400010E4E60CD88F0ED2402B4040050C3F546
:1001E40082EB2402B4040050B923234582239001F6
:0201F400647332
:100C0D000206E3E493A3F8E493A34003F68001F214
:100C1D0008DFF48029E493A3F85407240CC8C333E8
:100C2D00C4540F4420C8834004F456800146F6DFB7
:100C3D00E4800B010204081020408090116DE47EC9
:100C4D00019360BCA3FF543F30E509541FFEE493AC
:100C5D00A360010ECF54C025E060A840B8E493A373
:100C6D00FAE493A3F8E493A3C8C582C8CAC583CA9E
:100C7D00F0A3C8C582C8CAC583CADFE9DEE780BE56
:011195000059
:00000001FF
