:1011B300053500000000CD053000000000AB185DD0
:1011C3005E6CA774FDE3DFBCF7DA4A4F652D6EF062
:0811D300FFA6E65A8482664F74
:1007E200120F0812112F1214E8120DB9120C277FE2
:1007F200007E0312164720830330816D7F647E00E2
:1008020012141C30832C308129E4F514120F831248
:100812000FBE7B007A007914120CF9E5146006C24F
:1008220091C2938004D291D29312161D12146C02BB
:100832000890751A00751B00751C167B007A0079EA
:10084200151210CF7B017A0079281210651212540A
:10085200751A01751B00751C207B017A0079101234
:1008620009F8120EBFB29380257F05120D59EF6071
:100872001DE4F515F516121254751A01751B007553
:100882001C207B017A0079101209F8120EBF121691
:070892000C1215940207F897
:10146C0020830330810C12160C7F327E0012141C68
:03147C0080EE22DD
:100DB9007B007A00791A7523007524047F007EFA76
:100DC90012129E7A0079757523007524107F047EAE
:100DD900FA12129E78357C007D007A00791A7E001D
:100DE9007F041201E178307C007D007B007A007974
:100DF9001A7E007F041201E1752300752400752510
:0E0E0900007B007A0079757D04E4FF02163943
:100CF9008B178A188919E53B6055900034E064AB7D
:100D0900704D7F211214307B017A007930F51F75FF
:100D19002004FF7EFA120E717B017A007920751F7B
:100D2900007520107F047EFA120E71120DB97B0036
:100D39007A0079357F06120F467B007A007930E414
:100D4900FF120F46AB17AA18A91974011200B42291
:100FBE007F011213027F011212E4D2E8E4F53BE541
:100FCE003B7018308315308112B291A291B3929377
:100FDE0012160C7F64FE12141C80E4C2E8E4FF12A9
:090FEE0013027D10E4FF02162439
:020D59008F17F2
:100D5B00E4F51BF51AF519F5187F011213027F0143
:100D6B001212E4D2E8E4F53BE53B7031AF17FCFD22
:100D7B00FEAB1BAA1AA919A818C31200E8501E7FB4
:100D8B00017E0012141CE51B2401F51BE4351AF53A
:100D9B001AE43519F519E43518F51880CBC2E8E4D7
:0D0DAB00FF1213027D10E4FF121624AF3B6F
:010DB8002218
:100F83007E007F047D007B007A0079351200F97EB4
:100F9300007F047D007B007A0079301200F97B002A
:100FA3007A0079357F06120F467B007A007930E4A8
:0B0FB300FF120F467D15E4FF0216241C
:07161D007D10E4FF0216241A
:0B0EBF007B017A007910751B01AD1655
:100ECA008D1A7D1012162BAF1A121320E51A64031D
:100EDA006003D38001C392907F01121302E4FF12D0
:100EEA0012E4AF1B151BEF600DD2E8753A01E53A23
:0E0EFA0070FCC2E880ECE4FF121302D29022DA
:081254007B017A007920AD1541
:10125C008B178A188919ED75F008A4245DF9E4FA46
:0D126C00FBA819AC18AD17FE7F080201E1C8
:1010CF008B178A18891930810E74021200B4AB1A6B
:1010DF00AA1BA91CE48016308316AB17AA18A919EE
:1010EF0074011200B4AB1AAA1BA91C74031200B42A
:0110FF0022CE
:061065008B178A1889199F
:10106B007E087F0112157EAF061EEF601D1214A4C1
:10107B00EF60FA121670AB170519E519AA18700272
:0F108B00051814F9EF1200B480DDE4FF02157EA2
:100F0800E4FFEFFD3395E0FCC3ED9408EC648094B6
:100F180080500AEF2470F59EF59F0F80E575930BBE
:100F2800E4F594759F03F59F759E11759E13F580E2
:0D0F3800F59075CF0BF5AED290C291C2932B
:010F45002289
:100C27007F0212115D7F011211007F051213C47D2F
:100C37000F7C007F0F1212C27F6E1214077B007A9F
:100C47000079357F06120F467D10E4FF1216247DCA
:100C570001E4FF120E177B007A007930E4FF120FD0
:100C6700467D017F04120C917D017F05120C917D59
:100C7700017F06120C917F0112122D7F041214B608
:0A0C87007F051214B67F060214B6B2
:10112F00E4FF1215730F1215467F0312151474FF87
:10113F00FFFE1214927F01121573E5AD5480648087
:0E114F0060F8E5AD5480648070F875B8282211
:0F14E80012155DEF640270F8D2EAD2B9D2AF22CA
:0A15940075A40475A407E4F5A42271
:03006B0002005A36
:01005A003273
:03005B0002006A36
:01006A003263
:03004B00020BB2F3
:100BB200C0E0C0F0C083C082C085C084C086758694
:100BC20000C0D075D000C000C001C002C003C00484
:060BD200C005C006C007CB
:100BD80012004EEF24F0600A24D0600E2420701E0C
:100BE80080031215F8753A0080141215B2EF700BD5
:0E0BF8007B017A00792012166480EF753B01B4
:100C0600D007D006D005D004D003D002D001D00042
:100C1600D0D0D086D084D085D082D083D0F0D0E01A
:010C2600329B
:0A159E008FE7E5E630E1FBAFE7223E
:0212E4008F1C5D
:1012E600E4FF1213778F1DE51C64017005431D0191
:0C12F6008003531DFEAD1DE4FF02133EFB
:021302008F1C3E
:10130400E4FF1213778F1DE51C64017005431D0271
:0C1314008003531DFDAD1DE4FF02133EDD
:021100008F1747
:10110200E4FF1213778F18E51714600C1460112492
:101112000270135318F7800E4318085318FB800609
:0D112200431808431804AD18E4FF02133E03
:040C91008F178D1814
:100C9500E4FF1213778F19E51724FB601E146033E8
:100CA50024027049E51860047F0080027F01EF543B
:100CB50001C454F0FFE51954EF802FE51860047F57
:100CC5000080027F01EF5401C43354E0FFE519545D
:100CD500DF8017E51860047F0080027F01EF540173
:100CE500C4333354C0FFE51954BF4FF519AD19E4AA
:040CF500FF02133EA9
:0B004E007D707F0712133EEF5470FF1F
:010059002284
:1013AB007D707F0712133EEF5470F5597F071213B0
:0813BB0077EF540F4259AF59BE
:0113C3002207
:1014B600A8077401088002C333D8FCFD7F07021316
:0114C6003EE7
:08161500121602EF5470FF22CF
:040E17008F178D188C
:100E1B007F021213778F197F011213778F1AE51741
:100E2B0024FA500624076021802EAF17A8077401FF
:100E3B00088002C333D8FCFF4219E5186005EF4266
:100E4B001A8015EFF4521A800F75193FE5186005DB
:100E5B00751A3F8003E4F51AAD197F0212133EADEC
:060E6B001A7F0102133E94
:020003008F4E1E
:100005007F021213778F4F7F011213778F50E54EC2
:1000150024FA5006240760168019AF4EA80774010C
:10002500088002C333D8FCF4524F52508005E4F5E2
:100035004FF550AD4F7F0212133EAD507F010213B5
:010045003E7C
:100F46008F1A8B1B8A1C891DE51A14600A24FB5014
:100F5600196004240670251215A88F22E51A242A82
:100F6600FFAB1BAA1CA91D02094FE51A240AFFABF9
:0D0F76001BAA1CA91D12006EFD12133E22C5
:10109A008F468B478A488949E54614600824FB60D5
:1010AA00042406700BAB47AA48A949AF4602038E2F
:1010BA00E546240AFF121377AB47AA48A949EF125B
:0510CA0000B47F0122CB
:0212C200AB0778
:1012C400EC540FC454F0FFE517540F4FF517EB54CB
:1012D4000FFFE51754F04FF517AD177F0402133EC7
:1013C400E4F517EF24FE5403FFE51754FC4FF5171B
:0713D400AD177F0302133E79
:0A15A8007F03121377EF2402FF22E5
:07162400EF2411FF02133E49
:020A96008F3C93
:100A98007F021213778F3D7F011213778F3EE53C5B
:100AA80014601A14602714603414604314604E24D0
:100AB80005705EE53D5401F53FE53E804EAF3DEFE4
:100AC800C3135401F53FAF3EEFC313803EAF3DEF74
:100AD80013135401F53FAF3EEF1313802EAF3DEFD4
:100AE8001313135401F53FAF3EEF131313801CAFDC
:100AF8003DEFC45401F53FAF3EEFC4800EAF3DEF6C
:100B0800C4135401F53FAF3EEFC4135401F54080C0
:0D0B180005E4F53FF540E54025E0253FFFF1
:010B250022AD
:050046007F08021377A2
:1013DB007F08121377EF54F0FFE4C4F854F0C8EF12
:0613EB00C4540F48FF226C
:100FF700EF14601414601514601614601714601849
:101007002405701D7F1180127F12800E7F13800AC6
:101017007F1480067F1580027F161213778F5A8000
:0610270003E4F55AAF5A84
:01102D0022A0
:10140700E4F517EF547FFFE51754804FF517AD1735
:051417007F0502133EF9
:021320008F1C20
:101322007F061213778F1DE51C540325E0FFE51D90
:0C13320054F94FF51DAD1D7F0602133E5F
:02115D008F17EA
:10115F007F061213778F18E517600924FE700D4371
:10116F00182080035318DF5318F780065318DF43F6
:09117F001808AD187F0602133EAA
:0A15B2007F17121377EF5401FF2298
:0C005E007F17121377EFC3135401FF2229
:0B1552007F17121377EFC45401FF2233
:0C1522007F17121377EFC4135401FF224F
:1013F1007F17121377EF5430FFE4C4F854F0C8EFAD
:06140100C4540F48FF2255
:0A15BC007F17121377EF5403FF228C
:05165A007F1702137769
:0A15C6007F08121377EF540FFF2285
:0A15D0007F09121377EF5401FF2288
:011673002254
:0C152E00EF543FF55BAD5B7F1C02133EE9
:0211DC008F5131
:1011DE007F1D1213778F52E55160047F0180027FCD
:1011EE0000EF540125E025E0FFE55254FB4FF55288
:0711FE00AD527F1D02133EFC
:02122D008F1719
:10122F007F1D1213778F18E51760047F0180027FEF
:10123F0000EF540125E0FFE51854FD4FF518AD18E8
:05124F007F1D02133EAB
:021279008F5391
:10127B007F1D1213778F54E55360047F0180027F2B
:10128B0000EF5401FFE55454FE4FF554AD547F1D50
:03129B0002133EFD
:07162B008D227FA002094F90
:071632008D227FB002094F79
:0A15DA00EF44A8FF85452202094FE7
:05165F007F600213771B
:051664007F0802038E67
:0E150600121602EF540EFFE4C313EF13FF2280
:0A15E400C2E97FE312159ED2E9224E
:10147F0012165A7E00EF54407806CEC313CE13D8FF
:03148F00F9FF2240
:0A15EE00C2E97FE212159ED2E92245
:0A15F800C2E97FE112159ED2E9223C
:09160200C2E97FFF12159ED2E936
:01160B0022BC
:021205008F5503
:101207007F061213778F56E55560047F0180027FB2
:1012170000EF5401C454F0FFE55654EF4FF556ADB7
:06122700567F0602133E93
:021188008F577F
:10118A007F061213778F58E55760047F0180027F2C
:10119A0000EF5401C43333335480FFE558547F4F72
:0911AA00F558AD587F0602133E12
:10137700C2E98FE7E5E6540260FAAFE7E4F5E7E58F
:09138700E6540260FAAFE7D2E976
:01139000223A
:10133E00C2E9EF2420F5E7E5E6540260FAAFE78D47
:0C134E00E7E5E6540260FA85E75CD2E9AE
:01135A002270
:08038E008F088B098A0A890B14
:1003960075100185090EE50814600C24FB6008241D
:1003A600FE60142408702E1215A88F0C8F0DC2E95A
:1003B600E508240AFF80191215068F08C3EF940773
:1003C600E49400501012165F8F0C8F0DC2E97F6106
:1003D60012159E8005E4F50DF50CAF0E7E00EF704C
:0103E60028EE
:1003E700850B11E4F5E7E5107008A811A60F0511B4
:1003F7008003E4F510E5E6540260FA85E70FD50CB3
:05040700E2A811A60FA0
:09040C000204C0EF64014E703AD5
:10041500850A11850B12E4F5E7E510701385128244
:10042500851183E50FF00512E512700705118003AC
:10043500E4F510E5E6540260FA85E70FD50CD7859B
:080445001282851183E50FF01E
:08044D008071E50E64FE7029C8
:10045500850B11E4F5E7E5107009A811E50FF20524
:10046500118003E4F510E5E6540260FA85E70FD53F
:070475000CE1A811E50FF2F4
:02047C008042BC
:10047E00850911850A12850B13E4F5E7E51070184E
:10048E00AB11AA12A913E50F1200B474012513F5CE
:10049E0013E43512F5128003E4F510E5E65402601C
:1004AE00FA85E70FD50CD2AB11AA12A913E50F12DC
:0204BE0000B488
:0804C000D2E9E508FEE50DFF9D
:0104C8002211
:06094F008B1F8A208921A4
:09095500AD1FC2E98FE7ED701936
:10095E00852124A824E6FE0524E5E6540260FA85E6
:07096E00E7238EE7D522EC20
:070975008075ED640170269E
:10097C00852024852125852582852483E0FE052577
:10098C00E52570020524E5E6540260FA85E7238E1E
:04099C00E7D522E297
:0709A000804AED64FE7019AE
:1009A700852124A824E2FE0524E5E6540260FA85A1
:0709B700E7238EE7D522ECD7
:0209BE00802C8B
:1009C000851F24852025852126AB24AA25A926124A
:1009D000006EFE74012526F526E43525F525E5E6AD
:0C09E000540260FA85E7238EE7D522DD83
:0B09EC00E5E6540260FA85E723D2E93B
:0109F70022DD
:1014D800EF6009E5A3448054F7F5A32253A37722CC
:1014C700EF5401C4333354C0FFE5A354B74FF5A31A
:0114D70022F2
:0F14F700EF5403C454F0FFE5A354C74FF5A322ED
:0A155D00E5AD30E3037F02227F01B9
:011567002261
:0C153A00EF5407FFE5A354F04FF5A32287
:06164E00E5AD5480FF220F
:06165400E5AD5440FF2249
:0C154600EF5407FFE5AD54F84FF5AD225F
:0B1391007FFA7E0012139C7FFA7E00A2
:0F139C000000000000EF1F70011E144E70F222BF
:10141C00AD07AC06121391121391ED1D70011C1443
:04142C004C70F122ED
:1005E900637C777BF26B6FC53001672BFED7AB76E7
:1005F900CA82C97DFA5947F0ADD4A2AF9CA472C092
:10060900B7FD9326363FF7CC34A5E5F171D83115FE
:1006190004C723C31896059A071280E2EB27B2751F
:1006290009832C1A1B6E5AA0523BD6B329E32F8497
:1006390053D100ED20FCB15B6ACBBE394A4C58CF8F
:10064900D0EFAAFB434D338545F9027F503C9FA863
:1006590051A3408F929D38F5BCB6DA2110FFF3D231
:10066900CD0C13EC5F974417C4A77E3D645D1973E5
:1006790060814FDC222A908846EEB814DE5E0BDBDF
:10068900E0323A0A4906245CC2D3AC629195E47916
:10069900E7C8376D8DD54EA96C56F4EA657AAE0870
:1006A900BA78252E1CA6B4C6E8DD741F4BBD8B8A0B
:1006B900703EB5664803F60E613557B986C11D9E71
:1006C900E1F8981169D98E949B1E87E9CE5528DFE8
:1006D9008CA1890DBFE6426841992D0FB054BB1614
:0B06E9008D01020408102040801B3629
:071639008F1E8D1F02102E11
:0609F8008B178A18891913
:1009FE00E4F52DC3E52D941074809480501BAB1A32
:100A0E00AA1BA91C852D82758300120087FF741DF9
:100A1E00252DF8A607052D80DA75DE02E4F52DC327
:100A2E00E52D94097480948050137F1D1204C97FA4
:100A3E001D120207AF2D120899052D80E27F1D129F
:100A4E0004C97F091208997F1D1206F4E4F52DC31F
:100A5E00E52D941074809480502D7435252DF582DB
:100A6E00E43400F583E0FF7400252DF8EFF2741DD9
:100A7E00252DF8E6AB17AA18A919852D82758300C6
:070A8E001200C6052D80C80F
:010A9500223E
:06102E008B268A278928A9
:10103400E4FFEFC39410748094805024AB26AA2755
:10104400A9288F82758300120087FE74002FF8EEA2
:10105400F274352FF582E43400F583EEF00F80D27C
:011064002269
:1006F400A807C000E6FE7800E26ED000F6EF04F82A
:10070400C000E6FE7801E26ED000F6EF2402F8C0E5
:1007140000E6FE7802E26ED000F6EF2403F8C00093
:10072400E6FE7803E26ED000F6EF2404F8C000E69B
:10073400FE7804E26ED000F6EF2405F8C000E6FE71
:100744007805E26ED000F6EF2406F8C000E6FE78E5
:1007540006E26ED000F6EF2407F8C000E6FE780744
:10076400E26ED000F6EF2408F8C000E6FE7808E256
:100774006ED000F6EF2409F8C000E6FE7809E26EB8
:10078400D000F6EF240AF8C000E6FE780AE26ED044
:1007940000F6EF240BF8C000E6FE780BE26ED00002
:1007A400F6EF240CF8C000E6FE780CE26ED000F6FA
:1007B400EF240DF8C000E6FE780DE26ED000F6EFEF
:1007C400240EF8C000E6FE780EE26ED000F6EF24A8
:0E07D4000FF8C000E6FF780FE26FD000F622AB
:10089900780DE29005E993FE7800E2FDEE6DFEEF3A
:1008A9009006EA936EF2780EE29005E993FF7801DB
:1008B900E2FEEF6EF2780FE293FF7802E2FEEF6E4E
:1008C900F2780CE293FF7803E2FEEF6EF208E2FFA2
:1008D9007800E26F7804F208E2FF7801E26F7805A8
:1008E900F208E2FF7802E26F7806F208E2FF780385
:1008F900E26F7807F208E2FF7804E26F7808F208FD
:10090900E2FF7805E26F7809F208E2FF7806E26F04
:10091900780AF208E2FF7807E26F780BF208E2FF43
:100929007808E26F780CF208E2FF7809E26F780D37
:10093900F208E2FF780AE26F780EF208E2FF780B1C
:06094900E26F780FF222BC
:1004C900A807E6FE7800E26E9005E993A807F6E82A
:1004D9002404F8E6FE7804E26E93FEEF2404F8A6FD
:1004E90006EF2408F8E6FE7808E26E93FEEF24088A
:1004F900F8A606EF240CF8E6FE780CE26E93FEEF00
:10050900240CF8A606EF04F8E6FE7801E26E93F5EE
:100519002EEF2405F8E6FE7805E26E93FEEF04F867
:10052900A606EF2409F8E6FE7809E26E93FEEF24A9
:1005390005F8A606EF240DF8E6FE780DE26E93FEA7
:10054900EF2409F8A606EF240DF8A62EEF2402F8E9
:10055900E6FE7802E26E93F52EEF2406F8E6FE78C1
:1005690006E26E93F52FEF240AF8E6FE780AE26EAA
:1005790093FEEF2402F8A606EF240EF8E6FE780EA5
:10058900E26E93FEEF2406F8A606EF240AF8A62EDB
:10059900EF240EF8A62FEF240FF8E6FE780FE26E8F
:1005A90093F52EEF240BF8E6FE780BE26E93FEEF3F
:1005B900240FF8A606EF2407F8E6FE7807E26E9303
:1005C900FEEF240BF8A606EF2403F8E6FE7803E213
:0F05D9006E93FEEF2407F8A606EF2403F8A62E74
:0105E80022F0
:10020700EF2402F8E6FEEF2403F8E66EFEEF04F8AB
:10021700E6FD6EFEA807E6FC6EFEAB04EC6DF5DDB1
:10022700ADDFED6EFDE66DF6E82402F8E6FDEF04BE
:10023700F8E6FC6DF5DDADDFED6E6CF6EF2403F847
:10024700E6FDEF2402F8E6FC6DF5DDADDFED6E6C43
:10025700F6EF2403F8E6FC6BF5DDADDFED6E6CF62B
:10026700EF2406F8E6FEEF2407F8E66EFEEF240516
:10027700F8E6FD6EFEEF2404F8E6FC6EFEAB04EC38
:100287006DF5DDADDFED6E6CF6EF2406F8E6FDEFFC
:100297002405F8E6FC6DF5DDADDFED6E6CF6EF24B9
:1002A70007F8E6FDEF2406F8E6FC6DF5DDADDFEDBA
:1002B7006E6CF6EF2407F8E6FC6BF5DDADDFED6E4F
:1002C7006CF6EF240AF8E6FEEF240BF8E66EFEEF75
:1002D7002409F8E6FD6EFEEF2408F8E6FC6EFEAB97
:1002E70004EC6DF5DDADDFED6E6CF6EF240AF8E694
:1002F700FDEF2409F8E6FC6DF5DDADDFED6E6CF67C
:10030700EF240BF8E6FDEF240AF8E6FC6DF5DDAD0A
:10031700DFED6E6CF6EF240BF8E6FC6BF5DDADDF79
:10032700ED6E6CF6EF240EF8E6FEEF240FF8E66E9E
:10033700FEEF240DF8E6FD6EFEEF240CF8E66EFEE8
:10034700E6FB6DF5DDADDFED6EFDE66DF6EF240E38
:10035700F8E6FDEF240DF8E6FC6DF5DDADDFED6E9B
:100367006CF6EF240FF8E6FDEF240EF8E6FC6DF5CA
:10037700DDADDFED6E6CF6EF240FF8E6FC6BF5DD17
:06038700ADDFED6E6CF627
:01038D00224D
:10143000A2AF92D5C2AFD2FD8FFA20FCFDC2FDA2B1
:04144000D592AF2270
:10135B00A2AF92D5C2AFD2FD8E4A8F4B8F828E83B6
:0B136B00EDF020FCFDC2FDA2D592AF0A
:011376002254
:060E71008B1C8A1D891E86
:100E7700A2AF92D5C2AFD2FD8E4C8F4DE520152083
:100E8700AE1F7002151F4E6028AB1C051EE51EAA7B
:100E97001D7002051D14F912006EFF054DE54DACDE
:100EA7004C7002054C14F5828C83EFF030FCCD803A
:070EB700FBC2FDA2D592AFC2
:010EBE002211
:061640008F828E83E0FFA3
:011646002281
:10129E00E5241524AC23700215234C60168F828E24
:1012AE0083E01200B40FBF00010E740129F9E43A75
:0312BE00FA80DDD6
:0112C100220A
:07164700EFF5AFEEF5AF2255
:08160C00AFAFAEAF8FAF8EAFA0
:0116140022B3
:0416690043B3102255
:0B156800EF600443B3082253B3F722E6
:0E151400EF25E05406FFE5B354F94FF5B3227E
:0B157300EF600443B3012253B3FE22DB
:10149200E5B35406FD53B3F9EFF5B4EEF5B5ED42FD
:0114A200B396
:0114A3002226
:10144400E5B35406FD53B3F9AFB5EFFEACB4ECFF0E
:03145400ED42B3B3
:011457002272
:10145800E5B35408FD53B3F7AFABEFFEACB6ECFF02
:03146800ED42B39F
:01146B00225E
:03166D00AFAC22FD
:0B157E00EF600443D6802253D67F228A
:0B158900EF600443D6402253D6BF227F
:03167000AFD722CF
:1014A400E5D65420D39400E4940040037F01227FC6
:0214B400002214
:03000000020B26CA
:0C0B2600787FE4F6D8FD758184020B6D29
:10006E00BB010689828A83E0225002E722BBFE0290
:09007E00E32289828A83E49322C3
:10008700BB010CE58229F582E5833AF583E022502E
:1000970006E92582F8E622BBFE06E92582F8E22278
:0D00A700E58229F582E5833AF583E4932292
:1000B400BB010689828A83F0225002F722BBFE012B
:0200C400F32225
:1000C600F8BB010DE58229F582E5833AF583E8F070
:1000D600225006E92582C8F622BBFE05E92582C81C
:0200E600F22204
:1000E800EB9FF5F0EA9E42F0E99D42F0E89C45F06E
:0100F80022E5
:1000F900EF4E6012EF60010EEDBB010B89828A831E
:10010900F0A3DFFCDEFA2289F05007F709DFFCA92A
:0C011900F022BBFEFCF309DFFCA9F02281
:10012500E709F608DFFA8046E709F208DFFA803EBC
:1001350088828C83E709F0A3DFFA8032E309F608A9
:10014500DFFA806EE309F208DFFA806688828C8325
:10015500E309F0A3DFFA805A89828A83E0A3F608CF
:10016500DFFA804E89828A83E0A3F208DFFA8042B3
:1001750080D280FA80C680D4805580F28029801094
:1001850080A680EA809A80A880DA80E280CA8029E9
:1001950088848C8589828A83E493A30586F0A305E8
:1001A50086DFF5DEF3800B89828A83E493A3F60864
:1001B500DFF9ECFAA9F0EDFB2288848C8589828A27
:1001C50083E0A30586F0A30586DFF6DEF480E389E8
:1001D500828A83E493A3F208DFF980D688F0EF6082
:1001E500010E4E60CD88F0ED2402B4040050C3F535
:1001F50082EB2402B4040050B923234582239001E5
:0202050075730F
:100B32000207E2E493A3F8E493A34003F68001F2F0
:100B420008DFF48029E493A3F85407240CC8C333C4
:100B5200C4540F4420C8834004F456800146F6DF93
:100B6200E4800B01020408102040809011B3E47E5F
:100B7200019360BCA3FF543F30E509541FFEE49388
:100B8200A360010ECF54C025E060A840B8E493A34F
:100B9200FAE493A3F8E493A3C8C582C8CAC583CA7A
:100BA200F0A3C8C582C8CAC583CADFE9DEE780BE32
:0111DB000013
:00000001FF
