:10118400053500000000CD053000000000AB1860FC
:101194005E6CA774FDE3DFBCF7DA4A4F652D6EF091
:0811A400FFA6E65A8482664FA3
:10089800120EA51210D51214DB120D56120C247F5D
:1008A800007E0312163A2083033081587F647E004D
:1008B80012140F30832B308128E4F514120F201204
:1008C8000F957B007A007914120F5BE5146006C25D
:1008D80091C2938004D291D29312161012145F80A1
:1008E80023308320751501751603121225751A0118
:1008F800751B00751C207B017A0079101209F5120E
:100908000E5CB2937F0A120CF6EF602F20832C75D1
:100918001A00751B00751C167B007A0079151212D7
:1009280093121225751A01751B00751C207B017A1C
:100938000079101209F5120E5CB2911215FF12150A
:04094800870208AE6C
:10145F0020830330810C1215FF7F327E0012140F90
:03146F0080EE22EA
:100D56007B007A00791A7523007524047F007EFAD9
:100D660012126F7A0079787523007524107F047E3D
:100D7600FA12126F78357C007D007A00791A7E00AF
:100D86007F041201E178307C007D007B007A0079D7
:100D96001A7E007F041201E1752300752400752573
:0E0DA600007B007A0079787D04E4FF02162CB1
:100F5B008B178A188919E53B602F900034E064AB3E
:100F6B007027121103120D567B007A0079357F061C
:100F7B00120EE37B007A007930E4FF120EE3AB171D
:0A0F8B00AA18A91974011200B4227B
:101103007F201214237B017A007930751F0075202C
:10111300047F007EFA120E0E7B017A007920751F80
:0B112300007520107F047EFA020E0E03
:100F95007F011212F57F011212D7D2E8E4F53BE585
:100FA5003B7018308315308112B291A291B39293A0
:100FB5001215FF7F64FE12140F80E4C2E8E4FF12ED
:090FC50012F57D10E4FF0216177D
:020CF6008F1756
:100CF800E4F51BF51AF519F5187F011212F57F01B5
:100D08001212D7D2E8E4F53BE53B7031AF17FCFD92
:100D1800FEAB1BAA1AA919A818C31200E8501E7F17
:100D2800017E0012140FE51B2401F51BE4351AF5AA
:100D38001AE43519F519E43518F51880CBC2E8E43A
:0D0D4800FF1212F57D10E4FF121617AF3BED
:010D5500227B
:100F20007E007F047D007B007A0079351200F97E17
:100F3000007F047D007B007A0079301200F97B008D
:100F40007A0079357F06120EE37B007A007930E46F
:0B0F5000FF120EE37D15E4FF021617F0
:071610007D10E4FF02161734
:0B0E5C007B017A007910751B01AD16B8
:100E67008D1A7D1012161EAF1A121313E51A64039A
:100E77006003D38001C392907F011212F5E4FF1241
:100E870012D7AF1B151BEF600DD2E8753A01E53A93
:0E0E970070FCC2E880ECE4FF1212F5D290224B
:081225007B017A007920AD1570
:10122D008B178A188919ED75F008A42460F9E4FA72
:0D123D00FBA819AC18AD17FE7F080201E1F7
:101293008B178A188919AB1AAA1BA91CE41200B46C
:1012A300AB17AA18A91930810474028001E4120053
:0212B300B42263
:06103C008B4E8A4F895023
:101042007E087F01121571AF061EEF601D12149704
:10105200EF60FA121663AB4E0550E550AA4F7002CC
:0F106200054F14F9EF1200B480DDE4FF021571A1
:100EA500E4FFEFFD3395E0FCC3ED9408EC6480941A
:100EB50080500AEF2470F59EF59F0F80E575930B22
:100EC500E4F594759F03F59F759E11759E13F58046
:0D0ED500F59075CF0BF5AED290C291C2938F
:010EE20022ED
:100C2400E4FF12112E7F011210A67F051213B77D67
:100C34000F7C007F0F1212B57F6E1213FA7B007ABD
:100C44000079357F06120EE37D10E4FF1216177D3E
:100C540001E4FF120DB47B007A007930E4FF120E38
:100C6400E37D017F04120C8E7D017F05120C8E7DC5
:100C7400017F06120C8E7F011211FE7F041214A94B
:0A0C84007F051214A97F060214A9CF
:1010D500E4FF1215660F1215397F031215077FFFFE
:1010E5007E7F1214857F01121566E5AD54806480FC
:0E10F50060F8E5AD5480648070F875B828226C
:0F14DB00121550EF640270F8D2EAD2B9D2AF22E4
:0A15870075A40475A407E4F5A4227E
:03006B0002005A36
:01005A003273
:03005B0002006A36
:01006A003263
:03004B00020BAFF6
:100BAF00C0E0C0F0C083C082C085C084C086758697
:100BBF0000C0D075D000C000C001C002C003C00487
:060BCF00C005C006C007CE
:100BD50012004EEF24F0600A24D0600E2420701E0F
:100BE50080031215EB753A0080141215A5EF700BF2
:0E0BF5007B017A00792012165780EF753B01C4
:100C0300D007D006D005D004D003D002D001D00045
:100C1300D0D0D086D084D085D082D083D0F0D0E01D
:010C2300329E
:0A1591008FE7E5E630E1FBAFE7224B
:0212D7008F1C6A
:1012D900E4FF12136A8F1DE51C64017005431D01AB
:0C12E9008003531DFEAD1DE4FF02133115
:0212F5008F1C4C
:1012F700E4FF12136A8F1DE51C64017005431D028C
:0C1307008003531DFDAD1DE4FF021331F7
:0210A6008F17A2
:1010A800E4FF12136A8F18E51714600C14601124FA
:1010B8000270135318F7800E4318085318FB800664
:0D10C800431808431804AD18E4FF0213316B
:040C8E008F178D1817
:100C9200E4FF12136A8F19E51724FB601E146033F8
:100CA20024027049E51860047F0080027F01EF543E
:100CB20001C454F0FFE51954EF802FE51860047F5A
:100CC2000080027F01EF5401C43354E0FFE5195460
:100CD200DF8017E51860047F0080027F01EF540176
:100CE200C4333354C0FFE51954BF4FF519AD19E4AD
:040CF200FF021331B9
:0B004E007D707F07121331EF5470FF2C
:010059002284
:10139E007D707F07121331EF5470F55C7F071213C7
:0813AE006AEF540F425CAF5CD2
:0113B6002214
:1014A900A8077401088002C333D8FCFD7F07021323
:0114B9003101
:081608001215F5EF5470FF22EA
:040DB4008F178D18F0
:100DB8007F0212136A8F197F0112136A8F1AE517BF
:100DC80024FA500624076021802EAF17A807740163
:100DD800088002C333D8FCFF4219E5186005EF42CA
:100DE8001A8015EFF4521A800F75193FE51860053F
:100DF800751A3F8003E4F51AAD197F02121331AD5D
:060E08001A7F0102133104
:020003008F511B
:100005007F0212136A8F527F0112136A8F53E551D3
:1000150024FA5006240760168019AF51A807740109
:10002500088002C333D8FCF4525252538005E4F5DC
:1000350052F553AD527F02121331AD537F010213B6
:010045003189
:100EE3008F1A8B1B8A1C891DE51A14600A24FB5078
:100EF3001960042406702512159B8F22E51A242AF3
:100F0300FFAB1BAA1CA91D02094CE51A240AFFAB5F
:0D0F13001BAA1CA91D12006EFD1213312235
:101071008F468B478A488949E54614600824FB60FE
:10108100042406700BAB47AA48A949AF4602038E58
:10109100E546240AFF12136AAB47AA48A949EF1291
:0510A10000B47F0122F4
:0212B500AB0785
:1012B700EC540FC454F0FFE517540F4FF517EB54D8
:1012C7000FFFE51754F04FF517AD177F04021331E1
:1013B700E4F517EF24FE5403FFE51754FC4FF51728
:0713C700AD177F0302133193
:0A159B007F0312136AEF2402FF22FF
:07161700EF2411FF02133163
:020A93008F3C96
:100A95007F0212136A8F3D7F0112136A8F3EE53C78
:100AA50014601A14602714603414604314604E24D3
:100AB50005705EE53D5401F53FE53E804EAF3DEFE7
:100AC500C3135401F53FAF3EEFC313803EAF3DEF77
:100AD50013135401F53FAF3EEF1313802EAF3DEFD7
:100AE5001313135401F53FAF3EEF131313801CAFDF
:100AF5003DEFC45401F53FAF3EEFC4800EAF3DEF6F
:100B0500C4135401F53FAF3EEFC4135401F54080C3
:0D0B150005E4F53FF540E54025E0253FFFF4
:010B220022B0
:050046007F0802136AAF
:1013CE007F0812136AEF54F0FFE4C4F854F0C8EF2C
:0613DE00C4540F48FF2279
:100FCE00EF14601414601514601614601714601872
:100FDE002405701D7F1180127F12800E7F13800AF0
:100FEE007F1480067F1580027F1612136A8F5D8034
:060FFE0003E4F55DAF5DA8
:0110040022C9
:1013FA00E4F517EF547FFFE51754804FF517AD1743
:05140A007F0502133113
:021313008F1C2D
:101315007F0612136A8F1DE51C540325E0FFE51DAA
:0C13250054F94FF51DAD1D7F0602133179
:02112E008F1719
:101130007F0612136A8F18E517600924FE700D43AD
:10114000182080035318DF5318F780065318DF4325
:091150001808AD187F06021331E6
:0A15A5007F1712136AEF5401FF22B2
:0C005E007F1712136AEFC3135401FF2236
:0B1545007F1712136AEFC45401FF224D
:0C1515007F1712136AEFC4135401FF2269
:1013E4007F1712136AEF5430FFE4C4F854F0C8EFC7
:0613F400C4540F48FF2263
:0A15AF007F1712136AEF5403FF22A6
:05164D007F1702136A83
:0A15B9007F0812136AEF540FFF229F
:0A15C3007F0912136AEF5401FF22A2
:011666002261
:0C152100EF543FF55EAD5E7F1C021331FD
:0211AD008F545D
:1011AF007F1D12136A8F55E55460047F0180027F03
:1011BF0000EF540125E025E0FFE55554FB4FF555B1
:0711CF00AD557F1D02133135
:0211FE008F1749
:101200007F1D12136A8F18E51760047F0180027F2B
:1012100000EF540125E0FFE51854FD4FF518AD1817
:051220007F1D021331E7
:02124A008F56BD
:10124C007F1D12136A8F57E55660047F0180027F61
:10125C0000EF5401FFE55754FE4FF557AD577F1D76
:03126C0002133139
:07161E008D227FA002094CA0
:071625008D227FB002094C89
:0A15CD00EF44A8FF85452202094CF7
:051652007F6002136A35
:051657007F0802038E74
:0E14F9001215F5EF540EFFE4C313EF13FF229C
:0A15D700C2E97FE3121591D2E92268
:1014720012164D7E00EF54407806CEC313CE13D819
:03148200F9FF224D
:0A15E100C2E97FE2121591D2E9225F
:0A15EB00C2E97FE1121591D2E92256
:0915F500C2E97FFF121591D2E951
:0115FE0022CA
:0211D6008F5830
:1011D8007F0612136A8F59E55860047F0180027FE9
:1011E80000EF5401C454F0FFE55954EF4FF559ADE1
:0611F800597F06021331CD
:021159008F5AAB
:10115B007F0612136A8F5BE55A60047F0180027F62
:10116B0000EF5401C43333335480FFE55B547F4F9E
:09117B00F55BAD5B7F0602133148
:10136A00C2E98FE7E5E6540260FAAFE7E4F5E7E59C
:09137A00E6540260FAAFE7D2E983
:011383002247
:10133100C2E9EF2420F5E7E5E6540260FAAFE78D54
:0C134100E7E5E6540260FA85E75FD2E9B8
:01134D00227D
:08038E008F088B098A0A890B14
:1003960075100185090EE50814600C24FB6008241D
:1003A600FE60142408702E12159B8F0C8F0DC2E967
:1003B600E508240AFF80191214F98F08C3EF940781
:1003C600E4940050101216528F0C8F0DC2E97F6113
:1003D6001215918005E4F50DF50CAF0E7E00EF7059
:0103E60028EE
:1003E700850B11E4F5E7E5107008A811A60F0511B4
:1003F7008003E4F510E5E6540260FA85E70FD50CB3
:05040700E2A811A60FA0
:09040C000204C0EF64014E703AD5
:10041500850A11850B12E4F5E7E510701385128244
:10042500851183E50FF00512E512700705118003AC
:10043500E4F510E5E6540260FA85E70FD50CD7859B
:080445001282851183E50FF01E
:08044D008071E50E64FE7029C8
:10045500850B11E4F5E7E5107009A811E50FF20524
:10046500118003E4F510E5E6540260FA85E70FD53F
:070475000CE1A811E50FF2F4
:02047C008042BC
:10047E00850911850A12850B13E4F5E7E51070184E
:10048E00AB11AA12A913E50F1200B474012513F5CE
:10049E0013E43512F5128003E4F510E5E65402601C
:1004AE00FA85E70FD50CD2AB11AA12A913E50F12DC
:0204BE0000B488
:0804C000D2E9E508FEE50DFF9D
:0104C8002211
:06094C008B1F8A208921A7
:09095200AD1FC2E98FE7ED701939
:10095B00852124A824E6FE0524E5E6540260FA85E9
:07096B00E7238EE7D522EC23
:070972008075ED64017026A1
:10097900852024852125852582852483E0FE05257A
:10098900E52570020524E5E6540260FA85E7238E21
:04099900E7D522E29A
:07099D00804AED64FE7019B1
:1009A400852124A824E2FE0524E5E6540260FA85A4
:0709B400E7238EE7D522ECDA
:0209BB00802C8E
:1009BD00851F24852025852126AB24AA25A926124D
:1009CD00006EFE74012526F526E43525F525E5E6B0
:0C09DD00540260FA85E7238EE7D522DD86
:0B09E900E5E6540260FA85E723D2E93E
:0109F40022E0
:1014CB00EF6009E5A3448054F7F5A32253A37722D9
:1014BA00EF5401C4333354C0FFE5A354B74FF5A327
:0114CA0022FF
:0F14EA00EF5403C454F0FFE5A354C74FF5A322FA
:0A155000E5AD30E3037F02227F01C6
:01155A00226E
:0C152D00EF5407FFE5A354F04FF5A32294
:06164100E5AD5480FF221C
:06164700E5AD5440FF2256
:0C153900EF5407FFE5AD54F84FF5AD226C
:0B1384007FFA7E0012138F7FFA7E00BC
:0F138F000000000000EF1F70011E144E70F222CC
:10140F00AD07AC06121384121384ED1D70011C146A
:04141F004C70F122FA
:1005E900637C777BF26B6FC53001672BFED7AB76E7
:1005F900CA82C97DFA5947F0ADD4A2AF9CA472C092
:10060900B7FD9326363FF7CC34A5E5F171D83115FE
:1006190004C723C31896059A071280E2EB27B2751F
:1006290009832C1A1B6E5AA0523BD6B329E32F8497
:1006390053D100ED20FCB15B6ACBBE394A4C58CF8F
:10064900D0EFAAFB434D338545F9027F503C9FA863
:1006590051A3408F929D38F5BCB6DA2110FFF3D231
:10066900CD0C13EC5F974417C4A77E3D645D1973E5
:1006790060814FDC222A908846EEB814DE5E0BDBDF
:10068900E0323A0A4906245CC2D3AC629195E47916
:10069900E7C8376D8DD54EA96C56F4EA657AAE0870
:1006A900BA78252E1CA6B4C6E8DD741F4BBD8B8A0B
:1006B900703EB5664803F60E613557B986C11D9E71
:1006C900E1F8981169D98E949B1E87E9CE5528DFE8
:1006D9008CA1890DBFE6426841992D0FB054BB1614
:0B06E9008D01020408102040801B3629
:07162C008F1E8D1F02100547
:0609F5008B178A18891916
:1009FB00E4F52DC3E52D941074809480501BAB1A35
:100A0B00AA1BA91C852D82758300120087FF741DFC
:100A1B00252DF8A607052D80DA75DE02E4F52DC32A
:100A2B00E52D94097480948050137F1D1204C97FA7
:100A3B001D120207AF2D1207E2052D80E27F1D125A
:100A4B0004C97F091207E27F1D1206F4E4F52DC3DA
:100A5B00E52D941074809480502D7435252DF582DE
:100A6B00E43400F583E0FF7400252DF8EFF2741DDC
:100A7B00252DF8E6AB17AA18A919852D82758300C9
:070A8B001200C6052D80C812
:010A92002241
:061005008B268A278928D2
:10100B00E4FFEFC39410748094805024AB26AA277E
:10101B00A9288F82758300120087FE74002FF8EECB
:10102B00F274352FF582E43400F583EEF00F80D2A5
:01103B002292
:1006F400A807C000E6FE7800E26ED000F6EF04F82A
:10070400C000E6FE7801E26ED000F6EF2402F8C0E5
:1007140000E6FE7802E26ED000F6EF2403F8C00093
:10072400E6FE7803E26ED000F6EF2404F8C000E69B
:10073400FE7804E26ED000F6EF2405F8C000E6FE71
:100744007805E26ED000F6EF2406F8C000E6FE78E5
:1007540006E26ED000F6EF2407F8C000E6FE780744
:10076400E26ED000F6EF2408F8C000E6FE7808E256
:100774006ED000F6EF2409F8C000E6FE7809E26EB8
:10078400D000F6EF240AF8C000E6FE780AE26ED044
:1007940000F6EF240BF8C000E6FE780BE26ED00002
:1007A400F6EF240CF8C000E6FE780CE26ED000F6FA
:1007B400EF240DF8C000E6FE780DE26ED000F6EFEF
:1007C400240EF8C000E6FE780EE26ED000F6EF24A8
:0E07D4000FF8C000E6FF780FE26FD000F622AB
:1007E200780DE29005E993FE7800E2FDEE6DFEEFF2
:1007F2009006EA936EF2780EE29005E993FF780193
:10080200E2FEEF6EF2780FE293FF7802E2FEEF6E05
:10081200F2780CE293FF7803E2FEEF6EF208E2FF59
:100822007800E26F7804F208E2FF7801E26F78055F
:10083200F208E2FF7802E26F7806F208E2FF78033C
:10084200E26F7807F208E2FF7804E26F7808F208B4
:10085200E2FF7805E26F7809F208E2FF7806E26FBC
:10086200780AF208E2FF7807E26F780BF208E2FFFB
:100872007808E26F780CF208E2FF7809E26F780DEF
:10088200F208E2FF780AE26F780EF208E2FF780BD4
:06089200E26F780FF22274
:1004C900A807E6FE7800E26E9005E993A807F6E82A
:1004D9002404F8E6FE7804E26E93FEEF2404F8A6FD
:1004E90006EF2408F8E6FE7808E26E93FEEF24088A
:1004F900F8A606EF240CF8E6FE780CE26E93FEEF00
:10050900240CF8A606EF04F8E6FE7801E26E93F5EE
:100519002EEF2405F8E6FE7805E26E93FEEF04F867
:10052900A606EF2409F8E6FE7809E26E93FEEF24A9
:1005390005F8A606EF240DF8E6FE780DE26E93FEA7
:10054900EF2409F8A606EF240DF8A62EEF2402F8E9
:10055900E6FE7802E26E93F52EEF2406F8E6FE78C1
:1005690006E26E93F52FEF240AF8E6FE780AE26EAA
:1005790093FEEF2402F8A606EF240EF8E6FE780EA5
:10058900E26E93FEEF2406F8A606EF240AF8A62EDB
:10059900EF240EF8A62FEF240FF8E6FE780FE26E8F
:1005A90093F52EEF240BF8E6FE780BE26E93FEEF3F
:1005B900240FF8A606EF2407F8E6FE7807E26E9303
:1005C900FEEF240BF8A606EF2403F8E6FE7803E213
:0F05D9006E93FEEF2407F8A606EF2403F8A62E74
:0105E80022F0
:10020700EF2402F8E6FEEF2403F8E66EFEEF04F8AB
:10021700E6FD6EFEA807E6FC6EFEAB04EC6DF5DDB1
:10022700ADDFED6EFDE66DF6E82402F8E6FDEF04BE
:10023700F8E6FC6DF5DDADDFED6E6CF6EF2403F847
:10024700E6FDEF2402F8E6FC6DF5DDADDFED6E6C43
:10025700F6EF2403F8E6FC6BF5DDADDFED6E6CF62B
:10026700EF2406F8E6FEEF2407F8E66EFEEF240516
:10027700F8E6FD6EFEEF2404F8E6FC6EFEAB04EC38
:100287006DF5DDADDFED6E6CF6EF2406F8E6FDEFFC
:100297002405F8E6FC6DF5DDADDFED6E6CF6EF24B9
:1002A70007F8E6FDEF2406F8E6FC6DF5DDADDFEDBA
:1002B7006E6CF6EF2407F8E6FC6BF5DDADDFED6E4F
:1002C7006CF6EF240AF8E6FEEF240BF8E66EFEEF75
:1002D7002409F8E6FD6EFEEF2408F8E6FC6EFEAB97
:1002E70004EC6DF5DDADDFED6E6CF6EF240AF8E694
:1002F700FDEF2409F8E6FC6DF5DDADDFED6E6CF67C
:10030700EF240BF8E6FDEF240AF8E6FC6DF5DDAD0A
:10031700DFED6E6CF6EF240BF8E6FC6BF5DDADDF79
:10032700ED6E6CF6EF240EF8E6FEEF240FF8E66E9E
:10033700FEEF240DF8E6FD6EFEEF240CF8E66EFEE8
:10034700E6FB6DF5DDADDFED6EFDE66DF6EF240E38
:10035700F8E6FDEF240DF8E6FC6DF5DDADDFED6E9B
:100367006CF6EF240FF8E6FDEF240EF8E6FC6DF5CA
:10037700DDADDFED6E6CF6EF240FF8E6FC6BF5DD17
:06038700ADDFED6E6CF627
:01038D00224D
:10142300A2AF92D5C2AFD2FD8FFA20FCFDC2FDA2BE
:04143300D592AF227D
:10134E00A2AF92D5C2AFD2FD8E4A8F4B8F828E83C3
:0B135E00EDF020FCFDC2FDA2D592AF17
:011369002261
:060E0E008B1C8A1D891EE9
:100E1400A2AF92D5C2AFD2FD8E4C8F4DE5201520E6
:100E2400AE1F7002151F4E6028AB1C051EE51EAADE
:100E34001D7002051D14F912006EFF054DE54DAC41
:100E44004C7002054C14F5828C83EFF030FCCD809D
:070E5400FBC2FDA2D592AF25
:010E5B002274
:061633008F828E83E0FFB0
:01163900228E
:10126F00E5241524AC23700215234C60168F828E53
:10127F0083E01200B40FBF00010E740129F9E43AA4
:03128F00FA80DD05
:011292002239
:07163A00EFF5AFEEF5AF2262
:0815FF00AFAFAEAF8FAF8EAFAE
:0116070022C0
:04165C0043B3102262
:0B155B00EF600443B3082253B3F722F3
:0E150700EF25E05406FFE5B354F94FF5B3228B
:0B156600EF600443B3012253B3FE22E8
:10148500E5B35406FD53B3F9EFF5B4EEF5B5ED420A
:01149500B3A3
:011496002233
:10143700E5B35406FD53B3F9AFB5EFFEACB4ECFF1B
:03144700ED42B3C0
:01144A00227F
:10144B00E5B35408FD53B3F7AFABEFFEACB6ECFF0F
:03145B00ED42B3AC
:01145E00226B
:03166000AFAC220A
:0B157100EF600443D6802253D67F2297
:0B157C00EF600443D6402253D6BF228C
:03166300AFD722DC
:10149700E5D65420D39400E4940040037F01227FD3
:0214A700002221
:03000000020B23CD
:0C0B2300787FE4F6D8FD758187020B6A2C
:10006E00BB010689828A83E0225002E722BBFE0290
:09007E00E32289828A83E49322C3
:10008700BB010CE58229F582E5833AF583E022502E
:1000970006E92582F8E622BBFE06E92582F8E22278
:0D00A700E58229F582E5833AF583E4932292
:1000B400BB010689828A83F0225002F722BBFE012B
:0200C400F32225
:1000C600F8BB010DE58229F582E5833AF583E8F070
:1000D600225006E92582C8F622BBFE05E92582C81C
:0200E600F22204
:1000E800EB9FF5F0EA9E42F0E99D42F0E89C45F06E
:0100F80022E5
:1000F900EF4E6012EF60010EEDBB010B89828A831E
:10010900F0A3DFFCDEFA2289F05007F709DFFCA92A
:0C011900F022BBFEFCF309DFFCA9F02281
:10012500E709F608DFFA8046E709F208DFFA803EBC
:1001350088828C83E709F0A3DFFA8032E309F608A9
:10014500DFFA806EE309F208DFFA806688828C8325
:10015500E309F0A3DFFA805A89828A83E0A3F608CF
:10016500DFFA804E89828A83E0A3F208DFFA8042B3
:1001750080D280FA80C680D4805580F28029801094
:1001850080A680EA809A80A880DA80E280CA8029E9
:1001950088848C8589828A83E493A30586F0A305E8
:1001A50086DFF5DEF3800B89828A83E493A3F60864
:1001B500DFF9ECFAA9F0EDFB2288848C8589828A27
:1001C50083E0A30586F0A30586DFF6DEF480E389E8
:1001D500828A83E493A3F208DFF980D688F0EF6082
:1001E500010E4E60CD88F0ED2402B4040050C3F535
:1001F50082EB2402B4040050B923234582239001E5
:0202050075730F
:100B2F00020898E493A3F8E493A34003F68001F23C
:100B3F0008DFF48029E493A3F85407240CC8C333C7
:100B4F00C4540F4420C8834004F456800146F6DF96
:100B5F00E4800B0102040810204080901184E47E91
:100B6F00019360BCA3FF543F30E509541FFEE4938B
:100B7F00A360010ECF54C025E060A840B8E493A352
:100B8F00FAE493A3F8E493A3C8C582C8CAC583CA7D
:100B9F00F0A3C8C582C8CAC583CADFE9DEE780BE35
:0111AC000042
:00000001FF
